
/home/w/linux/tf-a-stm32mp-v2.6-stm32mp1-r1-r0/tf-a-stm32mp-v2.6-stm32mp1-r1/../build/trusted/bl32/bl32.elf:     file format elf32-littlearm
/home/w/linux/tf-a-stm32mp-v2.6-stm32mp1-r1-r0/tf-a-stm32mp-v2.6-stm32mp1-r1/../build/trusted/bl32/bl32.elf
architecture: armv7, flags 0x00000150:
HAS_SYMS, DYNAMIC, D_PAGED
start address 0x00012e40

Program Header:
    LOAD off    0x00010000 vaddr 0x00000000 paddr 0x00000000 align 2**16
         filesz 0x00014820 memsz 0x0001b000 flags rwx
 DYNAMIC off    0x00023bfc vaddr 0x00013bfc paddr 0x00013bfc align 2**2
         filesz 0x00000058 memsz 0x00000058 flags rw-
   STACK off    0x00000000 vaddr 0x00000000 paddr 0x00000000 align 2**4
         filesz 0x00000000 memsz 0x00000000 flags rwx

Dynamic Section:
  DEBUG                0x00000000
  REL                  0x00013c60
  RELSZ                0x00000bc0
  RELENT               0x00000008
  FLAGS_1              0x08000000
  RELCOUNT             0x00000178
private flags = 0x5000200: [Version5 EABI] [soft-float ABI]

Sections:
Idx Name          Size      VMA       LMA       File off  Algn
  0 ro            00013000  00000000  00000000  00010000  2**5
                  CONTENTS, ALLOC, LOAD, READONLY, CODE
  1 .data         00000bfa  00013000  00013000  00023000  2**3
                  CONTENTS, ALLOC, LOAD, DATA
  2 .dynamic      00000058  00013bfc  00013bfc  00023bfc  2**2
                  CONTENTS, ALLOC, LOAD, DATA
  3 .got.plt      0000000c  00013c54  00013c54  00023c54  2**2
                  CONTENTS, ALLOC, LOAD, DATA
  4 .rel.dyn      00000bc0  00013c60  00013c60  00023c60  2**2
                  CONTENTS, ALLOC, LOAD, READONLY, DATA
  5 stacks        00000c00  00014840  00014840  00024820  2**6
                  ALLOC
  6 .bss          00001560  00015440  00015440  00024820  2**6
                  ALLOC
  7 xlat_table    00004000  00017000  00017000  00024820  2**12
                  ALLOC
  8 .debug_info   00051246  00000000  00000000  00024820  2**0
                  CONTENTS, READONLY, DEBUGGING, OCTETS
  9 .debug_abbrev 000113b6  00000000  00000000  00075a66  2**0
                  CONTENTS, READONLY, DEBUGGING, OCTETS
 10 .debug_aranges 000029a0  00000000  00000000  00086e20  2**3
                  CONTENTS, READONLY, DEBUGGING, OCTETS
 11 .debug_line   00028190  00000000  00000000  000897c0  2**0
                  CONTENTS, READONLY, DEBUGGING, OCTETS
 12 .debug_str    0000c654  00000000  00000000  000b1950  2**0
                  CONTENTS, READONLY, DEBUGGING, OCTETS
 13 .comment      00000057  00000000  00000000  000bdfa4  2**0
                  CONTENTS, READONLY
 14 .ARM.attributes 00000035  00000000  00000000  000bdffb  2**0
                  CONTENTS, READONLY
 15 .debug_loclists 000234ee  00000000  00000000  000be030  2**0
                  CONTENTS, READONLY, DEBUGGING, OCTETS
 16 .debug_rnglists 00004372  00000000  00000000  000e151e  2**0
                  CONTENTS, READONLY, DEBUGGING, OCTETS
 17 .debug_frame  00006e3c  00000000  00000000  000e5890  2**2
                  CONTENTS, READONLY, DEBUGGING, OCTETS
 18 .debug_ranges 00000398  00000000  00000000  000ec6d0  2**3
                  CONTENTS, READONLY, DEBUGGING, OCTETS
SYMBOL TABLE:
00000000 l    d  ro	00000000 ro
00013000 l    d  .data	00000000 .data
00013bfc l    d  .dynamic	00000000 .dynamic
00013c54 l    d  .got.plt	00000000 .got.plt
00013c60 l    d  .rel.dyn	00000000 .rel.dyn
00014840 l    d  stacks	00000000 stacks
00015440 l    d  .bss	00000000 .bss
00017000 l    d  xlat_table	00000000 xlat_table
00000000 l    d  .debug_info	00000000 .debug_info
00000000 l    d  .debug_abbrev	00000000 .debug_abbrev
00000000 l    d  .debug_aranges	00000000 .debug_aranges
00000000 l    d  .debug_line	00000000 .debug_line
00000000 l    d  .debug_str	00000000 .debug_str
00000000 l    d  .comment	00000000 .comment
00000000 l    d  .ARM.attributes	00000000 .ARM.attributes
00000000 l    d  .debug_loclists	00000000 .debug_loclists
00000000 l    d  .debug_rnglists	00000000 .debug_rnglists
00000000 l    d  .debug_frame	00000000 .debug_frame
00000000 l    d  .debug_ranges	00000000 .debug_ranges
00000000 l    df *ABS*	00000000 entrypoint.o
00000030 l       ro	00000000 pie_fixup
0000040c l     F ro	0000008c sp_min_exit
00000000 l    df *ABS*	00000000 sp_min_main.c
00015748 l     O .bss	00000008 sp_min_cpu_ctx_ptr
000154c0 l     O .bss	00000120 sp_min_smc_context
00013048 l     O .data	0000000c psci_args.0
00000000 l    df *ABS*	00000000 fdt_wrappers.c
0000d632 l     F ro	00000004 fdt32_to_cpu
0000d632 l     F ro	00000004 cpu_to_fdt32
00000000 l    df *ABS*	00000000 runtime_svc.c
00000000 l    df *ABS*	00000000 gicv2_helpers.c
00000000 l    df *ABS*	00000000 gicv2_main.c
00015750 l     O .bss	00000004 driver_data
00015754 l     O .bss	00000004 gic_lock
00000000 l    df *ABS*	00000000 base.c
00001084 l     F ro	000000a0 discover_list_protocols
0000d796 l     F ro	00000024 discover_implementation_version
00001124 l     F ro	00000048 report_message_attributes
0000d7ba l     F ro	00000028 report_version
0000116c l     F ro	00000058 discover_sub_vendor
000011c4 l     F ro	00000058 discover_vendor
0000d7e2 l     F ro	0000002e report_attributes
00013054 l     O .data	0000001c scmi_base_handler_table
00000000 l    df *ABS*	00000000 clock.c
0000123c l     F ro	00000048 report_message_attributes
0000d810 l     F ro	00000028 report_version
00001284 l     F ro	00000034 write_rate_desc_array_in_buffer
0000d838 l     F ro	00000034 report_attributes
0000d86c l     F ro	00000100 scmi_clock_describe_rates
0000d96c l     F ro	0000005a scmi_clock_rate_get
0000d9c6 l     F ro	00000042 scmi_clock_rate_set
000012b8 l     F ro	0000008c scmi_clock_attributes
0000da08 l     F ro	00000046 scmi_clock_config_set
0000da54 l     F ro	00000068 scmi_clock_duty_cycle_get
0000dac0 l     F ro	0000005a scmi_clock_round_rate_get
00013070 l     O .data	00000028 scmi_clock_handler_table
00000000 l    df *ABS*	00000000 entry.c
00000000 l    df *ABS*	00000000 reset_domain.c
00001418 l     F ro	00000048 report_message_attributes
0000db1e l     F ro	00000028 report_version
0000db46 l     F ro	0000002e report_attributes
00001460 l     F ro	00000094 reset_domain_attributes
0000db74 l     F ro	0000006e reset_request
00013098 l     O .data	00000014 scmi_rstd_handler_table
00000000 l    df *ABS*	00000000 smt.c
00001514 l     F ro	000000cc scmi_proccess_smt
00015758 l     O .bss	000000b8 fast_smc_payload
00015810 l     O .bss	00000004 smt_channels_lock
00000000 l    df *ABS*	00000000 stm32mp1_calib.c
0000dc02 l     F ro	00000026 trim_increase
0000dc28 l     F ro	00000084 trim_table_init
00001600 l     F ro	00000020 csi_get_trimed_cal
00001620 l     F ro	0000002c csi_set_trim
0000164c l     F ro	00000020 hsi_get_trimed_cal
0000166c l     F ro	00000024 hsi_set_trim
00001690 l     F ro	000001b8 rcc_calibration
000168ae l     O .bss	00000001 rcc_wakeup
00015814 l     O .bss	00000004 timer_val
00013b28 l     O .data	00000022 fbv_csi
00013b4a l     O .data	00000022 fbv_hsi
000130ac l     O .data	000000a8 stm32mp1_clk_cal_csi
00013154 l     O .data	000000a8 stm32mp1_clk_cal_hsi
00000000 l    df *ABS*	00000000 etzpc.c
00015818 l     O .bss	0000000c etzpc_dev
00000000 l    df *ABS*	00000000 stm32_rng.c
00001bf4 l     F ro	00000054 seed_error_recovery
00015824 l     O .bss	00000008 stm32_rng
00000000 l    df *ABS*	00000000 stm32_rtc.c
00001e40 l     F ro	0000003c stm32_rtc_read_calendar
0000dcac l     F ro	0000002c stm32_is_a_leap_year
00001e7c l     F ro	0000005c stm32_rtc_get_date
00001ed8 l     F ro	0000005c stm32_rtc_get_time
00001f34 l     F ro	00000024 stm32_rtc_get_second_fraction.isra.0
0001582c l     O .bss	00000004 lock
00015830 l     O .bss	00000010 rtc_dev
00010bfb l     O ro	0000000c month_len.0
00000000 l    df *ABS*	00000000 stm32_tamp.c
000131fc l     O .data	0000009c stm32_tamp
00000000 l    df *ABS*	00000000 stm32_timer.c
000026f8 l     F ro	00000080 stm32_timer_config
00002778 l     F ro	000000d0 stm32_timer_start_capture
00015840 l     O .bss	00000020 stm32_timer
00010d65 l     O ro	00000018 __func__.0
00000000 l    df *ABS*	00000000 context_mgmt.c
00000000 l    df *ABS*	00000000 bakery_lock_normal.c
00000000 l    df *ABS*	00000000 psci_common.c
00002cbc l     F ro	00000030 psci_set_req_local_pwr_state
000168af l     O .bss	00000002 psci_req_local_pwr_states
00013298 l     O .data	0000000c psci_state_type_str.0
00000000 l    df *ABS*	00000000 psci_main.c
00000000 l    df *ABS*	00000000 psci_mem_protect.c
00000000 l    df *ABS*	00000000 psci_off.c
00000000 l    df *ABS*	00000000 psci_on.c
00000000 l    df *ABS*	00000000 psci_setup.c
000155e0 l     O .bss	00000040 psci_ns_context
00000000 l    df *ABS*	00000000 psci_suspend.c
00000000 l    df *ABS*	00000000 psci_system_off.c
00000000 l    df *ABS*	00000000 plat_psci_common.c
00000000 l    df *ABS*	00000000 stm32mp_gic.c
0000de8a l     F ro	00000004 fdt32_to_cpu
0000de8e l     F ro	00000064 enable_gic_interrupt
000158a8 l     O .bss	00000008 stm32mp_gic
000132a4 l     O .data	00000018 platform_gic_data
000132bc l     O .data	00000008 target_mask_array
00010220 l     O ro	0000002c stm32mp_interrupt_props
00000000 l    df *ABS*	00000000 bsec_svc.c
00000000 l    df *ABS*	00000000 pwr_svc.c
00000000 l    df *ABS*	00000000 stm32mp1_svc_setup.c
0000dfa8 l     F ro	00000004 stm32mp1_svc_setup
00004638 l     F ro	000000f0 stm32mp1_svc_smc_handler
00012d98 l     O ro	00000010 __svc_desc_stm32mp1_sip_svc
00000000 l    df *ABS*	00000000 sp_min_setup.c
00004728 l     F ro	00000028 stm32mp1_tamper_action
00004750 l     F ro	0000004c get_saved_pc
000158b0 l     O .bss	00000024 bl33_image_ep_info
000132c4 l     O .data	00000010 tamper_name
00000000 l    df *ABS*	00000000 stm32mp1_critic_power.c
00004cc8 l     F ro	00000030 cstop_critic_enter
0000dfae l     F ro	00000022 shutdown_critic_enter
000158d4 l     O .bss	00000800 int_stack
00000000 l    df *ABS*	00000000 stm32mp1_low_power.c
00004d5c l     F ro	000000c0 smp_synchro
00004e68 l     F ro	00000184 enter_cstop
000160d4 l     O .bss	00000004 cpu0_state
000160d8 l     O .bss	00000004 cpu1_state
000168b1 l     O .bss	00000001 enter_cstop_done
000160dc l     O .bss	00000004 gicc_pmr
000160e0 l     O .bss	00000004 lp_lock
000160e4 l     O .bss	0000000c sleep_time
00015620 l     O .bss	00000008 stgen_cnt
000132d4 l     O .data	00000060 config_pwr
00000000 l    df *ABS*	00000000 stm32mp1_pm.c
0000e0a6 l     F ro	00000002 stm32_pwr_domain_off
0000e0a8 l     F ro	0000001c stm32_validate_power_state
00005098 l     F ro	0000001c stm32_validate_ns_entrypoint
0000e0c4 l     F ro	0000000c stm32_node_hw_state
0000e0d0 l     F ro	00000008 stm32_get_sys_suspend_power_state
0000e0d8 l     F ro	00000006 stm32_system_reset
000050b4 l     F ro	0000001c stm32_pwr_domain_suspend
0000e0de l     F ro	00000040 stm32_system_off
000050d0 l     F ro	00000050 stm32_pwr_domain_pwr_down_wfi
00005120 l     F ro	00000018 stm32_pwr_domain_on_finish
00005138 l     F ro	00000090 stm32_pwr_domain_on
000051c8 l     F ro	0000003c stm32_cpu_standby
0000e11e l     F ro	00000002 stm32_pwr_domain_suspend_finish
000160f0 l     O .bss	00000004 cntfrq_core0
000160f4 l     O .bss	00000004 saved_entrypoint
000160f8 l     O .bss	00000004 stm32_sec_entrypoint
00013334 l     O .data	00000054 stm32_psci_ops
00000000 l    df *ABS*	00000000 stm32mp1_power_config.c
000160fc l     O .bss	00000004 deepest_system_suspend_mode
000168b2 l     O .bss	00000003 pm_dom
000168b5 l     O .bss	00000001 retram_enabled
000168b6 l     O .bss	00000008 stm32mp1_supported_soc_modes
00016100 l     O .bss	00000004 system_off_mode
00000000 l    df *ABS*	00000000 stm32mp1_scmi.c
000053ec l     F ro	00000010 find_resource.part.0
000053fc l     F ro	00000040 find_clock
0000543c l     F ro	00000040 find_rstd
00013388 l     O .data	000000fc stm32_scmi0_clock
00013484 l     O .data	00000060 stm32_scmi0_reset_domain
000134e4 l     O .data	00000024 stm32_scmi1_clock
00013508 l     O .data	00000020 agent_resources
00013528 l     O .data	00000020 scmi_channel
0001163c l     O ro	00000003 plat_protocol_list
0001163f l     O ro	00000001 sub_vendor
00011640 l     O ro	00000003 vendor
00000000 l    df *ABS*	00000000 stm32mp1_shared_resources.c
00005698 l     F ro	00000024 periph_is_non_secure
000056bc l     F ro	00000044 decprot2str
00005700 l     F ro	0000005c check_decprot
0000575c l     F ro	0000003c get_gpioz_nbpin
00005798 l     F ro	000000c0 register_periph
00005858 l     F ro	00000128 register_periph_iomem
000168be l     O .bss	00000001 registering_locked
000168bf l     O .bss	00000014 shres_state
00013bf8 l     O .data	00000001 gpioz_nbpin
00013548 l     O .data	00000090 shres2decprot_tbl
000135d8 l     O .data	00000050 shres2str_id_tbl
00000000 l    df *ABS*	00000000 stm32mp1_topology.c
00011809 l     O ro	00000002 stm32mp1_power_domain_tree_desc
00000000 l    df *ABS*	00000000 arm_arch_svc_setup.c
00005dfc l     F ro	00000098 arm_arch_svc_smc_handler
00012da8 l     O ro	00000010 __svc_desc_arm_arch_svc
00000000 l    df *ABS*	00000000 std_svc_setup.c
00005e94 l     F ro	00000074 std_svc_smc_handler
00005f08 l     F ro	00000028 std_svc_setup
00012db8 l     O ro	00000010 __svc_desc_std_svc
00000000 l    df *ABS*	00000000 tf_log.c
00013628 l     O .data	00000004 max_log_level
00000000 l    df *ABS*	00000000 multi_console.c
00000000 l    df *ABS*	00000000 plat_log_common.c
0001362c l     O .data	00000014 plat_prefix_str
00000000 l    df *ABS*	00000000 stm32mp_common.c
00016108 l     O .bss	00000018 console
00016120 l     O .bss	00000010 dt_uart_info
00016130 l     O .bss	00000004 lock
00000000 l    df *ABS*	00000000 stm32mp1_private.c
000063c4 l     F ro	00000038 get_part_number
000168d3 l     O .bss	00000001 firstcore.0
00016134 l     O .bss	00000004 itf.1
00016138 l     O .bss	00000004 part_number.2
00013640 l     O .data	00000058 dump_table
000101a8 l     O ro	00000078 stm32mp1_mmap
00010254 l     O ro	00000020 stm32mp1_uart_addresses
00000000 l    df *ABS*	00000000 xlat_tables_arch.c
00000000 l    df *ABS*	00000000 xlat_tables_context.c
0001613c l     O .bss	00000010 tf_mapped_regions
00015640 l     O .bss	00000108 tf_mmap
00013000 l     O .data	00000048 tf_xlat_ctx
00017000 l     O xlat_table	00004000 tf_xlat_tables
00016980 l     O .bss	00000020 tf_base_xlat_table
00000000 l    df *ABS*	00000000 xlat_tables_core.c
0000e63a l     F ro	0000012e mmap_add_region_check
0000e768 l     F ro	0000001a xlat_clean_dcache_range
00006860 l     F ro	0000002c xlat_table_get_index
0000688c l     F ro	00000160 xlat_tables_unmap_region
00006ac0 l     F ro	000001d4 xlat_tables_map_region
00000000 l    df *ABS*	00000000 tzc400.c
0001614c l     O .bss	00000008 tzc400
00000000 l    df *ABS*	00000000 clk.c
00016154 l     O .bss	00000004 ops
00000000 l    df *ABS*	00000000 delay_timer.c
00016158 l     O .bss	00000004 timer_ops
00000000 l    df *ABS*	00000000 generic_delay_timer.c
0000e7a8 l     F ro	00000008 get_timer_value
0001615c l     O .bss	0000000c ops
00000000 l    df *ABS*	00000000 regulator_core.c
0000e7b0 l     F ro	00000004 fdt32_to_cpu
000074a0 l     F ro	00000038 regulator_get_by_phandle
000074d8 l     F ro	00000050 get_supply_phandle
0000e7b4 l     F ro	0000000e __regulator_set_state.isra.0
0000e7c2 l     F ro	0000000a unlock_driver.isra.0
0000e7cc l     F ro	0000000a lock_driver.isra.0
0000754c l     F ro	00000078 __regulator_enable
00016168 l     O .bss	00000474 rdev_array
00013698 l     O .data	00000040 flag_prop
00012081 l     O ro	00000019 __func__.0
00000000 l    df *ABS*	00000000 bsec2.c
00007dcc l     F ro	0000001c bsec_lock
00007de8 l     F ro	0000001c bsec_unlock
00007e04 l     F ro	0000001c otp_bank_offset
00007e20 l     F ro	00000038 bsec_check_error
00007e84 l     F ro	00000024 is_otp_invalid_mode
00007edc l     F ro	00000064 bsec_power_safmem
000165dc l     O .bss	00000004 bsec_base
000165e0 l     O .bss	00000004 bsec_spinlock
000165e4 l     O .bss	0000000c otp_nsec_access
00000000 l    df *ABS*	00000000 stm32mp_clkfunc.c
00008528 l     F ro	00000030 fdt_get_rcc_node
000165f0 l     O .bss	00000004 node.0
00000000 l    df *ABS*	00000000 stm32mp_ddr.c
00000000 l    df *ABS*	00000000 stm32mp1_ddr_helpers.c
00000000 l    df *ABS*	00000000 stm32_gpio.c
0000eb8c l     F ro	00000004 fdt32_to_cpu
00008b70 l     F ro	00000114 set_gpio
00000000 l    df *ABS*	00000000 stm32_i2c.c
0000eb90 l     F ro	00000044 i2c_wait_flag
00008ef0 l     F ro	0000002c i2c_transfer_config.isra.0
0000ebd4 l     F ro	0000008e i2c_ack_failed
0000ec62 l     F ro	00000042 i2c_wait_txis
0000eca4 l     F ro	00000042 i2c_wait_stop
00008f1c l     F ro	000001ec i2c_read.constprop.0
00009108 l     F ro	00000224 i2c_write
00010274 l     O ro	00000060 i2c_specs
00000000 l    df *ABS*	00000000 stm32_iwdg.c
000165f4 l     O .bss	00000020 stm32_iwdg
00000000 l    df *ABS*	00000000 stm32mp_pmic.c
00009c5c l     F ro	00000030 dt_get_pmic_node
00009c8c l     F ro	0000001c driver_unlock
00009ca8 l     F ro	0000001c driver_lock
0000ed14 l     F ro	00000044 pmic_set_flag
0000ed58 l     F ro	00000006 pmic_list_voltages
0000ed5e l     F ro	00000006 pmic_get_voltage
0000ed64 l     F ro	00000006 pmic_set_voltage
0000ed6a l     F ro	0000000a pmic_get_state
0000ed74 l     F ro	00000046 driver_suspend
0000edba l     F ro	0000000c pmic_set_state
00016614 l     O .bss	00000024 i2c_handle
00016638 l     O .bss	00000004 lock
0001663c l     O .bss	00000004 pmic_i2c_addr
000136d8 l     O .data	00000004 i2c_node.1
000136dc l     O .data	00000004 node.2
00013704 l     O .data	00000118 pmic_regs
0001381c l     O .data	00000004 status.3
00012681 l     O ro	0000000e __func__.0
00000000 l    df *ABS*	00000000 stpmic1.c
00009f20 l     F ro	00000044 get_regulator_data
0000edda l     F ro	0000002a voltage_to_index
000168d4 l     O .bss	00000001 ldo3_special_mode
0001682c l     O .bss	00000002 pmic_i2c_addr
00016640 l     O .bss	00000004 pmic_i2c_handle
00013820 l     O .data	00000118 regulators_table
00010394 l     O ro	00000080 buck1_voltage_table
00010414 l     O ro	0000004a buck2_voltage_table
0001045e l     O ro	00000070 buck3_voltage_table
000104ce l     O ro	0000007a buck4_voltage_table
0001054a l     O ro	00000032 ldo1_voltage_table
0001057c l     O ro	00000032 ldo2_voltage_table
000105b0 l     O ro	0000003e ldo3_voltage_table
000105ee l     O ro	00000002 ldo4_voltage_table
000105f0 l     O ro	0000003e ldo5_voltage_table
0001062e l     O ro	00000032 ldo6_voltage_table
00010660 l     O ro	00000002 vref_ddr_voltage_table
00010548 l     O ro	00000002 fixed_5v_voltage_table
000105ae l     O ro	00000002 ldo3_special_mode_table
00000000 l    df *ABS*	00000000 regulator_fixed.c
0000ef44 l     F ro	00000004 fixed_set_state
0000ef48 l     F ro	00000004 fixed_get_state
00016644 l     O .bss	00000070 data
00013938 l     O .data	00000024 fixed_ops
000126d2 l     O ro	00000019 __func__.0
00000000 l    df *ABS*	00000000 stm32mp1_reset.c
00000000 l    df *ABS*	00000000 stm32mp_dt.c
0000ef7e l     F ro	00000004 fdt32_to_cpu
0000a404 l     F ro	00000028 fdt_get_node_parent_address_cells
0000a42c l     F ro	000000b4 dt_get_opp_freqvolt_from_subnode
000166b4 l     O .bss	00000004 fdt
000166b8 l     O .bss	00000004 size.1
00012856 l     O ro	00000010 __func__.0
00000000 l    df *ABS*	00000000 stm32mp_shres_helpers.c
000166bc l     O .bss	00000004 shregs_lock
00000000 l    df *ABS*	00000000 stm32mp1_context.c
00000000 l    df *ABS*	00000000 stm32mp1_dbgmcu.c
0000ad48 l     F ro	00000030 stm32mp1_dbgmcu_init
00000000 l    df *ABS*	00000000 stm32mp1_syscfg.c
00000000 l    df *ABS*	00000000 stm32mp1_clk.c
0000f06c l     F ro	00000020 clock_is_always_on
0000f08c l     F ro	0000001e stm32mp1_pll_compute_pllxcfgr2
0000ae88 l     F ro	000000b4 stm32mp1_read_pll_freq
0000af3c l     F ro	0000025c get_clock_rate
0000b198 l     F ro	00000024 stm32mp1_pll_start
0000f0aa l     F ro	00000016 stm32mp1_clk_lock
0000f0c0 l     F ro	00000016 stm32mp1_clk_unlock
0000b1bc l     F ro	0000006c stm32mp1_set_clkdiv
0000f0d6 l     F ro	00000026 __clk_enable
0000f0fc l     F ro	00000028 __clk_disable
0000b228 l     F ro	0000003c stm32mp1_clk_get_gated_id
0000b264 l     F ro	00000080 stm32mp1_clk_get_parent
0000f124 l     F ro	00000054 stm32mp_clk_get_rate
0000b2e4 l     F ro	00000044 stm32mp_clk_is_enabled
0000b328 l     F ro	00000094 __stm32mp1_clk_enable
0000f178 l     F ro	0000000c stm32mp_clk_enable
0000b3bc l     F ro	00000084 __stm32mp1_clk_disable
0000f184 l     F ro	00000006 stm32mp_clk_disable
0000b440 l     F ro	00000200 clk_get_pll1_settings
0000b640 l     F ro	00000094 stm32mp1_pll_compute_pllxcfgr1
0000b6d4 l     F ro	00000058 stm32mp1_pll_config
0000b72c l     F ro	00000080 stm32mp1_set_clksrc
0000b7ac l     F ro	00000088 stm32mp1_pll_output
0000b834 l     F ro	00000080 stm32mp1_pll_stop
0000b8b4 l     F ro	00000144 stm32mp1_pll1_config_from_opp_khz
000166c0 l     O .bss	00000004 current_opp_khz
000166c4 l     O .bss	000000e8 gate_refcounts
000167ac l     O .bss	00000004 mcudivr
000167b0 l     O .bss	00000004 mssckselr
000167b4 l     O .bss	0000004c pll1_settings
00016800 l     O .bss	00000004 pll3cr
00016804 l     O .bss	00000004 pll4cr
00016808 l     O .bss	00000004 refcount_lock
0001680c l     O .bss	00000004 reg_lock
00016810 l     O .bss	00000004 save_current_opp_khz
00016814 l     O .bss	00000018 stm32mp1_osc
0001395c l     O .data	00000038 backup_clock_cfg
00013994 l     O .data	00000058 backup_clock_sc_cfg
00013b6c l     O .data	00000088 backup_mux0_cfg
00013bf4 l     O .data	00000004 backup_mux4_cfg
00013a04 l     O .data	00000108 stm32mp1_clk_sel
00012ae8 l     O ro	00000004 i2c12_parents
00012aec l     O ro	00000004 i2c35_parents
00012b3f l     O ro	00000002 stgen_parents
00012af0 l     O ro	00000004 i2c46_parents
00012b39 l     O ro	00000006 spi6_parents
00012b6f l     O ro	00000006 usart1_parents
00012b29 l     O ro	00000004 rng1_parents
00012b6a l     O ro	00000005 uart6_parents
00012b65 l     O ro	00000005 uart234578_parents
00012b31 l     O ro	00000004 sdmmc12_parents
00012b35 l     O ro	00000004 sdmmc3_parents
00012b25 l     O ro	00000004 qspi_parents
00012ae4 l     O ro	00000004 fmc_parents
00012ae1 l     O ro	00000003 axiss_parents
00012af4 l     O ro	00000004 mcuss_parents
00012b77 l     O ro	00000003 usbphy_parents
00012b75 l     O ro	00000002 usbo_parents
00012af8 l     O ro	00000004 mpu_parents
00012b1f l     O ro	00000003 per_parents
00012b2d l     O ro	00000004 rtc_parents
00013b0c l     O .data	00000014 stm32mp_clk_ops
00012ac7 l     O ro	0000001a __func__.0
00012afc l     O ro	00000023 parent_id_clock_id
00012b22 l     O ro	00000003 pllncfgr2
00012b41 l     O ro	00000008 stm32mp1_axi_div
00010662 l     O ro	000001d0 stm32mp1_clk_gate
00010314 l     O ro	00000080 stm32mp1_clk_pll
00012b49 l     O ro	00000010 stm32mp1_mcu_div
00012b59 l     O ro	00000008 stm32mp1_mpu_apbx_div
00012b61 l     O ro	00000004 stm32mp1_pll
00000000 l    df *ABS*	00000000 cpu_helpers.o
00000004 l       *ABS*	00000000 CPU_MIDR_SIZE
00000004 l       *ABS*	00000000 CPU_RESET_FUNC_SIZE
00000008 l       *ABS*	00000000 CPU_PWR_DWN_OPS_SIZE
00000004 l       *ABS*	00000000 CPU_ERRATA_FUNC_SIZE
00000004 l       *ABS*	00000000 CPU_ERRATA_LOCK_SIZE
00000004 l       *ABS*	00000000 CPU_ERRATA_PRINTED_SIZE
00000000 l       *ABS*	00000000 CPU_MIDR
00000004 l       *ABS*	00000000 CPU_RESET_FUNC
00000008 l       *ABS*	00000000 CPU_PWR_DWN_OPS
00000010 l       *ABS*	00000000 CPU_ERRATA_FUNC
00000014 l       *ABS*	00000000 CPU_ERRATA_LOCK
00000018 l       *ABS*	00000000 CPU_ERRATA_PRINTED
0000001c l       *ABS*	00000000 CPU_OPS_SIZE
0000c270 l       ro	00000000 error_exit
00000000 l    df *ABS*	00000000 cpu_data.o
00000000 l    df *ABS*	00000000 spinlock.o
00000000 l    df *ABS*	00000000 psci_helpers.o
0000c390 l     F ro	0000003c do_stack_maintenance
00000000 l    df *ABS*	00000000 platform_mp_stack.o
00014840 l       stacks	00000000 platform_normal_stacks
00000006 l       *ABS*	00000000 TZ_COUNT
00000000 l    df *ABS*	00000000 debug.o
00012bc2 l       ro	00000000 assert_msg1
00012bd0 l       ro	00000000 assert_msg2
0000c47c l       ro	00000000 _assert_loop
0000c45c l       ro	00000000 dec_print_loop
00012bd7 l       ro	00000000 panic_msg
00012be8 l       ro	00000000 panic_end
0000c510 l       ro	00000000 _panic_handler
00000000 l    df *ABS*	00000000 cache_helpers.o
0000c588 l       ro	00000000 exit_loop_cimvac
0000c574 l       ro	00000000 loop_cimvac
0000c5c4 l       ro	00000000 exit_loop_cmvac
0000c5b0 l       ro	00000000 loop_cmvac
0000c600 l       ro	00000000 exit_loop_imvac
0000c5ec l       ro	00000000 loop_imvac
0000c604 l     F ro	0000009c do_dcsw_op
0000c688 l       ro	00000000 dcsw_loop_table
0000c610 l       ro	00000000 loop1
0000c664 l       ro	00000000 level_done
0000c644 l       ro	00000000 loop2
0000c648 l       ro	00000000 loop3
00000000 l    df *ABS*	00000000 misc_helpers.o
0000c72c l       ro	00000000 do_disable_mmu
00000000 l    df *ABS*	00000000 platform_helpers.o
00000000 l    df *ABS*	00000000 aeabi_uldivmod.o
00000000 l    df *ABS*	00000000 stm32_console.o
0000c914 l       ro	00000000 core_init_fail
0000c8f8 l       ro	00000000 teack_loop
0000c968 l       ro	00000000 register_fail
0000c9b4 l       ro	00000000 putc_error
0000c980 l       ro	00000000 txe_loop
0000c99c l       ro	00000000 tc_loop
0000c9f4 l       ro	00000000 txe_loop_3
00000000 l    df *ABS*	00000000 enable_mmu.o
00000000 l    df *ABS*	00000000 cortex_a7.o
00000004 l       *ABS*	00000000 CPU_MIDR_SIZE
00000004 l       *ABS*	00000000 CPU_RESET_FUNC_SIZE
00000008 l       *ABS*	00000000 CPU_PWR_DWN_OPS_SIZE
00000004 l       *ABS*	00000000 CPU_ERRATA_FUNC_SIZE
00000004 l       *ABS*	00000000 CPU_ERRATA_LOCK_SIZE
00000004 l       *ABS*	00000000 CPU_ERRATA_PRINTED_SIZE
00000000 l       *ABS*	00000000 CPU_MIDR
00000004 l       *ABS*	00000000 CPU_RESET_FUNC
00000008 l       *ABS*	00000000 CPU_PWR_DWN_OPS
00000010 l       *ABS*	00000000 CPU_ERRATA_FUNC
00000014 l       *ABS*	00000000 CPU_ERRATA_LOCK
00000018 l       *ABS*	00000000 CPU_ERRATA_PRINTED
0000001c l       *ABS*	00000000 CPU_OPS_SIZE
0000cab4 l     F ro	00000018 cortex_a7_disable_smp
0000cacc l     F ro	00000014 cortex_a7_enable_smp
0000cae0 l     F ro	00000004 cortex_a7_reset_func
0000cae4 l     F ro	0000002c cortex_a7_core_pwr_dwn
0000cb14 l     F ro	00000030 cortex_a7_cluster_pwr_dwn
0000cb48 l     F ro	00000004 cortex_a7_errata_report
00013b20 l       .data	00000000 cortex_a7_errata_lock
00013b24 l       .data	00000000 cortex_a7_errata_reported
00000000 l    df *ABS*	00000000 stm32mp1_helper.o
0000cb6c l       ro	00000000 undef_inst_lbl
00012c73 l       ro	00000000 abort_str
0000cba4 l       ro	00000000 print_exception_info
0000cb84 l       ro	00000000 other_exception_lbl
00012cab l       ro	00000000 undefined_str
00012cc9 l       ro	00000000 exception_start_str
00012cdc l       ro	00000000 exception_end_str
00012d10 l       ro	00000000 end_error_str
00012c81 l       ro	00000000 prefetch_abort_str
00012cfa l       ro	00000000 ifsr_str
00012d05 l       ro	00000000 ifar_str
00012c98 l       ro	00000000 data_abort_str
00012ce4 l       ro	00000000 dfsr_str
00012cef l       ro	00000000 dfar_str
0000ccac l     F ro	00000010 plat_stm32mp1_get_core_pos
00000000 l    df *ABS*	00000000 fdt.c
0000f230 l     F ro	00000018 fdt32_ld
00000000 l    df *ABS*	00000000 fdt_addresses.c
0000f42c l     F ro	0000002a fdt_cells
00000000 l    df *ABS*	00000000 fdt_ro.c
0000f456 l     F ro	00000018 fdt32_ld
0000f46e l     F ro	0000002e fdt64_ld
0000f49c l     F ro	00000024 fdt_mem_rsv
0000f4c0 l     F ro	00000032 nextprop_
0000f4f2 l     F ro	00000038 fdt_get_property_by_offset_
0000f684 l     F ro	00000078 fdt_get_property_namelen_
00000000 l    df *ABS*	00000000 fdt_rw.c
0000fa3e l     F ro	00000004 cpu_to_fdt32
0000fa42 l     F ro	00000018 fdt32_ld
0000fa5a l     F ro	00000052 fdt_blocks_misordered_
0000faac l     F ro	0000006a fdt_splice_
0000fb16 l     F ro	00000046 fdt_rw_probe_
0000fb5c l     F ro	00000088 fdt_packblocks_
0000fbe4 l     F ro	00000036 fdt_splice_struct_
0000fc1a l     F ro	000000fc fdt_add_property_
00000000 l    df *ABS*	00000000 assert.c
00000000 l    df *ABS*	00000000 printf.c
0000ff4e l     F ro	0000007c unsigned_num_print
00000000 l    df *ABS*	00000000 snprintf.c
0000fffa l     F ro	000000c6 unsigned_num_print
00000000 l    df *ABS*	00000000 gicdv2_helpers.c
00000000 l    df *ABS*	00000000 errata_report.c
00000000 l    df *ABS*	00000000 plat_sp_min_common.c
00000000 l    df *ABS*	00000000 plat_gicv2.c
00000000 l    df *ABS*	00000000 low_power_svc.c
00000000 l    df *ABS*	00000000 rcc_svc.c
00000000 l    df *ABS*	00000000 plat_common.c
00000000 l    df *ABS*	00000000 popcountsi2.c
00000000 l    df *ABS*	00000000 ctzdi2.c
00000000 l    df *ABS*	00000000 udivmoddi4.c
00000000 l    df *ABS*	00000000 xlat_tables_utils.c
00000000 l    df *ABS*	00000000 fdt_wip.c
00000000 l    df *ABS*	00000000 memchr.c
00000000 l    df *ABS*	00000000 memcmp.c
00000000 l    df *ABS*	00000000 memcpy.c
00000000 l    df *ABS*	00000000 memmove.c
00000000 l    df *ABS*	00000000 memset.c
00000000 l    df *ABS*	00000000 putchar.c
00000000 l    df *ABS*	00000000 strchr.c
00000000 l    df *ABS*	00000000 strcmp.c
00000000 l    df *ABS*	00000000 strlcpy.c
00000000 l    df *ABS*	00000000 strlen.c
00000000 l    df *ABS*	00000000 strncmp.c
00000000 l    df *ABS*	00000000 strnlen.c
00000000 l    df *ABS*	00000000 strrchr.c
00000000 l    df *ABS*	00000000 <stdin>
00000000 l    df *ABS*	00000000 cpu_data_array.c
00000000 l    df *ABS*	00000000 
00013bfc l     O *ABS*	00000000 _DYNAMIC
00013c54 l     O *ABS*	00000000 _GLOBAL_OFFSET_TABLE_
00012e60 l     F ro	00000010 __spin_unlock_from_thumb
00012e70 l     F ro	00000010 __flush_dcache_range_from_thumb
00012e80 l     F ro	00000010 __console_register_from_arm
00012e90 l     F ro	00000010 __spin_lock_from_thumb
00012ea0 l     F ro	00000010 __enable_mmu_direct_svc_mon_from_thumb
00012eb0 l     F ro	00000010 __psci_do_pwrdown_cache_maintenance_from_thumb
00012ec0 l     F ro	00000010 __print_errata_status_from_thumb
00012ed0 l     F ro	00000010 __clean_dcache_range_from_thumb
000086bc g     F ro	00000040 stm32mp_stgen_restore_counter
0000ffe4 g     F ro	00000016 putchar
00008754 g     F ro	000001dc ddr_sw_self_refresh_exit
00002a60 g     F ro	000000b8 cm_prepare_el3_exit
00007758 g     F ro	000000f4 regulator_list_voltages
00006020 g     F ro	00000020 console_set_scope
0000ee32 g     F ro	00000026 stpmic1_lp_copy_reg
0000cfe8 g     F ro	0000001c fdt_address_cells
0000e79e g     F ro	0000000a mdelay
00006104 g     F ro	0000001c stm32mp_pwr_regs_lock
00006298 g     F ro	00000010 plat_is_smccc_feature_available
0000f272 g     F ro	00000054 fdt_offset_ptr
0000ed02 g     F ro	00000012 stm32_i2c_mem_read
00016980 g       .bss	00000000 __PMF_TIMESTAMP_START__
00004bcc g     F ro	000000fc sp_min_platform_setup
00007528 g     F ro	00000024 regulator_enable
0000efa0 g     F ro	0000001a stm32mp_mmio_clrbits_32_shregs
000084f4 g     F ro	00000034 bsec_check_nsec_access_rights
0000bbf8 g     F ro	00000024 stm32mp1_clk_lp_load_opp_pll1_settings
0000de2e g     F ro	00000018 psci_migrate_info_up_cpu
000054fc g     F ro	000000b0 stm32mp1_init_scmi_server
000139ec g     O .data	00000018 stm32mp_osc_node_label
00005fc4 g     F ro	00000050 console_register
00003234 g     F ro	000000e4 psci_cpu_suspend
0000d6fc g     F ro	0000000c gicd_set_icenabler
0000c15c g     F ro	00000034 reset_handler
00000318 g     F ro	000000e4 sp_min_warm_entrypoint
000015e0 g     F ro	00000020 scmi_smt_fastcall_smc_entry
0000c6c4 g     F ro	00000064 zeromem
00010850 g     O ro	0000001b version_string
00000498 g     F ro	00000028 smc_get_ctx
00012e40 g       ro	00000000 __pubsub_psci_suspend_pwrdown_finish_end
00008044 g     F ro	0000003c bsec_read_sr_lock
00002ff8 g     F ro	0000009c psci_validate_entry_point
0000e782 g     F ro	00000018 mmap_add_ctx
0000e20e g     F ro	00000044 plat_scmi_clock_set_state
000004d8 g     F ro	00000028 cm_get_context
0000ffca g     F ro	0000001a printf
0000edc6 g     F ro	00000014 pmic_switch_off
00006d9c g     F ro	00000164 mmap_add_dynamic_region_ctx
00007330 g     F ro	00000028 clk_is_enabled
00015628 g     O .bss	00000018 mmu_cfg_params
0000e79c g     F ro	00000002 xlat_tables_print
00002fc4 g     F ro	00000034 psci_release_pwr_domain_locks
0000e314 g     F ro	00000022 plat_core_pos_by_mpidr
00002cec g     F ro	00000034 psci_validate_power_state
00013000 g       ro	00000000 __RW_START__
0000c750 g     F ro	000000d0 fixup_gdt_reloc
0000e5c4 g     F ro	00000010 stm32mp_etzpc_binding2decprot
0000225c g     F ro	00000020 stm32_rtc_is_timestamp_enable
000004c0 g     F ro	00000018 smc_get_next_ctx
000082b4 g     F ro	0000003c bsec_read_sw_lock
00000aa8 g     F ro	00000038 gicv2_cpuif_enable
00003df8 g     F ro	000000a4 psci_cpu_suspend_finish
00009954 g     F ro	00000048 stm32_iwdg_refresh
0000c2e4 g     F ro	00000010 _cpu_data
0000f756 g     F ro	00000040 fdt_getprop_namelen
000062a8 g     F ro	0000001c configure_mmu
0000fe74 g     F ro	00000020 fdt_node_end_offset_
0000547c g     F ro	00000024 plat_scmi_get_channel
0000f654 g     F ro	00000018 fdt_first_property_offset
000067a0 g     F ro	00000028 mmap_add_dynamic_region
0000c418 g     F ro	0000006c asm_assert
0000c6b4 g     F ro	00000010 dcsw_op_level1
000082f0 g     F ro	00000054 bsec_write_otp
000053e0 g     F ro	0000000c stm32mp1_get_retram_enabled
0000c4e4 g     F ro	00000034 do_panic
00000b28 g     F ro	00000050 gicv2_distif_init
0000c540 g     F ro	00000010 report_data_abort
0000fee2 g     F ro	0000002c memmove
0000f8f0 g     F ro	00000020 fdt_parent_offset
0001682e g     O .bss	00000080 rt_svc_descs_indices
00000664 g     F ro	00000078 sp_min_warm_boot
0000d67e g     F ro	0000000c gicd_write_isenabler
00005204 g     F ro	00000018 plat_setup_psci_ops
0000669c g     F ro	000000cc setup_mmu_cfg
000100c0 g     F ro	0000001a snprintf
0000c3cc g     F ro	00000010 psci_power_down_wfi
0000de82  w    F ro	00000004 plat_ic_set_interrupt_priority
00001ab4 g     F ro	00000034 etzpc_lock_decprot
0000d61c g     F ro	00000016 sp_min_fiq
00006f00 g     F ro	00000108 mmap_remove_dynamic_region_ctx
00008c84 g     F ro	0000026c dt_set_pinctrl_config
0000c360 g     F ro	00000030 psci_do_pwrup_cache_maintenance
0000ddf6 g     F ro	0000002a psci_affinity_info
0000f734 g     F ro	00000022 fdt_get_property
0000f84c g     F ro	0000001a fdt_path_offset
0000fd90 g     F ro	00000026 fdt_setprop
000060c8  w    F ro	00000024 plat_log_get_prefix
000033ac g     F ro	00000080 psci_migrate
00009fac g     F ro	00000030 stpmic1_register_read
0000cb4c g     F ro	00000068 plat_report_exception
0000521c g     F ro	00000144 stm32mp1_init_lp_states
0000cbc8 g     F ro	00000028 plat_report_undef_inst
00002500 g     F ro	00000100 stm32_tamp_it_handler
00001a38 g     F ro	00000044 etzpc_configure_decprot
00005378 g     F ro	00000068 stm32mp1_get_lp_soc_mode
00010832 g     O ro	0000001e build_message
0000bfbc g     F ro	00000054 stm32mp1_clock_stopmode_save
0000dbe2 g     F ro	00000020 scmi_smt_init_agent_channel
000039c8 g     F ro	000002b8 psci_setup
000067d8 g     F ro	00000050 init_xlat_tables
0000dfe2 g     F ro	0000004e stm32_auto_stop
00013000 g       .data	00000000 __DATA_START__
0000f1b8 g     F ro	0000005e stm32mp1_rtc_get_read_twice
0000e140 g     F ro	00000006 plat_scmi_clock_rates_array
0000102c g     F ro	00000044 gicv2_set_pmr
000024c8 g     F ro	00000038 stm32_tamp_configure_internal
00006310 g     F ro	00000020 stm32_get_gpio_bank_clock
00016900 g     O .bss	00000004 psci_locks
0000d004 g     F ro	000000ac fdt_get_string
00007e64 g     F ro	00000010 bsec_read_debug_conf
0000c91c g     F ro	00000050 console_stm32_register
0000e18a g     F ro	00000048 plat_scmi_clock_set_rate
0000c83c  w    F ro	00000004 plat_disable_acp
0000f1ac g     F ro	00000006 stm32mp1_clk_force_enable
00005adc g     F ro	000000e0 stm32mp_nsec_can_access_reset
0000f3fc g     F ro	00000030 fdt_move
0000dd4a g     F ro	00000014 psci_find_target_suspend_lvl
000065b4 g     F ro	00000028 xlat_arch_regime_get_xn_desc
0000f3cc g     F ro	00000030 fdt_find_string_
00009d00 g     F ro	00000128 initialize_pmic_i2c
0000d6f0 g     F ro	0000000c gicd_set_isenabler
0000ba04 g     F ro	0000000c stm32mp1_clk_rcc_regs_unlock
0000de46 g     F ro	00000016 psci_arch_setup
0000f9fe g     F ro	00000040 fdt_node_offset_by_compatible
000055ac g     F ro	0000007c stm32mp1_pm_save_scmi_state
00003ee4 g     F ro	00000048 psci_system_reset
0000d746 g     F ro	00000050 gicv2_spis_configure_defaults
00006508 g     F ro	00000044 stm32_get_boot_interface
00008080 g     F ro	0000008c bsec_shadow_register
00001cfc g     F ro	00000144 stm32_rng_init
0000d708 g     F ro	0000000a gicd_set_ipriorityr
0000fecc g     F ro	00000016 memcpy
0000eb4c g     F ro	00000040 ddr_is_nonsecured_area
00008000 g     F ro	00000044 bsec_set_sr_lock
0000ddb0 g     F ro	00000012 psci_validate_mpidr
00003318 g     F ro	00000078 psci_system_suspend
0000dd02 g     F ro	00000018 cm_init_context_by_index
000071f0 g     F ro	000000c8 tzc400_it_handler
0000192c g     F ro	0000010c stm32mp1_calib_init
000060f4 g     F ro	00000008 stm32mp_ddrphyc_base
0000c6c4 g     F ro	00000064 zero_normalmem
00002e08 g     F ro	00000030 psci_get_parent_pwr_domain_nodes
0000c840 g     F ro	00000024 __aeabi_uldivmod
000078ec g     F ro	000002b8 regulator_register
0000fdb6 g     F ro	0000003e fdt_delprop
0000bd48 g     F ro	00000078 save_clock_pm_context
00009e28 g     F ro	000000f8 initialize_pmic
000045a4 g     F ro	00000094 pwr_scv_handler
00004e1c g     F ro	00000014 plat_get_lp_mode_name
0000acd0 g     F ro	00000078 stm32_save_ddr_training_area
0000a260 g     F ro	00000018 stpmic1_bind_i2c
00003e9c g     F ro	00000048 psci_system_off
00008650 g     F ro	00000060 fdt_get_clock_id_by_name
0000c530 g     F ro	00000010 report_prefetch_abort
00006468 g     F ro	00000024 stm32mp_is_closed_device
0000810c g     F ro	00000164 bsec_probe
00007ea8 g     F ro	00000034 bsec_read_otp
0000d68a g     F ro	0000000c gicd_write_icenabler
0000a8e0 g     F ro	00000034 dt_get_cpu_regulator
0000d40c g     F ro	00000210 vsnprintf
00001910 g     F ro	0000001c stm32mp1_calib_start_csi_cal
00006790 g     F ro	00000010 mmap_add
0000ad78 g     F ro	00000030 stm32mp1_dbgmcu_get_chip_version
0000ee58 g     F ro	0000002e stpmic1_register_update
000060fc g     F ro	00000008 stm32mp_pwr_base
0000e532 g     F ro	00000006 plat_get_syscnt_freq2
000062f0 g     F ro	00000020 stm32_get_gpio_bank_offset
0000cd9c g     F ro	00000014 plat_panic_handler
00012d98 g       ro	00000000 __RT_SVC_DESCS_START__
0000ab3c g     F ro	0000001c stm32mp_unlock_shregs
0000f5b4 g     F ro	00000082 fdt_subnode_offset_namelen
00015440 g       stacks	00000000 __STACKS_END__
00012e40 g       ro	00000000 __pubsub_psci_suspend_pwrdown_start_end
0000f8d2 g     F ro	0000001e fdt_node_depth
00016940 g       .bss	00000000 __PERCPU_BAKERY_LOCK_END__
0000648c g     F ro	00000028 stm32_iwdg_get_instance
0000e384 g     F ro	000001ae __udivmoddi4
0000c58c g     F ro	0000003c clean_dcache_range
000022b4 g     F ro	00000044 stm32_tamp_set_secure_bkpregs
0000479c g     F ro	000000c8 sp_min_plat_fiq_handler
0000c194 g     F ro	00000054 prepare_cpu_pwr_dwn
0000635c g     F ro	00000018 get_uart_address
0000de5c  w    F ro	00000006 sp_min_plat_runtime_setup
0000a614 g     F ro	000000a0 dt_fill_device_info
0000f52a g     F ro	00000026 fdt_num_mem_rsv
0000f262 g     F ro	00000010 fdt_header_size
00003094 g     F ro	000000a0 psci_warmboot_entrypoint
0000e8a4 g     F ro	0000001a stm32mp_ddr_enable_axi_port
00007708 g     F ro	00000050 regulator_get_voltage
00001a7c g     F ro	00000038 etzpc_get_decprot
0000cc50 g     F ro	00000048 plat_report_data_abort
0000c3f8  w    F ro	0000001c plat_set_my_stack
00000524 g     F ro	00000024 cm_set_context_by_index
00012dc8 g       ro	00000000 __RT_SVC_DESCS_END__
000083c4 g     F ro	0000003c bsec_read_permanent_lock
0000f2c6 g     F ro	00000024 fdt_check_node_offset_
00005628 g     F ro	00000070 stm32mp1_pm_restore_scmi_state
0000e7d6 g     F ro	00000016 regulator_get_by_supply_name
0000c4b0 g     F ro	00000034 asm_print_hex
000054c4 g     F ro	0000001c plat_scmi_clock_count
0000e958 g     F ro	00000026 stm32mp_ddr_set_qd3_update_conditions
0000e86a g     F ro	0000003a stm32mp_ddr_wait_sw_done_ack
00003c80 g     F ro	0000002c psci_prepare_next_non_secure_ctx
00015860 g     O .bss	00000018 psci_cpu_pd_nodes
00001560 g       *ABS*	00000000 __BSS_SIZE__
00007ff0 g     F ro	00000010 bsec_get_id
0000c494 g     F ro	0000001c asm_print_str
00004070 g     F ro	0000016c stm32mp_gic_enable_spi
0000a5a0 g     F ro	00000074 fdt_get_interrupt
0000cd84 g     F ro	00000008 plat_crash_console_flush
000024bc g     F ro	0000000c stm32_tamp_configure_secure_access
00007d94 g     F ro	00000038 regulator_core_cleanup
000060ec g     F ro	00000008 stm32mp_ddrctrl_base
00010176 g     F ro	00000014 strnlen
00003134 g     F ro	00000030 psci_spd_migrate_info
0000ef82 g     F ro	0000001e stm32mp_mmio_clrsetbits_32_shregs
0000f796 g     F ro	00000022 fdt_getprop
0000c2f4 g     F ro	00000014 _cpu_data_by_index
0000a914 g     F ro	0000005c dt_get_usb_phy_regulator
00007650 g     F ro	00000050 regulator_is_enabled
00000198 g     F ro	000000cc sp_min_handle_smc
0000c0c0 g     F ro	0000009c stm32mp1_clk_probe
00003164 g     F ro	000000d0 psci_print_power_domain_map
00012ee0 g       ro	00000000 __RO_END_UNALIGNED__
00003fac g     F ro	00000028 plat_get_target_pwr_state
00008558 g     F ro	0000009c fdt_osc_read_freq
00006040 g     F ro	0000005c console_putc
0000c010 g     F ro	000000b0 stm32mp1_clock_stopmode_resume
0000e2fe g     F ro	00000006 stm32mp_register_non_secure_periph_iomem
00007c3c g     F ro	00000044 regulator_core_resume
0000d6a2 g     F ro	0000000c gicd_write_icfgr
0001018a g     F ro	0000001a strrchr
0000ef6a g     F ro	00000014 stm32mp_system_reset
00002d44 g     F ro	0000004c psci_is_last_on_cpu
00004ff8 g     F ro	000000a0 stm32_exit_cstop
0000ccc4 g     F ro	000000a0 plat_crash_console_init
0000c550 g     F ro	0000003c flush_dcache_range
000054b8 g     F ro	0000000c plat_scmi_protocol_list
0000980c g     F ro	00000148 stm32_i2c_is_device_ready
000063fc g     F ro	00000040 stm32mp_supports_cpu_opp
00007408 g     F ro	0000002c timer_init
0000f952 g     F ro	00000046 fdt_stringlist_contains
0000ee9a g     F ro	00000014 stpmic1_regulator_enable
0000e568 g     F ro	0000001a stm32mp_mask_timer
00007fe0 g     F ro	00000010 bsec_get_version
000009e8 g     F ro	000000c0 gicv2_secure_ppi_sgi_setup_props
00012dc8 g       ro	00000000 __PMF_SVC_DESCS_END__
00012e40 g       ro	00000000 sp_min_vector_table
0000e608 g     F ro	00000006 xlat_get_min_virt_addr_space_size
00014820 g       .rel.dyn	00000000 __RELA_END__
00013c60 g       .rel.dyn	00000000 __RELA_START__
0000ba10 g     F ro	00000074 stm32mp1_set_opp_khz
0000121c g     F ro	00000020 scmi_msg_get_base_handler
00001fdc g     F ro	000001bc stm32_rtc_diff_calendar
0000e252 g     F ro	0000000c plat_scmi_rstd_get_name
0000e904 g     F ro	0000004a stm32mp_ddr_disable_host_interface
00009fdc g     F ro	0000009c stpmic1_regulator_voltage_get
00000cb0 g     F ro	0000008c gicv2_set_pe_target_mask
0000d268 g     F ro	000001a4 vprintf
0000d73e g     F ro	00000008 gicv2_get_cpuif_id
0000e33a g     F ro	0000002a __popcountsi2
000006dc g     F ro	0000008c fdt_read_uint32_array
0000e1d2 g     F ro	00000020 plat_scmi_clock_get_rate
0000fe2c g     F ro	00000048 fdt_pack
0000e60e g     F ro	0000001c is_dcache_enabled
0000e97e g     F ro	0000001e stm32mp_ddr_unset_qd3_update_conditions
00003918 g     F ro	000000b0 psci_cpu_on_finish
0000c6a0 g     F ro	00000014 dcsw_op_all
00007e58 g     F ro	0000000c bsec_get_base
0000fd16 g     F ro	0000007a fdt_setprop_placeholder
0000aa28 g     F ro	000000f8 fdt_get_gpio_bank_pin_count
00003390 g     F ro	0000001c psci_cpu_off
0000cca8 g     F ro	00000004 plat_reset_handler
0000e7ec g     F ro	0000002a fdt_rcc_read_uint32_default
0000f636 g     F ro	0000001e fdt_subnode_offset
00001b10 g     F ro	000000e4 etzpc_init
0000e848 g     F ro	00000022 fdt_rcc_enable_it
0000c228 g     F ro	0000004c get_cpu_ops_ptr
00002870 g     F ro	00000028 stm32_timer_csi_freq
0000efd2 g     F ro	00000038 stm32mp1_pm_save_clock_cfg
00000500 g     F ro	00000024 cm_get_context_by_index
00004fec g     F ro	0000000c stm32_is_cstop_done
0000dd1a g     F ro	00000018 cm_init_my_context
0000ab20 g     F ro	0000001c stm32mp_lock_shregs
0000de86 g     F ro	00000004 plat_ic_set_priority_mask
0000fe94 g     F ro	0000001c memchr
0000de76  w    F ro	00000004 plat_ic_acknowledge_interrupt
00009f64 g     F ro	00000048 stpmic1_regulator_levels_mv
0000cdb0 g     F ro	00000044 wfi_svc_int_enable
000048b0 g     F ro	0000031c sp_min_early_platform_setup2
0000660c g     F ro	0000003c xlat_arch_current_el
000014f4 g     F ro	00000020 scmi_msg_get_rstd_handler
00001070 g     F ro	00000014 gicv2_interrupt_set_cfg
0000f866 g     F ro	0000006c fdt_supernode_atdepth_offset
0000d646 g     F ro	00000018 fdt_read_uint32_default
00000040 g       *ABS*	00000000 __PERCPU_BAKERY_LOCK_SIZE__
00001344 g     F ro	00000020 scmi_msg_get_clock_handler
000059ac g     F ro	00000070 stm32mp1_register_etzpc_decprot
0000d668 g     F ro	0000000c gicd_read_icfgr
0000e5f0 g     F ro	00000010 xlat_arch_get_pas
0000f3a2 g     F ro	0000002a fdt_next_subnode
0000ef4c g     F ro	0000001e stm32mp_reset_assert_deassert_to_mcu
000036d0 g     F ro	000000d4 psci_do_cpu_off
00006164 g     F ro	00000034 stm32_get_otp_value_from_idx
000158a4 g     O .bss	00000004 psci_caps
000054a0 g     F ro	0000000c plat_scmi_vendor_name
0000bdc0 g     F ro	00000074 restore_clock_pm_context
000022f8 g     F ro	000001c4 stm32_tamp_set_config
0000a970 g     F ro	000000b8 dt_find_otp_name
000029dc g     F ro	00000084 cm_setup_context
00002198 g     F ro	0000007c stm32_rtc_get_timestamp
00008344 g     F ro	00000044 bsec_set_sp_lock
00016980 g       .bss	00000000 __PMF_PERCPU_TIMESTAMP_END__
00010108 g     F ro	00000036 strlcpy
0001014e g     F ro	00000028 strncmp
0000e336  w    F ro	00000004 bl32_plat_enable_mmu
00001394 g     F ro	0000002c scmi_write_response
0001b000 g       xlat_table	00000000 __BL32_END__
0000ac1c g     F ro	000000b4 stm32_restore_context
00013bfa g       .data	00000000 __DATA_END__
0000c4b4 g       ro	00000000 asm_print_hex_bits
00007870 g     F ro	0000007c regulator_set_flag
00002898 g     F ro	00000040 stm32_timer_freq_func
0000c520 g     F ro	00000010 report_undef_inst
00001854 g     F ro	0000000c stm32mp1_calib_set_wakeup
0000a814 g     F ro	000000cc dt_get_all_opp_freqvolt
0000dfac g     F ro	00000002 sp_min_plat_arch_setup
00012dc8 g       ro	00000000 __CPU_OPS_START__
0000e124 g     F ro	0000001c plat_scmi_clock_get_name
0000a188 g     F ro	00000034 stpmic1_regulator_bypass_mode_set
0000738c g     F ro	0000007c udelay
0000a6dc g     F ro	00000028 dt_get_stdout_uart_info
0000f2ea g     F ro	00000024 fdt_check_prop_offset_
0000e816 g     F ro	00000032 fdt_rcc_read_prop
0000c5c8 g     F ro	0000003c inv_dcache_range
00013bf9 g     O .data	00000001 console_state
0000c974 g     F ro	00000048 console_stm32_core_putc
00000000 g     F ro	00000168 sp_min_entrypoint
000034ec g     F ro	00000144 psci_smc_handler
0000c9dc g     F ro	00000030 console_stm32_core_flush
00007458 g     F ro	00000048 generic_delay_timer_init
00003cac g     F ro	0000014c psci_cpu_suspend_start
00005980 g     F ro	0000002c stm32mp_register_secure_gpio
00007e74 g     F ro	00000010 bsec_get_status
00002d90 g     F ro	00000020 psci_init_req_local_pwr_states
00007434 g     F ro	00000024 generic_delay_timer_init_args
00016980 g       .bss	00000000 __BAKERY_LOCK_END__
0000feb0 g     F ro	0000001c memcmp
0000e538 g     F ro	00000006 stm32mp_rcc_base
0000a1bc g     F ro	00000040 stpmic1_active_discharge_mode_set
000037a4 g     F ro	00000174 psci_cpu_on_start
0000999c g     F ro	0000008c stm32_iwdg_it_handler
0000dd32 g     F ro	00000018 psci_find_max_off_lvl
0000e582 g     F ro	00000042 stm32mp_wait_cpu_reset
000069ec g     F ro	000000d4 xlat_desc
0000f7b8 g     F ro	00000094 fdt_path_offset_namelen
0000f66c g     F ro	00000018 fdt_next_property_offset
0000ada8 g     F ro	00000030 stm32mp1_dbgmcu_get_chip_dev_id
0000d712 g     F ro	0000002c gicd_set_icfgr
00015878 g     O .bss	00000020 psci_non_cpu_pd_nodes
0000a6b4 g     F ro	00000028 dt_get_node
000018f4 g     F ro	0000001c stm32mp1_calib_start_hsi_cal
0000def2 g     F ro	00000016 stm32mp_gic_pcpu_init
000169a0 g       .bss	00000000 __BSS_END__
00012de4 g       ro	00000000 __CPU_OPS_END__
0000f1b2 g     F ro	00000006 stm32mp1_clk_force_disable
0000e1f2 g     F ro	0000001c plat_scmi_clock_get_state
0000de7e  w    F ro	00000004 plat_ic_disable_interrupt
0000ddc2 g     F ro	00000004 psci_do_pwrdown_sequence
0000f6fc g     F ro	00000038 fdt_get_property_namelen
00002214 g     F ro	00000048 stm32_rtc_set_tamper_timestamp
0000ef0a g     F ro	00000024 stpmic1_regulator_icc_set
0000c348 g     F ro	00000018 psci_do_pwrdown_cache_maintenance
00006330 g     F ro	0000002c stm32_get_gpio_bank_pinctrl_node
0000f910 g     F ro	00000042 fdt_node_offset_by_phandle
0000e364 g     F ro	00000020 __ctzdi2
0000861c g     F ro	00000034 fdt_get_clock_id
0000ddc6 g     F ro	00000030 psci_cpu_on
0000e030 g     F ro	0000003c stm32_enter_low_power
0000a4e0 g     F ro	00000018 dt_open_and_check
0000d6ae g     F ro	00000020 gicd_set_igroupr
0000c744 g     F ro	00000008 disable_mmu_icache_secure
0000dd5e g     F ro	00000052 psci_validate_suspend_req
00015898 g     O .bss	00000004 psci_plat_core_count
00001f74 g     F ro	0000001c stm32_rtc_regs_unlock
00003488 g     F ro	00000064 psci_features
00012e40 g       ro	00000000 __GOT_END__
0000ff0e g     F ro	00000040 memset
00002600 g     F ro	000000f8 stm32_tamp_init
00012dc8 g       ro	00000000 __PARSER_LIB_DESCS_END__
00016900 g       .bss	00000000 __BAKERY_LOCK_START__
00002db0 g     F ro	00000058 psci_get_target_local_pwr_states
00000c04 g     F ro	00000044 gicv2_get_pending_interrupt_id
00007c80 g     F ro	00000040 regulator_core_backup_context
00003fd4 g     F ro	0000009c stm32mp_gic_init
00001f58 g     F ro	0000001c stm32_rtc_regs_lock
0000ae44 g     F ro	00000044 stm32mp1_syscfg_disable_io_compensation
00007cc0 g     F ro	00000044 regulator_core_restore_context
0000a278 g     F ro	000000cc fixed_regulator_register
0000c9bc g     F ro	0000001c console_stm32_putc
0001589c g     O .bss	00000004 psci_plat_pm_ops
0000e55c g     F ro	0000000c plat_get_soc_revision
0000e9be g     F ro	00000010 ddr_get_io_calibration_val
0000e146 g     F ro	00000044 plat_scmi_clock_rates_by_step
0000e600 g     F ro	00000008 xlat_arch_get_max_supported_pa
00001364 g     F ro	00000030 scmi_status_response
000136e0 g     O .data	00000024 pmic_ops
00006828 g     F ro	00000038 enable_mmu_svc_mon
00012e40 g       ro	00000000 __pubsub_psci_suspend_pwrdown_start_start
00008930 g     F ro	000001f4 ddr_set_sr_mode
0000e94e g     F ro	0000000a stm32mp_ddr_sw_selfref_exit
0000de7a  w    F ro	00000004 plat_ic_end_of_interrupt
00012de4 g       ro	00000000 __GOT_START__
0000d0b0 g     F ro	00000040 fdt_get_phandle
0000adf0 g     F ro	00000054 stm32mp1_syscfg_enable_io_compensation_finish
00004e30 g     F ro	00000038 stm32_apply_pmic_suspend_config
00000548 g     F ro	00000024 get_arm_std_svc_args
00000000 g       *ABS*	00000000 __PERCPU_TIMESTAMP_SIZE__
000100f0 g     F ro	00000018 strcmp
00009a28 g     F ro	00000234 stm32_iwdg_init
00002b18 g     F ro	0000013c bakery_lock_get
0000784c g     F ro	00000024 regulator_get_range
00007f40 g     F ro	000000a0 bsec_permanent_lock_otp
0000a0d4 g     F ro	00000080 stpmic1_regulator_voltage_set
00003630 g     F ro	00000060 psci_mem_protect
0000d144 g     F ro	0000010c fdt_open_into
0000e5d4 g     F ro	0000001c stm32_boot_is_serial
0000ee86 g     F ro	0000000a stpmic1_powerctrl_on
00012dc8 g       ro	00000000 __FCONF_POPULATOR_END__
00001f90 g     F ro	0000004c stm32_rtc_get_calendar
0000e25e g     F ro	00000050 plat_scmi_rstd_autonomous
0000fdf4 g     F ro	00000038 fdt_del_node
00002c54 g     F ro	00000068 bakery_lock_release
00004864 g     F ro	0000004c sp_min_plat_get_bl33_ep_info
0000c864 g     F ro	000000b8 console_stm32_core_init
00007308 g     F ro	00000028 clk_get_rate
0000c728 g     F ro	0000001c disable_mmu_secure
00005df0 g     F ro	0000000c plat_get_power_domain_tree_desc
0000654c g     F ro	00000068 stm32mp_dump_core_registers
00000de4 g     F ro	00000054 gicv2_set_interrupt_priority
0000932c g     F ro	0000006c stm32_i2c_get_setup_from_fdt
00000948 g     F ro	000000a0 gicv2_secure_spis_configure_props
0000d696 g     F ro	0000000c gicd_write_ipriorityr
00005bbc g     F ro	00000234 stm32mp_lock_periph_registering
0000a078 g     F ro	0000005c stpmic1_register_write
0000ee04 g     F ro	0000002e stpmic1_is_regulator_enabled
0000ca10 g     F ro	0000001c console_stm32_flush
00007d04 g     F ro	00000090 regulator_core_config
0000342c g     F ro	0000005c psci_node_hw_state
0000dabc  w    F ro	00000004 plat_scmi_clock_get_round_rate
0000ce60 g     F ro	000000c4 fdt_check_header
00000f70 g     F ro	000000bc gicv2_set_spi_routing
0000c1ec g     F ro	00000038 init_cpu_ops
0000f042 g     F ro	0000002a stm32_are_pll1_settings_valid_in_context
0000609c g     F ro	0000002c console_flush
0000e62a g     F ro	00000010 xlat_arch_tlbi_va_sync
00013000 g       ro	00000000 __RO_END__
0000a154 g     F ro	00000034 stpmic1_regulator_sink_mode_set
0000f550 g     F ro	00000064 fdt_get_name
00007ba4 g     F ro	00000098 regulator_core_suspend
0000ba84 g     F ro	00000148 stm32mp1_clk_compute_all_pll1_settings
0000d65e g     F ro	0000000a gicd_read_igroupr
00000264 g     F ro	000000b4 sp_min_handle_fiq
00006014 g     F ro	0000000c console_switch_state
00000768 g     F ro	00000078 fdt_get_stdout_node_offset
0000c284 g     F ro	0000005c print_errata_status
0000e06c g     F ro	0000003a stm32_init_low_power
0000c330 g     F ro	00000018 spin_unlock
0000f37c g     F ro	00000026 fdt_first_subnode
0000de62  w    F ro	00000014 plat_ic_get_pending_interrupt_id
0000e2ae g     F ro	00000044 plat_scmi_rstd_set_state
00015440 g       .bss	00000000 __BSS_START__
0000bed4 g     F ro	000000e8 stm32mp1_clock_resume
00002848 g     F ro	00000028 stm32_timer_hsi_freq
00001860 g     F ro	00000094 stm32mp1_calib_it_handler
00000000 g       ro	00000000 __RO_START__
0000eee6 g     F ro	00000024 stpmic1_regulator_mask_reset_set
0000a768 g     F ro	000000ac dt_get_max_opp_freqvolt
00006c94 g     F ro	00000108 mmap_add_region_ctx
0000639c g     F ro	00000028 stm32mp_get_chip_dev_id
00012dc8 g       ro	00000000 __PMF_SVC_DESCS_START__
0000cd90 g     F ro	00000008 plat_crash_console_putc
00008400 g     F ro	000000f4 bsec_program_otp
00015440 g     O .bss	00000080 percpu_data
00000d94 g     F ro	00000050 gicv2_disable_interrupt
0000df20 g     F ro	00000062 rcc_scv_handler
0000e120 g     F ro	00000004 plat_scmi_protocol_count
0000f30e g     F ro	0000006e fdt_next_node
0000df08 g     F ro	00000018 pm_domain_scv_handler
0000db1a  w    F ro	00000004 scmi_msg_get_pd_handler
0000ee90 g     F ro	0000000a stpmic1_switch_off
0000a3a4 g     F ro	00000060 stm32mp_reset_deassert
0000ab78 g     F ro	000000a4 stm32_save_context
0000bbcc g     F ro	0000002c stm32mp1_clk_lp_save_opp_pll1_settings
0000a4f8 g     F ro	00000018 fdt_get_address
0000c30c g     F ro	00000024 spin_lock
00005f98 g     F ro	0000002c console_is_registered
00004cf8 g     F ro	00000064 stm32_pwr_down_wfi
00007358 g     F ro	00000034 clk_register
0000f198 g     F ro	00000014 stm32mp1_rcc_is_mckprot
00006120 g     F ro	0000001c stm32mp_pwr_regs_unlock
0000e99c g     F ro	00000022 ddr_enable_clock
00002d20 g     F ro	00000024 psci_query_sys_suspend_pwrstate
0000a704 g     F ro	00000064 dt_get_ddr_size
00006648 g     F ro	00000054 is_mmu_enabled_ctx
000072e0 g     F ro	00000028 clk_disable
0000e2f8 g     F ro	00000006 stm32mp_register_secure_periph_iomem
0000da4e  w    F ro	00000006 plat_scmi_clock_get_duty_cycle
0000718c g     F ro	00000064 tzc400_init
00001848 g     F ro	0000000c stm32mp1_calib_get_wakeup
00005f30 g     F ro	00000068 tf_log
00000ec8 g     F ro	000000a8 gicv2_raise_sgi
00012e40 g       ro	00000000 __pubsub_psci_cpu_on_finish_start
0000ef2e g     F ro	00000016 stpmic1_lp_reg_on_off
0000e2f2 g     F ro	00000006 stm32mp_register_secure_periph
00012dc8 g       ro	00000000 __FCONF_POPULATOR_START__
0000e9ce g     F ro	0000017e ddr_standby_sr_entry
0000643c g     F ro	0000002c stm32mp_is_single_core
0001b000 g       xlat_table	00000000 __RW_END__
000062c4 g     F ro	0000002c stm32_get_gpio_bank_base
0000a510 g     F ro	00000090 fdt_get_status
0000dfd0 g     F ro	00000012 stm32_pwr_cstop_critic_exit
0000a344 g     F ro	00000060 stm32mp_reset_assert
0000e304 g     F ro	00000010 stm32mp_register_non_secure_gpio
0000b9f8 g     F ro	0000000c stm32mp1_clk_rcc_regs_lock
0000f00a g     F ro	00000038 stm32mp1_pm_restore_clock_cfg
0000efba g     F ro	00000018 stm32mp_mmio_setbits_32_shregs
0000cbf8 g     F ro	00000048 plat_report_prefetch_abort
0000d636 g     F ro	00000010 fdt_read_uint32
00014840 g       stacks	00000000 __STACKS_START__
000007e0 g     F ro	00000070 handle_runtime_svc
00002ea8 g     F ro	000000e0 psci_do_state_coordination
00003f2c g     F ro	00000080 psci_system_reset2
000041dc g     F ro	000003c8 bsec_main
000075c4 g     F ro	0000008c regulator_disable
0000cf24 g     F ro	000000c4 fdt_next_tag
00016980 g       .bss	00000000 __PMF_TIMESTAMP_END__
000085f4 g     F ro	00000028 fdt_get_rcc_secure_state
000086fc g     F ro	00000058 stm32mp_ddr_sw_selfref_entry
00007008 g     F ro	00000184 init_xlat_tables_ctx
00009398 g     F ro	00000474 stm32_i2c_init
0000f216 g     F ro	0000001a stm32mp1_clk_mcuss_protect
00012e40 g       ro	00000000 __pubsub_psci_suspend_pwrdown_finish_start
000028d8 g     F ro	00000104 stm32_timer_init
0000ece6 g     F ro	0000001c stm32_i2c_mem_write
0000df82 g     F ro	00000026 rcc_cal_scv_handler
0000ccbc g     F ro	00000008 plat_my_core_pos
0000d0f0 g     F ro	0000002c fdt_get_alias_namelen
00000b78 g     F ro	0000008c gicv2_driver_init
00001ae8 g     F ro	00000028 etzpc_configure_tzma
000086b0 g     F ro	0000000c stm32mp_stgen_get_counter
0000e53e g     F ro	00000010 stm32mp_lock_available
00000850 g     F ro	000000f8 runtime_svc_init
00006374 g     F ro	00000028 stm32mp_get_chip_version
00008b24 g     F ro	0000004c set_gpio_secure_cfg
00000d3c g     F ro	00000058 gicv2_enable_interrupt
000013c0 g     F ro	00000058 scmi_process_message
0001013e g     F ro	00000010 strlen
00000ae0 g     F ro	00000048 gicv2_pcpu_distif_init
0000056c g     F ro	000000f8 sp_min_main
0000de20 g     F ro	0000000e psci_migrate_info_type
00001c48 g     F ro	000000b4 stm32_rng_read
0000e54e g     F ro	0000000e plat_get_soc_version
0000613c g     F ro	00000028 stm32_get_otp_index
000065dc g     F ro	00000030 xlat_arch_tlbi_va
000064b4 g     F ro	00000054 stm32_iwdg_get_otp_config
0000add8 g     F ro	00000018 stm32mp1_syscfg_enable_io_compensation_start
00000c48 g     F ro	00000030 gicv2_acknowledge_interrupt
00009cc4 g     F ro	0000003c dt_pmic_status
00000c78 g     F ro	00000038 gicv2_end_of_interrupt
000054ac g     F ro	0000000c plat_scmi_sub_vendor_name
0000d250 g     F ro	00000018 __assert
00003690 g     F ro	00000040 psci_mem_chk_range
00008270 g     F ro	00000044 bsec_set_sw_lock
0000d6ce g     F ro	00000022 gicd_clr_igroupr
000100da g     F ro	00000016 strchr
0000e79a g     F ro	00000002 xlat_mmap_print
0000e8be g     F ro	00000046 stm32mp_ddr_disable_axi_port
0000a1fc g     F ro	00000064 stpmic1_lp_set_voltage
0000eeae g     F ro	00000014 stpmic1_regulator_disable
0000eec2 g     F ro	00000024 stpmic1_regulator_pull_down_set
0000ca34 g     F ro	00000074 enable_mmu_direct_svc_mon
000061e8 g     F ro	00000078 stm32mp_uart_console_setup
0000cdf4 g     F ro	0000006c fdt_ro_probe_
0000f998 g     F ro	00000066 fdt_stringlist_search
000072b8 g     F ro	00000028 clk_enable
00002f88 g     F ro	0000003c psci_acquire_pwr_domain_locks
000076a0 g     F ro	00000068 regulator_set_voltage
0000d11c g     F ro	00000028 fdt_node_check_compatible
0000be34 g     F ro	000000a0 stm32mp1_clock_suspend
00012e40 g       ro	00000000 __pubsub_psci_cpu_on_finish_end
0000ab58 g     F ro	00000020 stm32_clean_context
000067c8 g     F ro	00000010 mmap_remove_dynamic_region
00006260 g     F ro	00000038 stm32mp_set_console_after_standby
0000f18a g     F ro	0000000e stm32mp1_rcc_is_secure
00006198 g     F ro	00000050 stm32_get_otp_value
0000bc1c g     F ro	0000012c stm32mp1_register_clock_parents_secure
00016104 g     O .bss	00000004 console_list
00002e38 g     F ro	00000070 psci_set_pwr_domains_to_run
00000e38 g     F ro	00000090 gicv2_set_interrupt_type
00005360 g     F ro	00000018 stm32mp1_set_pm_domain_state
0000d674 g     F ro	0000000a gicd_write_igroupr
0000f248 g     F ro	0000001a fdt_header_size_
0000227c g     F ro	00000038 stm32_rtc_init
00008388 g     F ro	0000003c bsec_read_sp_lock
00005a1c g     F ro	000000c0 stm32mp_nsec_can_access_clock
00016900 g       .bss	00000000 __PERCPU_BAKERY_LOCK_START__
0000c3dc  w    F ro	00000018 plat_get_my_stack
00006768 g     F ro	00000028 mmap_add_region
0000dcd8 g     F ro	0000002a errata_needs_reporting
000054e0 g     F ro	0000001c plat_scmi_rstd_count
00012dc8 g       ro	00000000 __PARSER_LIB_DESCS_START__
000158a0 g     O .bss	00000004 psci_spd_pm



Disassembly of section ro:

00000000 <sp_min_entrypoint>:
       0:	e1a09000 	mov	r9, r0
       4:	e1a0a001 	mov	sl, r1
       8:	e1a0b002 	mov	fp, r2
       c:	e1a0c003 	mov	ip, r3
      10:	ee110f11 	mrc	15, 0, r0, cr1, cr1, {0}
      14:	e3100001 	tst	r0, #1
      18:	0a000002 	beq	28 <CPU_OPS_SIZE+0xc>
      1c:	e59f0144 	ldr	r0, [pc, #324]	; 168 <__PERCPU_BAKERY_LOCK_SIZE__+0x128>
      20:	e3a010f7 	mov	r1, #247	; 0xf7
      24:	ea0030fb 	b	c418 <asm_assert>
      28:	f1020016 	cps	#22
      2c:	f57ff06f 	isb	sy

00000030 <pie_fixup>:
      30:	e59f0134 	ldr	r0, [pc, #308]	; 16c <__PERCPU_BAKERY_LOCK_SIZE__+0x12c>
      34:	e59f1134 	ldr	r1, [pc, #308]	; 170 <__PERCPU_BAKERY_LOCK_SIZE__+0x130>
      38:	e0000001 	and	r0, r0, r1
      3c:	e30c1000 	movw	r1, #49152	; 0xc000
      40:	e3401001 	movt	r1, #1
      44:	e0811000 	add	r1, r1, r0
      48:	eb0031c0 	bl	c750 <fixup_gdt_reloc>
      4c:	e59f0120 	ldr	r0, [pc, #288]	; 174 <__PERCPU_BAKERY_LOCK_SIZE__+0x134>
      50:	ee0c0f10 	mcr	15, 0, r0, cr12, cr0, {0}
      54:	ee0c0f30 	mcr	15, 0, r0, cr12, cr0, {1}
      58:	f57ff06f 	isb	sy
      5c:	eb00303e 	bl	c15c <reset_handler>
      60:	e59f1110 	ldr	r1, [pc, #272]	; 178 <__PERCPU_BAKERY_LOCK_SIZE__+0x138>
      64:	ee110f10 	mrc	15, 0, r0, cr1, cr0, {0}
      68:	e1800001 	orr	r0, r0, r1
      6c:	ee010f10 	mcr	15, 0, r0, cr1, cr0, {0}
      70:	f57ff06f 	isb	sy
      74:	e3a00c02 	mov	r0, #512	; 0x200
      78:	ee010f11 	mcr	15, 0, r0, cr1, cr1, {0}
      7c:	f1080100 	cpsie	a
      80:	f57ff06f 	isb	sy
      84:	ee110f51 	mrc	15, 0, r0, cr1, cr1, {2}
      88:	e2000807 	and	r0, r0, #458752	; 0x70000
      8c:	e3800b03 	orr	r0, r0, #3072	; 0xc00
      90:	ee101f51 	mrc	15, 0, r1, cr0, cr1, {2}
      94:	e7e31651 	ubfx	r1, r1, #12, #4
      98:	e3510001 	cmp	r1, #1
      9c:	1a000000 	bne	a4 <__PERCPU_BAKERY_LOCK_SIZE__+0x64>
      a0:	e3800601 	orr	r0, r0, #1048576	; 0x100000
      a4:	ee010f51 	mcr	15, 0, r0, cr1, cr1, {2}
      a8:	f57ff06f 	isb	sy
      ac:	e3a0060f 	mov	r0, #15728640	; 0xf00000
      b0:	ee010f50 	mcr	15, 0, r0, cr1, cr0, {2}
      b4:	f57ff06f 	isb	sy
      b8:	e59f00bc 	ldr	r0, [pc, #188]	; 17c <__PERCPU_BAKERY_LOCK_SIZE__+0x13c>
      bc:	eee80a10 	vmsr	fpexc, r0
      c0:	f57ff06f 	isb	sy
      c4:	e3a00020 	mov	r0, #32
      c8:	ee090f1c 	mcr	15, 0, r0, cr9, cr12, {0}
      cc:	ee100f11 	mrc	15, 0, r0, cr0, cr1, {0}
      d0:	e200040f 	and	r0, r0, #251658240	; 0xf000000
      d4:	e3500401 	cmp	r0, #16777216	; 0x1000000
      d8:	1a000002 	bne	e8 <__PERCPU_BAKERY_LOCK_SIZE__+0xa8>
      dc:	e10f0000 	mrs	r0, CPSR
      e0:	e3800602 	orr	r0, r0, #2097152	; 0x200000
      e4:	e12ff000 	msr	CPSR_fsxc, r0
      e8:	e59f0090 	ldr	r0, [pc, #144]	; 180 <__PERCPU_BAKERY_LOCK_SIZE__+0x140>
      ec:	e59f1090 	ldr	r1, [pc, #144]	; 184 <__PERCPU_BAKERY_LOCK_SIZE__+0x144>
      f0:	e0411000 	sub	r1, r1, r0
      f4:	eb003133 	bl	c5c8 <inv_dcache_range>
      f8:	e1a0700c 	mov	r7, ip
      fc:	e59f0084 	ldr	r0, [pc, #132]	; 188 <__PERCPU_BAKERY_LOCK_SIZE__+0x148>
     100:	e59f1084 	ldr	r1, [pc, #132]	; 18c <__PERCPU_BAKERY_LOCK_SIZE__+0x14c>
     104:	e0411000 	sub	r1, r1, r0
     108:	eb00316d 	bl	c6c4 <zero_normalmem>
     10c:	e1a0c007 	mov	ip, r7
     110:	eb0030b8 	bl	c3f8 <plat_set_my_stack>
     114:	ee114f11 	mrc	15, 0, r4, cr1, cr1, {0}
     118:	e3844004 	orr	r4, r4, #4
     11c:	e3c44010 	bic	r4, r4, #16
     120:	ee014f11 	mcr	15, 0, r4, cr1, cr1, {0}
     124:	e1a00009 	mov	r0, r9
     128:	e1a0100a 	mov	r1, sl
     12c:	e1a0200b 	mov	r2, fp
     130:	e1a0300c 	mov	r3, ip
     134:	fa0011dd 	blx	48b0 <sp_min_early_platform_setup2>
     138:	fa00379b 	blx	dfac <sp_min_plat_arch_setup>
     13c:	fa00010a 	blx	56c <sp_min_main>
     140:	e59f0048 	ldr	r0, [pc, #72]	; 190 <__PERCPU_BAKERY_LOCK_SIZE__+0x150>
     144:	e59f1048 	ldr	r1, [pc, #72]	; 194 <__PERCPU_BAKERY_LOCK_SIZE__+0x154>
     148:	e0411000 	sub	r1, r1, r0
     14c:	eb00310e 	bl	c58c <clean_dcache_range>
     150:	e59f0030 	ldr	r0, [pc, #48]	; 188 <__PERCPU_BAKERY_LOCK_SIZE__+0x148>
     154:	e59f1030 	ldr	r1, [pc, #48]	; 18c <__PERCPU_BAKERY_LOCK_SIZE__+0x14c>
     158:	e0411000 	sub	r1, r1, r0
     15c:	eb00310a 	bl	c58c <clean_dcache_range>
     160:	fa0000d6 	blx	4c0 <smc_get_next_ctx>
     164:	ea0000a8 	b	40c <sp_min_exit>
     168:	00012b7a 	.word	0x00012b7a
     16c:	00000030 	.word	0x00000030
     170:	fffff000 	.word	0xfffff000
     174:	00012e40 	.word	0x00012e40
     178:	00001002 	.word	0x00001002
     17c:	40000700 	.word	0x40000700
     180:	00000000 	.word	0x00000000
     184:	0001b000 	.word	0x0001b000
     188:	00015440 	.word	0x00015440
     18c:	000169a0 	.word	0x000169a0
     190:	00013000 	.word	0x00013000
     194:	00013bfa 	.word	0x00013bfa

00000198 <sp_min_handle_smc>:
     198:	e58de080 	str	lr, [sp, #128]	; 0x80
     19c:	e88d1fff 	stm	sp, {r0, r1, r2, r3, r4, r5, r6, r7, r8, r9, sl, fp, ip}
     1a0:	e1a0000d 	mov	r0, sp
     1a4:	e2800034 	add	r0, r0, #52	; 0x34
     1a8:	e1054200 	mrs	r4, SP_usr
     1ac:	e1065200 	mrs	r5, LR_usr
     1b0:	e1406300 	mrs	r6, SPSR_irq
     1b4:	e1017300 	mrs	r7, SP_irq
     1b8:	e1008300 	mrs	r8, LR_irq
     1bc:	e14e9200 	mrs	r9, SPSR_fiq
     1c0:	e10da200 	mrs	sl, SP_fiq
     1c4:	e10eb200 	mrs	fp, LR_fiq
     1c8:	e142c300 	mrs	ip, SPSR_svc
     1cc:	e8a01ff0 	stmia	r0!, {r4, r5, r6, r7, r8, r9, sl, fp, ip}
     1d0:	e1034300 	mrs	r4, SP_svc
     1d4:	e1025300 	mrs	r5, LR_svc
     1d8:	e1446300 	mrs	r6, SPSR_abt
     1dc:	e1057300 	mrs	r7, SP_abt
     1e0:	e1048300 	mrs	r8, LR_abt
     1e4:	e1469300 	mrs	r9, SPSR_und
     1e8:	e107a300 	mrs	sl, SP_und
     1ec:	e106b300 	mrs	fp, LR_und
     1f0:	e14fc000 	mrs	ip, SPSR
     1f4:	e8a01ff0 	stmia	r0!, {r4, r5, r6, r7, r8, r9, sl, fp, ip}
     1f8:	ee114f11 	mrc	15, 0, r4, cr1, cr1, {0}
     1fc:	ee195f1c 	mrc	15, 0, r5, cr9, cr12, {0}
     200:	e3140001 	tst	r4, #1
     204:	0a000000 	beq	20c <sp_min_handle_smc+0x74>
     208:	e58d5088 	str	r5, [sp, #136]	; 0x88
     20c:	e3855020 	orr	r5, r5, #32
     210:	ee095f1c 	mcr	15, 0, r5, cr9, cr12, {0}
     214:	f57ff06f 	isb	sy
     218:	e58d4084 	str	r4, [sp, #132]	; 0x84
     21c:	f57ff01f 	clrex
     220:	e1a0200d 	mov	r2, sp
     224:	e592d07c 	ldr	sp, [r2, #124]	; 0x7c
     228:	e5920084 	ldr	r0, [r2, #132]	; 0x84
     22c:	e2003001 	and	r3, r0, #1
     230:	e3c00001 	bic	r0, r0, #1
     234:	ee010f11 	mcr	15, 0, r0, cr1, cr1, {0}
     238:	f57ff06f 	isb	sy
     23c:	e5920000 	ldr	r0, [r2]
     240:	e3100101 	tst	r0, #1073741824	; 0x40000000
     244:	0a000003 	beq	258 <sp_min_handle_smc+0xc0>
     248:	e3e00000 	mvn	r0, #0
     24c:	e5820000 	str	r0, [r2]
     250:	e1a00002 	mov	r0, r2
     254:	ea00006c 	b	40c <sp_min_exit>
     258:	e3a01000 	mov	r1, #0
     25c:	fa00015f 	blx	7e0 <handle_runtime_svc>
     260:	ea000069 	b	40c <sp_min_exit>

00000264 <sp_min_handle_fiq>:
     264:	e24ee004 	sub	lr, lr, #4
     268:	e58de080 	str	lr, [sp, #128]	; 0x80
     26c:	e88d1fff 	stm	sp, {r0, r1, r2, r3, r4, r5, r6, r7, r8, r9, sl, fp, ip}
     270:	e1a0000d 	mov	r0, sp
     274:	e2800034 	add	r0, r0, #52	; 0x34
     278:	e1054200 	mrs	r4, SP_usr
     27c:	e1065200 	mrs	r5, LR_usr
     280:	e1406300 	mrs	r6, SPSR_irq
     284:	e1017300 	mrs	r7, SP_irq
     288:	e1008300 	mrs	r8, LR_irq
     28c:	e14e9200 	mrs	r9, SPSR_fiq
     290:	e10da200 	mrs	sl, SP_fiq
     294:	e10eb200 	mrs	fp, LR_fiq
     298:	e142c300 	mrs	ip, SPSR_svc
     29c:	e8a01ff0 	stmia	r0!, {r4, r5, r6, r7, r8, r9, sl, fp, ip}
     2a0:	e1034300 	mrs	r4, SP_svc
     2a4:	e1025300 	mrs	r5, LR_svc
     2a8:	e1446300 	mrs	r6, SPSR_abt
     2ac:	e1057300 	mrs	r7, SP_abt
     2b0:	e1048300 	mrs	r8, LR_abt
     2b4:	e1469300 	mrs	r9, SPSR_und
     2b8:	e107a300 	mrs	sl, SP_und
     2bc:	e106b300 	mrs	fp, LR_und
     2c0:	e14fc000 	mrs	ip, SPSR
     2c4:	e8a01ff0 	stmia	r0!, {r4, r5, r6, r7, r8, r9, sl, fp, ip}
     2c8:	ee114f11 	mrc	15, 0, r4, cr1, cr1, {0}
     2cc:	ee195f1c 	mrc	15, 0, r5, cr9, cr12, {0}
     2d0:	e3140001 	tst	r4, #1
     2d4:	0a000000 	beq	2dc <sp_min_handle_fiq+0x78>
     2d8:	e58d5088 	str	r5, [sp, #136]	; 0x88
     2dc:	e3855020 	orr	r5, r5, #32
     2e0:	ee095f1c 	mcr	15, 0, r5, cr9, cr12, {0}
     2e4:	f57ff06f 	isb	sy
     2e8:	e58d4084 	str	r4, [sp, #132]	; 0x84
     2ec:	f57ff01f 	clrex
     2f0:	e1a0200d 	mov	r2, sp
     2f4:	e592d07c 	ldr	sp, [r2, #124]	; 0x7c
     2f8:	e5920084 	ldr	r0, [r2, #132]	; 0x84
     2fc:	e3c00001 	bic	r0, r0, #1
     300:	ee010f11 	mcr	15, 0, r0, cr1, cr1, {0}
     304:	f57ff06f 	isb	sy
     308:	e92d000c 	push	{r2, r3}
     30c:	fa0034c2 	blx	d61c <sp_min_fiq>
     310:	e8bd0009 	pop	{r0, r3}
     314:	ea00003c 	b	40c <sp_min_exit>

00000318 <sp_min_warm_entrypoint>:
     318:	ee110f11 	mrc	15, 0, r0, cr1, cr1, {0}
     31c:	e3100001 	tst	r0, #1
     320:	0a000002 	beq	330 <sp_min_warm_entrypoint+0x18>
     324:	e59f00d0 	ldr	r0, [pc, #208]	; 3fc <sp_min_warm_entrypoint+0xe4>
     328:	e3a010f7 	mov	r1, #247	; 0xf7
     32c:	ea003039 	b	c418 <asm_assert>
     330:	f1020016 	cps	#22
     334:	f57ff06f 	isb	sy
     338:	e59f00c0 	ldr	r0, [pc, #192]	; 400 <sp_min_warm_entrypoint+0xe8>
     33c:	ee0c0f10 	mcr	15, 0, r0, cr12, cr0, {0}
     340:	ee0c0f30 	mcr	15, 0, r0, cr12, cr0, {1}
     344:	f57ff06f 	isb	sy
     348:	eb002f83 	bl	c15c <reset_handler>
     34c:	e59f10b0 	ldr	r1, [pc, #176]	; 404 <sp_min_warm_entrypoint+0xec>
     350:	ee110f10 	mrc	15, 0, r0, cr1, cr0, {0}
     354:	e1800001 	orr	r0, r0, r1
     358:	ee010f10 	mcr	15, 0, r0, cr1, cr0, {0}
     35c:	f57ff06f 	isb	sy
     360:	e3a00c02 	mov	r0, #512	; 0x200
     364:	ee010f11 	mcr	15, 0, r0, cr1, cr1, {0}
     368:	f1080100 	cpsie	a
     36c:	f57ff06f 	isb	sy
     370:	ee110f51 	mrc	15, 0, r0, cr1, cr1, {2}
     374:	e2000807 	and	r0, r0, #458752	; 0x70000
     378:	e3800b03 	orr	r0, r0, #3072	; 0xc00
     37c:	ee101f51 	mrc	15, 0, r1, cr0, cr1, {2}
     380:	e7e31651 	ubfx	r1, r1, #12, #4
     384:	e3510001 	cmp	r1, #1
     388:	1a000000 	bne	390 <sp_min_warm_entrypoint+0x78>
     38c:	e3800601 	orr	r0, r0, #1048576	; 0x100000
     390:	ee010f51 	mcr	15, 0, r0, cr1, cr1, {2}
     394:	f57ff06f 	isb	sy
     398:	e3a0060f 	mov	r0, #15728640	; 0xf00000
     39c:	ee010f50 	mcr	15, 0, r0, cr1, cr0, {2}
     3a0:	f57ff06f 	isb	sy
     3a4:	e59f005c 	ldr	r0, [pc, #92]	; 408 <sp_min_warm_entrypoint+0xf0>
     3a8:	eee80a10 	vmsr	fpexc, r0
     3ac:	f57ff06f 	isb	sy
     3b0:	e3a00020 	mov	r0, #32
     3b4:	ee090f1c 	mcr	15, 0, r0, cr9, cr12, {0}
     3b8:	ee100f11 	mrc	15, 0, r0, cr0, cr1, {0}
     3bc:	e200040f 	and	r0, r0, #251658240	; 0xf000000
     3c0:	e3500401 	cmp	r0, #16777216	; 0x1000000
     3c4:	1a000002 	bne	3d4 <sp_min_warm_entrypoint+0xbc>
     3c8:	e10f0000 	mrs	r0, CPSR
     3cc:	e3800602 	orr	r0, r0, #2097152	; 0x200000
     3d0:	e12ff000 	msr	CPSR_fsxc, r0
     3d4:	eb003007 	bl	c3f8 <plat_set_my_stack>
     3d8:	e3a00001 	mov	r0, #1
     3dc:	fb0037d4 	blx	e336 <bl32_plat_enable_mmu>
     3e0:	ee110f11 	mrc	15, 0, r0, cr1, cr1, {0}
     3e4:	e3800004 	orr	r0, r0, #4
     3e8:	e3c00010 	bic	r0, r0, #16
     3ec:	ee010f11 	mcr	15, 0, r0, cr1, cr1, {0}
     3f0:	fa00009b 	blx	664 <sp_min_warm_boot>
     3f4:	fa000031 	blx	4c0 <smc_get_next_ctx>
     3f8:	ea000003 	b	40c <sp_min_exit>
     3fc:	00012b7a 	.word	0x00012b7a
     400:	00012e40 	.word	0x00012e40
     404:	00001002 	.word	0x00001002
     408:	40000700 	.word	0x40000700

0000040c <sp_min_exit>:
     40c:	e580d07c 	str	sp, [r0, #124]	; 0x7c
     410:	e1a0d000 	mov	sp, r0
     414:	e5901084 	ldr	r1, [r0, #132]	; 0x84
     418:	ee011f11 	mcr	15, 0, r1, cr1, cr1, {0}
     41c:	f57ff06f 	isb	sy
     420:	e3110001 	tst	r1, #1
     424:	0a000001 	beq	430 <sp_min_exit+0x24>
     428:	e5901088 	ldr	r1, [r0, #136]	; 0x88
     42c:	ee091f1c 	mcr	15, 0, r1, cr9, cr12, {0}
     430:	e2801034 	add	r1, r0, #52	; 0x34
     434:	e8b11ff0 	ldm	r1!, {r4, r5, r6, r7, r8, r9, sl, fp, ip}
     438:	e125f204 	msr	SP_usr, r4
     43c:	e126f205 	msr	LR_usr, r5
     440:	e160f306 	msr	SPSR_irq, r6
     444:	e121f307 	msr	SP_irq, r7
     448:	e120f308 	msr	LR_irq, r8
     44c:	e16ef209 	msr	SPSR_fiq, r9
     450:	e12df20a 	msr	SP_fiq, sl
     454:	e12ef20b 	msr	LR_fiq, fp
     458:	e162f30c 	msr	SPSR_svc, ip
     45c:	e8b11ff0 	ldm	r1!, {r4, r5, r6, r7, r8, r9, sl, fp, ip}
     460:	e123f304 	msr	SP_svc, r4
     464:	e122f305 	msr	LR_svc, r5
     468:	e164f306 	msr	SPSR_abt, r6
     46c:	e125f307 	msr	SP_abt, r7
     470:	e124f308 	msr	LR_abt, r8
     474:	e166f309 	msr	SPSR_und, r9
     478:	e127f30a 	msr	SP_und, sl
     47c:	e126f30b 	msr	LR_und, fp
     480:	e16ff00c 	msr	SPSR_fsxc, ip
     484:	e590e080 	ldr	lr, [r0, #128]	; 0x80
     488:	e8901fff 	ldm	r0, {r0, r1, r2, r3, r4, r5, r6, r7, r8, r9, sl, fp, ip}
     48c:	e160006e 	eret
     490:	f57ff047 	dsb	un
     494:	f57ff06f 	isb	sy

00000498 <smc_get_ctx>:
     498:	2801      	cmp	r0, #1
     49a:	b508      	push	{r3, lr}
     49c:	d004      	beq.n	4a8 <smc_get_ctx+0x10>
     49e:	4806      	ldr	r0, [pc, #24]	; (4b8 <smc_get_ctx+0x20>)
     4a0:	2131      	movs	r1, #49	; 0x31
     4a2:	4478      	add	r0, pc
     4a4:	f00c fed4 	bl	d250 <__assert>
     4a8:	f00c ec08 	blx	ccbc <plat_my_core_pos>
     4ac:	4b03      	ldr	r3, [pc, #12]	; (4bc <smc_get_ctx+0x24>)
     4ae:	2290      	movs	r2, #144	; 0x90
     4b0:	447b      	add	r3, pc
     4b2:	fb02 3000 	mla	r0, r2, r0, r3
     4b6:	bd08      	pop	{r3, pc}
     4b8:	000103c5 	.word	0x000103c5
     4bc:	0001500c 	.word	0x0001500c

000004c0 <smc_get_next_ctx>:
     4c0:	b508      	push	{r3, lr}
     4c2:	f00c ebfc 	blx	ccbc <plat_my_core_pos>
     4c6:	4b03      	ldr	r3, [pc, #12]	; (4d4 <smc_get_next_ctx+0x14>)
     4c8:	2290      	movs	r2, #144	; 0x90
     4ca:	447b      	add	r3, pc
     4cc:	fb02 3000 	mla	r0, r2, r0, r3
     4d0:	bd08      	pop	{r3, pc}
     4d2:	bf00      	nop
     4d4:	00014ff2 	.word	0x00014ff2

000004d8 <cm_get_context>:
     4d8:	2801      	cmp	r0, #1
     4da:	b508      	push	{r3, lr}
     4dc:	d004      	beq.n	4e8 <cm_get_context+0x10>
     4de:	4806      	ldr	r0, [pc, #24]	; (4f8 <cm_get_context+0x20>)
     4e0:	2147      	movs	r1, #71	; 0x47
     4e2:	4478      	add	r0, pc
     4e4:	f00c feb4 	bl	d250 <__assert>
     4e8:	f00c ebe8 	blx	ccbc <plat_my_core_pos>
     4ec:	4b03      	ldr	r3, [pc, #12]	; (4fc <cm_get_context+0x24>)
     4ee:	447b      	add	r3, pc
     4f0:	f853 0020 	ldr.w	r0, [r3, r0, lsl #2]
     4f4:	bd08      	pop	{r3, pc}
     4f6:	bf00      	nop
     4f8:	00010385 	.word	0x00010385
     4fc:	00015256 	.word	0x00015256

00000500 <cm_get_context_by_index>:
     500:	2901      	cmp	r1, #1
     502:	b508      	push	{r3, lr}
     504:	d004      	beq.n	510 <cm_get_context_by_index+0x10>
     506:	4805      	ldr	r0, [pc, #20]	; (51c <cm_get_context_by_index+0x1c>)
     508:	215e      	movs	r1, #94	; 0x5e
     50a:	4478      	add	r0, pc
     50c:	f00c fea0 	bl	d250 <__assert>
     510:	4b03      	ldr	r3, [pc, #12]	; (520 <cm_get_context_by_index+0x20>)
     512:	447b      	add	r3, pc
     514:	f853 0020 	ldr.w	r0, [r3, r0, lsl #2]
     518:	bd08      	pop	{r3, pc}
     51a:	bf00      	nop
     51c:	0001035d 	.word	0x0001035d
     520:	00015232 	.word	0x00015232

00000524 <cm_set_context_by_index>:
     524:	2a01      	cmp	r2, #1
     526:	b508      	push	{r3, lr}
     528:	d004      	beq.n	534 <cm_set_context_by_index+0x10>
     52a:	4805      	ldr	r0, [pc, #20]	; (540 <cm_set_context_by_index+0x1c>)
     52c:	2169      	movs	r1, #105	; 0x69
     52e:	4478      	add	r0, pc
     530:	f00c fe8e 	bl	d250 <__assert>
     534:	4b03      	ldr	r3, [pc, #12]	; (544 <cm_set_context_by_index+0x20>)
     536:	447b      	add	r3, pc
     538:	f843 1020 	str.w	r1, [r3, r0, lsl #2]
     53c:	bd08      	pop	{r3, pc}
     53e:	bf00      	nop
     540:	00010339 	.word	0x00010339
     544:	0001520e 	.word	0x0001520e

00000548 <get_arm_std_svc_args>:
     548:	b508      	push	{r3, lr}
     54a:	f64f 73e0 	movw	r3, #65504	; 0xffe0
     54e:	4298      	cmp	r0, r3
     550:	d004      	beq.n	55c <get_arm_std_svc_args+0x14>
     552:	4804      	ldr	r0, [pc, #16]	; (564 <get_arm_std_svc_args+0x1c>)
     554:	21a6      	movs	r1, #166	; 0xa6
     556:	4478      	add	r0, pc
     558:	f00c fe7a 	bl	d250 <__assert>
     55c:	4802      	ldr	r0, [pc, #8]	; (568 <get_arm_std_svc_args+0x20>)
     55e:	4478      	add	r0, pc
     560:	bd08      	pop	{r3, pc}
     562:	bf00      	nop
     564:	00010311 	.word	0x00010311
     568:	00012ae6 	.word	0x00012ae6

0000056c <sp_min_main>:
     56c:	b570      	push	{r4, r5, r6, lr}
     56e:	4d34      	ldr	r5, [pc, #208]	; (640 <sp_min_main+0xd4>)
     570:	4c34      	ldr	r4, [pc, #208]	; (644 <sp_min_main+0xd8>)
     572:	447d      	add	r5, pc
     574:	4b34      	ldr	r3, [pc, #208]	; (648 <sp_min_main+0xdc>)
     576:	447c      	add	r4, pc
     578:	58e9      	ldr	r1, [r5, r3]
     57a:	4620      	mov	r0, r4
     57c:	f005 fcd8 	bl	5f30 <tf_log>
     580:	4b32      	ldr	r3, [pc, #200]	; (64c <sp_min_main+0xe0>)
     582:	4620      	mov	r0, r4
     584:	58e9      	ldr	r1, [r5, r3]
     586:	f005 fcd3 	bl	5f30 <tf_log>
     58a:	f004 fb1f 	bl	4bcc <sp_min_platform_setup>
     58e:	4830      	ldr	r0, [pc, #192]	; (650 <sp_min_main+0xe4>)
     590:	4478      	add	r0, pc
     592:	f005 fccd 	bl	5f30 <tf_log>
     596:	f000 f95b 	bl	850 <runtime_svc_init>
     59a:	2001      	movs	r0, #1
     59c:	f7ff ff9c 	bl	4d8 <cm_get_context>
     5a0:	4605      	mov	r5, r0
     5a2:	f004 f95f 	bl	4864 <sp_min_plat_get_bl33_ep_info>
     5a6:	4604      	mov	r4, r0
     5a8:	b920      	cbnz	r0, 5b4 <sp_min_main+0x48>
     5aa:	482a      	ldr	r0, [pc, #168]	; (654 <sp_min_main+0xe8>)
     5ac:	2185      	movs	r1, #133	; 0x85
     5ae:	4478      	add	r0, pc
     5b0:	f00c fe4e 	bl	d250 <__assert>
     5b4:	6846      	ldr	r6, [r0, #4]
     5b6:	f006 0621 	and.w	r6, r6, #33	; 0x21
     5ba:	2e01      	cmp	r6, #1
     5bc:	d003      	beq.n	5c6 <sp_min_main+0x5a>
     5be:	4826      	ldr	r0, [pc, #152]	; (658 <sp_min_main+0xec>)
     5c0:	2186      	movs	r1, #134	; 0x86
     5c2:	4478      	add	r0, pc
     5c4:	e7f4      	b.n	5b0 <sp_min_main+0x44>
     5c6:	4825      	ldr	r0, [pc, #148]	; (65c <sp_min_main+0xf0>)
     5c8:	4478      	add	r0, pc
     5ca:	f005 fcb1 	bl	5f30 <tf_log>
     5ce:	4620      	mov	r0, r4
     5d0:	f003 fb56 	bl	3c80 <psci_prepare_next_non_secure_ctx>
     5d4:	4630      	mov	r0, r6
     5d6:	f7ff ff7f 	bl	4d8 <cm_get_context>
     5da:	4604      	mov	r4, r0
     5dc:	f00c eb6e 	blx	ccbc <plat_my_core_pos>
     5e0:	491f      	ldr	r1, [pc, #124]	; (660 <sp_min_main+0xf4>)
     5e2:	2390      	movs	r3, #144	; 0x90
     5e4:	fb03 f200 	mul.w	r2, r3, r0
     5e8:	4479      	add	r1, pc
     5ea:	6820      	ldr	r0, [r4, #0]
     5ec:	188b      	adds	r3, r1, r2
     5ee:	5088      	str	r0, [r1, r2]
     5f0:	6862      	ldr	r2, [r4, #4]
     5f2:	605a      	str	r2, [r3, #4]
     5f4:	68a2      	ldr	r2, [r4, #8]
     5f6:	609a      	str	r2, [r3, #8]
     5f8:	6922      	ldr	r2, [r4, #16]
     5fa:	f8c3 2080 	str.w	r2, [r3, #128]	; 0x80
     5fe:	69a2      	ldr	r2, [r4, #24]
     600:	679a      	str	r2, [r3, #120]	; 0x78
     602:	6962      	ldr	r2, [r4, #20]
     604:	f8c3 2084 	str.w	r2, [r3, #132]	; 0x84
     608:	ee11 3f11 	mrc	15, 0, r3, cr1, cr1, {0}
     60c:	f043 0301 	orr.w	r3, r3, #1
     610:	ee01 3f11 	mcr	15, 0, r3, cr1, cr1, {0}
     614:	f3bf 8f6f 	isb	sy
     618:	69eb      	ldr	r3, [r5, #28]
     61a:	ee01 3f10 	mcr	15, 0, r3, cr1, cr0, {0}
     61e:	f3bf 8f6f 	isb	sy
     622:	ee11 3f11 	mrc	15, 0, r3, cr1, cr1, {0}
     626:	f023 0301 	bic.w	r3, r3, #1
     62a:	ee01 3f11 	mcr	15, 0, r3, cr1, cr1, {0}
     62e:	f3bf 8f6f 	isb	sy
     632:	f00d fc13 	bl	de5c <sp_min_plat_runtime_setup>
     636:	e8bd 4070 	ldmia.w	sp!, {r4, r5, r6, lr}
     63a:	f005 bd2f 	b.w	609c <console_flush>
     63e:	bf00      	nop
     640:	fffffa8a 	.word	0xfffffa8a
     644:	0001030b 	.word	0x0001030b
     648:	00012de8 	.word	0x00012de8
     64c:	00012df0 	.word	0x00012df0
     650:	000102fe 	.word	0x000102fe
     654:	000102b9 	.word	0x000102b9
     658:	000102a5 	.word	0x000102a5
     65c:	000102ee 	.word	0x000102ee
     660:	00014ed4 	.word	0x00014ed4

00000664 <sp_min_warm_boot>:
     664:	b5f8      	push	{r3, r4, r5, r6, r7, lr}
     666:	2001      	movs	r0, #1
     668:	4e1b      	ldr	r6, [pc, #108]	; (6d8 <sp_min_warm_boot+0x74>)
     66a:	f7ff ff35 	bl	4d8 <cm_get_context>
     66e:	4607      	mov	r7, r0
     670:	f002 fd10 	bl	3094 <psci_warmboot_entrypoint>
     674:	447e      	add	r6, pc
     676:	f00c eb22 	blx	ccbc <plat_my_core_pos>
     67a:	2190      	movs	r1, #144	; 0x90
     67c:	fb01 f500 	mul.w	r5, r1, r0
     680:	1974      	adds	r4, r6, r5
     682:	4620      	mov	r0, r4
     684:	f00c e81e 	blx	c6c4 <zero_normalmem>
     688:	2001      	movs	r0, #1
     68a:	f7ff ff25 	bl	4d8 <cm_get_context>
     68e:	6803      	ldr	r3, [r0, #0]
     690:	5173      	str	r3, [r6, r5]
     692:	6843      	ldr	r3, [r0, #4]
     694:	6063      	str	r3, [r4, #4]
     696:	6883      	ldr	r3, [r0, #8]
     698:	60a3      	str	r3, [r4, #8]
     69a:	6903      	ldr	r3, [r0, #16]
     69c:	f8c4 3080 	str.w	r3, [r4, #128]	; 0x80
     6a0:	6983      	ldr	r3, [r0, #24]
     6a2:	67a3      	str	r3, [r4, #120]	; 0x78
     6a4:	6943      	ldr	r3, [r0, #20]
     6a6:	f8c4 3084 	str.w	r3, [r4, #132]	; 0x84
     6aa:	ee11 3f11 	mrc	15, 0, r3, cr1, cr1, {0}
     6ae:	f043 0301 	orr.w	r3, r3, #1
     6b2:	ee01 3f11 	mcr	15, 0, r3, cr1, cr1, {0}
     6b6:	f3bf 8f6f 	isb	sy
     6ba:	69fb      	ldr	r3, [r7, #28]
     6bc:	ee01 3f10 	mcr	15, 0, r3, cr1, cr0, {0}
     6c0:	f3bf 8f6f 	isb	sy
     6c4:	ee11 3f11 	mrc	15, 0, r3, cr1, cr1, {0}
     6c8:	f023 0301 	bic.w	r3, r3, #1
     6cc:	ee01 3f11 	mcr	15, 0, r3, cr1, cr1, {0}
     6d0:	f3bf 8f6f 	isb	sy
     6d4:	bdf8      	pop	{r3, r4, r5, r6, r7, pc}
     6d6:	bf00      	nop
     6d8:	00014e48 	.word	0x00014e48

000006dc <fdt_read_uint32_array>:
     6dc:	b5f7      	push	{r0, r1, r2, r4, r5, r6, r7, lr}
     6de:	461c      	mov	r4, r3
     6e0:	9d08      	ldr	r5, [sp, #32]
     6e2:	b920      	cbnz	r0, 6ee <fdt_read_uint32_array+0x12>
     6e4:	481b      	ldr	r0, [pc, #108]	; (754 <fdt_read_uint32_array+0x78>)
     6e6:	2120      	movs	r1, #32
     6e8:	4478      	add	r0, pc
     6ea:	f00c fdb1 	bl	d250 <__assert>
     6ee:	b91a      	cbnz	r2, 6f8 <fdt_read_uint32_array+0x1c>
     6f0:	4819      	ldr	r0, [pc, #100]	; (758 <fdt_read_uint32_array+0x7c>)
     6f2:	2121      	movs	r1, #33	; 0x21
     6f4:	4478      	add	r0, pc
     6f6:	e7f8      	b.n	6ea <fdt_read_uint32_array+0xe>
     6f8:	b91d      	cbnz	r5, 702 <fdt_read_uint32_array+0x26>
     6fa:	4818      	ldr	r0, [pc, #96]	; (75c <fdt_read_uint32_array+0x80>)
     6fc:	2122      	movs	r1, #34	; 0x22
     6fe:	4478      	add	r0, pc
     700:	e7f3      	b.n	6ea <fdt_read_uint32_array+0xe>
     702:	2900      	cmp	r1, #0
     704:	da03      	bge.n	70e <fdt_read_uint32_array+0x32>
     706:	4816      	ldr	r0, [pc, #88]	; (760 <fdt_read_uint32_array+0x84>)
     708:	2123      	movs	r1, #35	; 0x23
     70a:	4478      	add	r0, pc
     70c:	e7ed      	b.n	6ea <fdt_read_uint32_array+0xe>
     70e:	ab01      	add	r3, sp, #4
     710:	f00f f841 	bl	f796 <fdt_getprop>
     714:	4602      	mov	r2, r0
     716:	b1c8      	cbz	r0, 74c <fdt_read_uint32_array+0x70>
     718:	9b01      	ldr	r3, [sp, #4]
     71a:	ebb4 0f93 	cmp.w	r4, r3, lsr #2
     71e:	d806      	bhi.n	72e <fdt_read_uint32_array+0x52>
     720:	eb00 0484 	add.w	r4, r0, r4, lsl #2
     724:	3d04      	subs	r5, #4
     726:	42a2      	cmp	r2, r4
     728:	d109      	bne.n	73e <fdt_read_uint32_array+0x62>
     72a:	2000      	movs	r0, #0
     72c:	e005      	b.n	73a <fdt_read_uint32_array+0x5e>
     72e:	480d      	ldr	r0, [pc, #52]	; (764 <fdt_read_uint32_array+0x88>)
     730:	4478      	add	r0, pc
     732:	f005 fbfd 	bl	5f30 <tf_log>
     736:	f06f 000e 	mvn.w	r0, #14
     73a:	b003      	add	sp, #12
     73c:	bdf0      	pop	{r4, r5, r6, r7, pc}
     73e:	f852 0b04 	ldr.w	r0, [r2], #4
     742:	f00c ff76 	bl	d632 <cpu_to_fdt32>
     746:	f845 0f04 	str.w	r0, [r5, #4]!
     74a:	e7ec      	b.n	726 <fdt_read_uint32_array+0x4a>
     74c:	f04f 30ff 	mov.w	r0, #4294967295	; 0xffffffff
     750:	e7f3      	b.n	73a <fdt_read_uint32_array+0x5e>
     752:	bf00      	nop
     754:	000101f7 	.word	0x000101f7
     758:	000101eb 	.word	0x000101eb
     75c:	000101e1 	.word	0x000101e1
     760:	000101d5 	.word	0x000101d5
     764:	000101c5 	.word	0x000101c5

00000768 <fdt_get_stdout_node_offset>:
     768:	491a      	ldr	r1, [pc, #104]	; (7d4 <fdt_get_stdout_node_offset+0x6c>)
     76a:	b538      	push	{r3, r4, r5, lr}
     76c:	4605      	mov	r5, r0
     76e:	4479      	add	r1, pc
     770:	f00f f86c 	bl	f84c <fdt_path_offset>
     774:	1e01      	subs	r1, r0, #0
     776:	da06      	bge.n	786 <fdt_get_stdout_node_offset+0x1e>
     778:	4917      	ldr	r1, [pc, #92]	; (7d8 <fdt_get_stdout_node_offset+0x70>)
     77a:	4628      	mov	r0, r5
     77c:	4479      	add	r1, pc
     77e:	f00f f865 	bl	f84c <fdt_path_offset>
     782:	1e01      	subs	r1, r0, #0
     784:	db23      	blt.n	7ce <fdt_get_stdout_node_offset+0x66>
     786:	4a15      	ldr	r2, [pc, #84]	; (7dc <fdt_get_stdout_node_offset+0x74>)
     788:	2300      	movs	r3, #0
     78a:	4628      	mov	r0, r5
     78c:	447a      	add	r2, pc
     78e:	f00f f802 	bl	f796 <fdt_getprop>
     792:	4604      	mov	r4, r0
     794:	b1d8      	cbz	r0, 7ce <fdt_get_stdout_node_offset+0x66>
     796:	213a      	movs	r1, #58	; 0x3a
     798:	f00f fc9f 	bl	100da <strchr>
     79c:	b960      	cbnz	r0, 7b8 <fdt_get_stdout_node_offset+0x50>
     79e:	4620      	mov	r0, r4
     7a0:	f00f fccd 	bl	1013e <strlen>
     7a4:	4602      	mov	r2, r0
     7a6:	7823      	ldrb	r3, [r4, #0]
     7a8:	4621      	mov	r1, r4
     7aa:	4628      	mov	r0, r5
     7ac:	2b2f      	cmp	r3, #47	; 0x2f
     7ae:	d105      	bne.n	7bc <fdt_get_stdout_node_offset+0x54>
     7b0:	e8bd 4038 	ldmia.w	sp!, {r3, r4, r5, lr}
     7b4:	f00f b800 	b.w	f7b8 <fdt_path_offset_namelen>
     7b8:	1b02      	subs	r2, r0, r4
     7ba:	e7f4      	b.n	7a6 <fdt_get_stdout_node_offset+0x3e>
     7bc:	f00c fc98 	bl	d0f0 <fdt_get_alias_namelen>
     7c0:	4601      	mov	r1, r0
     7c2:	b120      	cbz	r0, 7ce <fdt_get_stdout_node_offset+0x66>
     7c4:	4628      	mov	r0, r5
     7c6:	e8bd 4038 	ldmia.w	sp!, {r3, r4, r5, lr}
     7ca:	f00f b83f 	b.w	f84c <fdt_path_offset>
     7ce:	f04f 30ff 	mov.w	r0, #4294967295	; 0xffffffff
     7d2:	bd38      	pop	{r3, r4, r5, pc}
     7d4:	000101a2 	.word	0x000101a2
     7d8:	000101a3 	.word	0x000101a3
     7dc:	0001019b 	.word	0x0001019b

000007e0 <handle_runtime_svc>:
     7e0:	b5f0      	push	{r4, r5, r6, r7, lr}
     7e2:	4614      	mov	r4, r2
     7e4:	4e15      	ldr	r6, [pc, #84]	; (83c <handle_runtime_svc+0x5c>)
     7e6:	b085      	sub	sp, #20
     7e8:	447e      	add	r6, pc
     7ea:	b922      	cbnz	r2, 7f6 <handle_runtime_svc+0x16>
     7ec:	4814      	ldr	r0, [pc, #80]	; (840 <handle_runtime_svc+0x60>)
     7ee:	212a      	movs	r1, #42	; 0x2a
     7f0:	4478      	add	r0, pc
     7f2:	f00c fd2d 	bl	d250 <__assert>
     7f6:	0fc5      	lsrs	r5, r0, #31
     7f8:	f3c0 6205 	ubfx	r2, r0, #24, #6
     7fc:	ea42 1285 	orr.w	r2, r2, r5, lsl #6
     800:	4d10      	ldr	r5, [pc, #64]	; (844 <handle_runtime_svc+0x64>)
     802:	447d      	add	r5, pc
     804:	5caf      	ldrb	r7, [r5, r2]
     806:	4a10      	ldr	r2, [pc, #64]	; (848 <handle_runtime_svc+0x68>)
     808:	58b5      	ldr	r5, [r6, r2]
     80a:	4a10      	ldr	r2, [pc, #64]	; (84c <handle_runtime_svc+0x6c>)
     80c:	58b2      	ldr	r2, [r6, r2]
     80e:	1aad      	subs	r5, r5, r2
     810:	ebb7 1f15 	cmp.w	r7, r5, lsr #4
     814:	d305      	bcc.n	822 <handle_runtime_svc+0x42>
     816:	4620      	mov	r0, r4
     818:	f04f 33ff 	mov.w	r3, #4294967295	; 0xffffffff
     81c:	6023      	str	r3, [r4, #0]
     81e:	b005      	add	sp, #20
     820:	bdf0      	pop	{r4, r5, r6, r7, pc}
     822:	9303      	str	r3, [sp, #12]
     824:	9402      	str	r4, [sp, #8]
     826:	9101      	str	r1, [sp, #4]
     828:	eb02 1207 	add.w	r2, r2, r7, lsl #4
     82c:	6923      	ldr	r3, [r4, #16]
     82e:	9300      	str	r3, [sp, #0]
     830:	68d5      	ldr	r5, [r2, #12]
     832:	6861      	ldr	r1, [r4, #4]
     834:	e9d4 2302 	ldrd	r2, r3, [r4, #8]
     838:	47a8      	blx	r5
     83a:	e7f0      	b.n	81e <handle_runtime_svc+0x3e>
     83c:	fffff814 	.word	0xfffff814
     840:	00010143 	.word	0x00010143
     844:	00016028 	.word	0x00016028
     848:	00012e04 	.word	0x00012e04
     84c:	00012df4 	.word	0x00012df4

00000850 <runtime_svc_init>:
     850:	e92d 4ff8 	stmdb	sp!, {r3, r4, r5, r6, r7, r8, r9, sl, fp, lr}
     854:	4b33      	ldr	r3, [pc, #204]	; (924 <runtime_svc_init+0xd4>)
     856:	4a34      	ldr	r2, [pc, #208]	; (928 <runtime_svc_init+0xd8>)
     858:	447b      	add	r3, pc
     85a:	589c      	ldr	r4, [r3, r2]
     85c:	4a33      	ldr	r2, [pc, #204]	; (92c <runtime_svc_init+0xdc>)
     85e:	589e      	ldr	r6, [r3, r2]
     860:	42b4      	cmp	r4, r6
     862:	d303      	bcc.n	86c <runtime_svc_init+0x1c>
     864:	1ba4      	subs	r4, r4, r6
     866:	f5b4 6f00 	cmp.w	r4, #2048	; 0x800
     86a:	d304      	bcc.n	876 <runtime_svc_init+0x26>
     86c:	4830      	ldr	r0, [pc, #192]	; (930 <runtime_svc_init+0xe0>)
     86e:	2161      	movs	r1, #97	; 0x61
     870:	4478      	add	r0, pc
     872:	f00c fced 	bl	d250 <__assert>
     876:	2c0f      	cmp	r4, #15
     878:	d912      	bls.n	8a0 <runtime_svc_init+0x50>
     87a:	482e      	ldr	r0, [pc, #184]	; (934 <runtime_svc_init+0xe4>)
     87c:	2280      	movs	r2, #128	; 0x80
     87e:	4f2e      	ldr	r7, [pc, #184]	; (938 <runtime_svc_init+0xe8>)
     880:	f04f 31ff 	mov.w	r1, #4294967295	; 0xffffffff
     884:	f8df 80b4 	ldr.w	r8, [pc, #180]	; 93c <runtime_svc_init+0xec>
     888:	f04f 0900 	mov.w	r9, #0
     88c:	4478      	add	r0, pc
     88e:	0924      	lsrs	r4, r4, #4
     890:	f00f fb3d 	bl	ff0e <memset>
     894:	447f      	add	r7, pc
     896:	44f8      	add	r8, pc
     898:	fa5f fa89 	uxtb.w	sl, r9
     89c:	4554      	cmp	r4, sl
     89e:	d801      	bhi.n	8a4 <runtime_svc_init+0x54>
     8a0:	e8bd 8ff8 	ldmia.w	sp!, {r3, r4, r5, r6, r7, r8, r9, sl, fp, pc}
     8a4:	ea4f 1b0a 	mov.w	fp, sl, lsl #4
     8a8:	eb06 150a 	add.w	r5, r6, sl, lsl #4
     8ac:	f816 200b 	ldrb.w	r2, [r6, fp]
     8b0:	786b      	ldrb	r3, [r5, #1]
     8b2:	429a      	cmp	r2, r3
     8b4:	d808      	bhi.n	8c8 <runtime_svc_init+0x78>
     8b6:	2b3f      	cmp	r3, #63	; 0x3f
     8b8:	d806      	bhi.n	8c8 <runtime_svc_init+0x78>
     8ba:	78ab      	ldrb	r3, [r5, #2]
     8bc:	2b01      	cmp	r3, #1
     8be:	d803      	bhi.n	8c8 <runtime_svc_init+0x78>
     8c0:	68ab      	ldr	r3, [r5, #8]
     8c2:	b953      	cbnz	r3, 8da <runtime_svc_init+0x8a>
     8c4:	68eb      	ldr	r3, [r5, #12]
     8c6:	b98b      	cbnz	r3, 8ec <runtime_svc_init+0x9c>
     8c8:	481d      	ldr	r0, [pc, #116]	; (940 <runtime_svc_init+0xf0>)
     8ca:	4629      	mov	r1, r5
     8cc:	4478      	add	r0, pc
     8ce:	f005 fb2f 	bl	5f30 <tf_log>
     8d2:	f005 fbe3 	bl	609c <console_flush>
     8d6:	f00b ee06 	blx	c4e4 <do_panic>
     8da:	4798      	blx	r3
     8dc:	b130      	cbz	r0, 8ec <runtime_svc_init+0x9c>
     8de:	6869      	ldr	r1, [r5, #4]
     8e0:	4640      	mov	r0, r8
     8e2:	f005 fb25 	bl	5f30 <tf_log>
     8e6:	f109 0901 	add.w	r9, r9, #1
     8ea:	e7d5      	b.n	898 <runtime_svc_init+0x48>
     8ec:	78ab      	ldrb	r3, [r5, #2]
     8ee:	f816 100b 	ldrb.w	r1, [r6, fp]
     8f2:	786a      	ldrb	r2, [r5, #1]
     8f4:	019b      	lsls	r3, r3, #6
     8f6:	f001 013f 	and.w	r1, r1, #63	; 0x3f
     8fa:	f003 0340 	and.w	r3, r3, #64	; 0x40
     8fe:	f002 023f 	and.w	r2, r2, #63	; 0x3f
     902:	ea41 0003 	orr.w	r0, r1, r3
     906:	431a      	orrs	r2, r3
     908:	4290      	cmp	r0, r2
     90a:	d903      	bls.n	914 <runtime_svc_init+0xc4>
     90c:	480d      	ldr	r0, [pc, #52]	; (944 <runtime_svc_init+0xf4>)
     90e:	2195      	movs	r1, #149	; 0x95
     910:	4478      	add	r0, pc
     912:	e7ae      	b.n	872 <runtime_svc_init+0x22>
     914:	f800 a007 	strb.w	sl, [r0, r7]
     918:	3001      	adds	r0, #1
     91a:	b2c3      	uxtb	r3, r0
     91c:	429a      	cmp	r2, r3
     91e:	d2f9      	bcs.n	914 <runtime_svc_init+0xc4>
     920:	e7e1      	b.n	8e6 <runtime_svc_init+0x96>
     922:	bf00      	nop
     924:	fffff7a4 	.word	0xfffff7a4
     928:	00012e04 	.word	0x00012e04
     92c:	00012df4 	.word	0x00012df4
     930:	000100c3 	.word	0x000100c3
     934:	00015f9e 	.word	0x00015f9e
     938:	00015f96 	.word	0x00015f96
     93c:	000100da 	.word	0x000100da
     940:	0001007c 	.word	0x0001007c
     944:	00010023 	.word	0x00010023

00000948 <gicv2_secure_spis_configure_props>:
     948:	e92d 47f0 	stmdb	sp!, {r4, r5, r6, r7, r8, r9, sl, lr}
     94c:	4605      	mov	r5, r0
     94e:	460c      	mov	r4, r1
     950:	4690      	mov	r8, r2
     952:	2a00      	cmp	r2, #0
     954:	d041      	beq.n	9da <gicv2_secure_spis_configure_props+0x92>
     956:	b921      	cbnz	r1, 962 <gicv2_secure_spis_configure_props+0x1a>
     958:	4821      	ldr	r0, [pc, #132]	; (9e0 <gicv2_secure_spis_configure_props+0x98>)
     95a:	2182      	movs	r1, #130	; 0x82
     95c:	4478      	add	r0, pc
     95e:	f00c fc77 	bl	d250 <__assert>
     962:	2600      	movs	r6, #0
     964:	f500 6900 	add.w	r9, r0, #2048	; 0x800
     968:	f834 1026 	ldrh.w	r1, [r4, r6, lsl #2]
     96c:	00b7      	lsls	r7, r6, #2
     96e:	f3c1 0109 	ubfx	r1, r1, #0, #10
     972:	eb04 0a86 	add.w	sl, r4, r6, lsl #2
     976:	291f      	cmp	r1, #31
     978:	d92c      	bls.n	9d4 <gicv2_secure_spis_configure_props+0x8c>
     97a:	f89a 3002 	ldrb.w	r3, [sl, #2]
     97e:	f013 0f0c 	tst.w	r3, #12
     982:	d003      	beq.n	98c <gicv2_secure_spis_configure_props+0x44>
     984:	4817      	ldr	r0, [pc, #92]	; (9e4 <gicv2_secure_spis_configure_props+0x9c>)
     986:	218b      	movs	r1, #139	; 0x8b
     988:	4478      	add	r0, pc
     98a:	e7e8      	b.n	95e <gicv2_secure_spis_configure_props+0x16>
     98c:	4628      	mov	r0, r5
     98e:	f00c fe9e 	bl	d6ce <gicd_clr_igroupr>
     992:	59e2      	ldr	r2, [r4, r7]
     994:	4628      	mov	r0, r5
     996:	5be1      	ldrh	r1, [r4, r7]
     998:	f3c2 2287 	ubfx	r2, r2, #10, #8
     99c:	f3c1 0109 	ubfx	r1, r1, #0, #10
     9a0:	f00c feb2 	bl	d708 <gicd_set_ipriorityr>
     9a4:	5be3      	ldrh	r3, [r4, r7]
     9a6:	4628      	mov	r0, r5
     9a8:	f8d9 2000 	ldr.w	r2, [r9]
     9ac:	f3c3 0309 	ubfx	r3, r3, #0, #10
     9b0:	b2d2      	uxtb	r2, r2
     9b2:	f803 2009 	strb.w	r2, [r3, r9]
     9b6:	f89a 2002 	ldrb.w	r2, [sl, #2]
     9ba:	5be1      	ldrh	r1, [r4, r7]
     9bc:	f3c2 1201 	ubfx	r2, r2, #4, #2
     9c0:	f3c1 0109 	ubfx	r1, r1, #0, #10
     9c4:	f00c fea5 	bl	d712 <gicd_set_icfgr>
     9c8:	5be1      	ldrh	r1, [r4, r7]
     9ca:	4628      	mov	r0, r5
     9cc:	f3c1 0109 	ubfx	r1, r1, #0, #10
     9d0:	f00c fe8e 	bl	d6f0 <gicd_set_isenabler>
     9d4:	3601      	adds	r6, #1
     9d6:	45b0      	cmp	r8, r6
     9d8:	d1c6      	bne.n	968 <gicv2_secure_spis_configure_props+0x20>
     9da:	e8bd 87f0 	ldmia.w	sp!, {r4, r5, r6, r7, r8, r9, sl, pc}
     9de:	bf00      	nop
     9e0:	0001003c 	.word	0x0001003c
     9e4:	00010010 	.word	0x00010010

000009e8 <gicv2_secure_ppi_sgi_setup_props>:
     9e8:	e92d 47f0 	stmdb	sp!, {r4, r5, r6, r7, r8, r9, sl, lr}
     9ec:	4604      	mov	r4, r0
     9ee:	460d      	mov	r5, r1
     9f0:	4690      	mov	r8, r2
     9f2:	b12a      	cbz	r2, a00 <gicv2_secure_ppi_sgi_setup_props+0x18>
     9f4:	b921      	cbnz	r1, a00 <gicv2_secure_ppi_sgi_setup_props+0x18>
     9f6:	482a      	ldr	r0, [pc, #168]	; (aa0 <gicv2_secure_ppi_sgi_setup_props+0xb8>)
     9f8:	21ac      	movs	r1, #172	; 0xac
     9fa:	4478      	add	r0, pc
     9fc:	f00c fc28 	bl	d250 <__assert>
     a00:	f04f 32ff 	mov.w	r2, #4294967295	; 0xffffffff
     a04:	2100      	movs	r1, #0
     a06:	4620      	mov	r0, r4
     a08:	2600      	movs	r6, #0
     a0a:	f00c fe3e 	bl	d68a <gicd_write_icenabler>
     a0e:	4631      	mov	r1, r6
     a10:	f04f 3280 	mov.w	r2, #2155905152	; 0x80808080
     a14:	4620      	mov	r0, r4
     a16:	3604      	adds	r6, #4
     a18:	f00c fe3d 	bl	d696 <gicd_write_ipriorityr>
     a1c:	2e20      	cmp	r6, #32
     a1e:	d1f6      	bne.n	a0e <gicv2_secure_ppi_sgi_setup_props+0x26>
     a20:	2700      	movs	r7, #0
     a22:	f04f 0901 	mov.w	r9, #1
     a26:	463e      	mov	r6, r7
     a28:	4546      	cmp	r6, r8
     a2a:	d10b      	bne.n	a44 <gicv2_secure_ppi_sgi_setup_props+0x5c>
     a2c:	43fa      	mvns	r2, r7
     a2e:	4620      	mov	r0, r4
     a30:	2100      	movs	r1, #0
     a32:	f00c fe1f 	bl	d674 <gicd_write_igroupr>
     a36:	463a      	mov	r2, r7
     a38:	4620      	mov	r0, r4
     a3a:	2100      	movs	r1, #0
     a3c:	e8bd 47f0 	ldmia.w	sp!, {r4, r5, r6, r7, r8, r9, sl, lr}
     a40:	f00c be1d 	b.w	d67e <gicd_write_isenabler>
     a44:	f835 1026 	ldrh.w	r1, [r5, r6, lsl #2]
     a48:	ea4f 0a86 	mov.w	sl, r6, lsl #2
     a4c:	f3c1 0109 	ubfx	r1, r1, #0, #10
     a50:	eb05 0386 	add.w	r3, r5, r6, lsl #2
     a54:	291f      	cmp	r1, #31
     a56:	d820      	bhi.n	a9a <gicv2_secure_ppi_sgi_setup_props+0xb2>
     a58:	789a      	ldrb	r2, [r3, #2]
     a5a:	f012 0f0c 	tst.w	r2, #12
     a5e:	d003      	beq.n	a68 <gicv2_secure_ppi_sgi_setup_props+0x80>
     a60:	4810      	ldr	r0, [pc, #64]	; (aa4 <gicv2_secure_ppi_sgi_setup_props+0xbc>)
     a62:	21c0      	movs	r1, #192	; 0xc0
     a64:	4478      	add	r0, pc
     a66:	e7c9      	b.n	9fc <gicv2_secure_ppi_sgi_setup_props+0x14>
     a68:	f501 737c 	add.w	r3, r1, #1008	; 0x3f0
     a6c:	f3c3 0309 	ubfx	r3, r3, #0, #10
     a70:	2b0f      	cmp	r3, #15
     a72:	d804      	bhi.n	a7e <gicv2_secure_ppi_sgi_setup_props+0x96>
     a74:	f3c2 1201 	ubfx	r2, r2, #4, #2
     a78:	4620      	mov	r0, r4
     a7a:	f00c fe4a 	bl	d712 <gicd_set_icfgr>
     a7e:	f835 100a 	ldrh.w	r1, [r5, sl]
     a82:	4620      	mov	r0, r4
     a84:	f855 200a 	ldr.w	r2, [r5, sl]
     a88:	f3c1 0109 	ubfx	r1, r1, #0, #10
     a8c:	f3c2 2287 	ubfx	r2, r2, #10, #8
     a90:	fa09 f301 	lsl.w	r3, r9, r1
     a94:	431f      	orrs	r7, r3
     a96:	f00c fe37 	bl	d708 <gicd_set_ipriorityr>
     a9a:	3601      	adds	r6, #1
     a9c:	e7c4      	b.n	a28 <gicv2_secure_ppi_sgi_setup_props+0x40>
     a9e:	bf00      	nop
     aa0:	0000ff9e 	.word	0x0000ff9e
     aa4:	0000ff34 	.word	0x0000ff34

00000aa8 <gicv2_cpuif_enable>:
     aa8:	b508      	push	{r3, lr}
     aaa:	4b0a      	ldr	r3, [pc, #40]	; (ad4 <gicv2_cpuif_enable+0x2c>)
     aac:	447b      	add	r3, pc
     aae:	681b      	ldr	r3, [r3, #0]
     ab0:	b923      	cbnz	r3, abc <gicv2_cpuif_enable+0x14>
     ab2:	4809      	ldr	r0, [pc, #36]	; (ad8 <gicv2_cpuif_enable+0x30>)
     ab4:	2126      	movs	r1, #38	; 0x26
     ab6:	4478      	add	r0, pc
     ab8:	f00c fbca 	bl	d250 <__assert>
     abc:	685b      	ldr	r3, [r3, #4]
     abe:	b91b      	cbnz	r3, ac8 <gicv2_cpuif_enable+0x20>
     ac0:	4806      	ldr	r0, [pc, #24]	; (adc <gicv2_cpuif_enable+0x34>)
     ac2:	2127      	movs	r1, #39	; 0x27
     ac4:	4478      	add	r0, pc
     ac6:	e7f7      	b.n	ab8 <gicv2_cpuif_enable+0x10>
     ac8:	22ff      	movs	r2, #255	; 0xff
     aca:	605a      	str	r2, [r3, #4]
     acc:	f240 12e9 	movw	r2, #489	; 0x1e9
     ad0:	601a      	str	r2, [r3, #0]
     ad2:	bd08      	pop	{r3, pc}
     ad4:	00014ca0 	.word	0x00014ca0
     ad8:	0000ff05 	.word	0x0000ff05
     adc:	0000fef7 	.word	0x0000fef7

00000ae0 <gicv2_pcpu_distif_init>:
     ae0:	b510      	push	{r4, lr}
     ae2:	4c0e      	ldr	r4, [pc, #56]	; (b1c <gicv2_pcpu_distif_init+0x3c>)
     ae4:	447c      	add	r4, pc
     ae6:	6823      	ldr	r3, [r4, #0]
     ae8:	b923      	cbnz	r3, af4 <gicv2_pcpu_distif_init+0x14>
     aea:	480d      	ldr	r0, [pc, #52]	; (b20 <gicv2_pcpu_distif_init+0x40>)
     aec:	2150      	movs	r1, #80	; 0x50
     aee:	4478      	add	r0, pc
     af0:	f00c fbae 	bl	d250 <__assert>
     af4:	6818      	ldr	r0, [r3, #0]
     af6:	b918      	cbnz	r0, b00 <gicv2_pcpu_distif_init+0x20>
     af8:	480a      	ldr	r0, [pc, #40]	; (b24 <gicv2_pcpu_distif_init+0x44>)
     afa:	2151      	movs	r1, #81	; 0x51
     afc:	4478      	add	r0, pc
     afe:	e7f7      	b.n	af0 <gicv2_pcpu_distif_init+0x10>
     b00:	695a      	ldr	r2, [r3, #20]
     b02:	6919      	ldr	r1, [r3, #16]
     b04:	f7ff ff70 	bl	9e8 <gicv2_secure_ppi_sgi_setup_props>
     b08:	6823      	ldr	r3, [r4, #0]
     b0a:	681a      	ldr	r2, [r3, #0]
     b0c:	6813      	ldr	r3, [r2, #0]
     b0e:	07d9      	lsls	r1, r3, #31
     b10:	bf5c      	itt	pl
     b12:	f043 0301 	orrpl.w	r3, r3, #1
     b16:	6013      	strpl	r3, [r2, #0]
     b18:	bd10      	pop	{r4, pc}
     b1a:	bf00      	nop
     b1c:	00014c68 	.word	0x00014c68
     b20:	0000fecd 	.word	0x0000fecd
     b24:	0000febf 	.word	0x0000febf

00000b28 <gicv2_distif_init>:
     b28:	b538      	push	{r3, r4, r5, lr}
     b2a:	4d10      	ldr	r5, [pc, #64]	; (b6c <gicv2_distif_init+0x44>)
     b2c:	447d      	add	r5, pc
     b2e:	682b      	ldr	r3, [r5, #0]
     b30:	b923      	cbnz	r3, b3c <gicv2_distif_init+0x14>
     b32:	480f      	ldr	r0, [pc, #60]	; (b70 <gicv2_distif_init+0x48>)
     b34:	2168      	movs	r1, #104	; 0x68
     b36:	4478      	add	r0, pc
     b38:	f00c fb8a 	bl	d250 <__assert>
     b3c:	6818      	ldr	r0, [r3, #0]
     b3e:	b918      	cbnz	r0, b48 <gicv2_distif_init+0x20>
     b40:	480c      	ldr	r0, [pc, #48]	; (b74 <gicv2_distif_init+0x4c>)
     b42:	2169      	movs	r1, #105	; 0x69
     b44:	4478      	add	r0, pc
     b46:	e7f7      	b.n	b38 <gicv2_distif_init+0x10>
     b48:	6804      	ldr	r4, [r0, #0]
     b4a:	f024 0303 	bic.w	r3, r4, #3
     b4e:	f044 0401 	orr.w	r4, r4, #1
     b52:	6003      	str	r3, [r0, #0]
     b54:	f00c fdf7 	bl	d746 <gicv2_spis_configure_defaults>
     b58:	682b      	ldr	r3, [r5, #0]
     b5a:	695a      	ldr	r2, [r3, #20]
     b5c:	6919      	ldr	r1, [r3, #16]
     b5e:	6818      	ldr	r0, [r3, #0]
     b60:	f7ff fef2 	bl	948 <gicv2_secure_spis_configure_props>
     b64:	682b      	ldr	r3, [r5, #0]
     b66:	681b      	ldr	r3, [r3, #0]
     b68:	601c      	str	r4, [r3, #0]
     b6a:	bd38      	pop	{r3, r4, r5, pc}
     b6c:	00014c20 	.word	0x00014c20
     b70:	0000fe85 	.word	0x0000fe85
     b74:	0000fe77 	.word	0x0000fe77

00000b78 <gicv2_driver_init>:
     b78:	b510      	push	{r4, lr}
     b7a:	b920      	cbnz	r0, b86 <gicv2_driver_init+0xe>
     b7c:	481a      	ldr	r0, [pc, #104]	; (be8 <gicv2_driver_init+0x70>)
     b7e:	2183      	movs	r1, #131	; 0x83
     b80:	4478      	add	r0, pc
     b82:	f00c fb65 	bl	d250 <__assert>
     b86:	6802      	ldr	r2, [r0, #0]
     b88:	b91a      	cbnz	r2, b92 <gicv2_driver_init+0x1a>
     b8a:	4818      	ldr	r0, [pc, #96]	; (bec <gicv2_driver_init+0x74>)
     b8c:	2184      	movs	r1, #132	; 0x84
     b8e:	4478      	add	r0, pc
     b90:	e7f7      	b.n	b82 <gicv2_driver_init+0xa>
     b92:	6841      	ldr	r1, [r0, #4]
     b94:	b919      	cbnz	r1, b9e <gicv2_driver_init+0x26>
     b96:	4816      	ldr	r0, [pc, #88]	; (bf0 <gicv2_driver_init+0x78>)
     b98:	2185      	movs	r1, #133	; 0x85
     b9a:	4478      	add	r0, pc
     b9c:	e7f1      	b.n	b82 <gicv2_driver_init+0xa>
     b9e:	6941      	ldr	r1, [r0, #20]
     ba0:	b129      	cbz	r1, bae <gicv2_driver_init+0x36>
     ba2:	6901      	ldr	r1, [r0, #16]
     ba4:	b919      	cbnz	r1, bae <gicv2_driver_init+0x36>
     ba6:	4813      	ldr	r0, [pc, #76]	; (bf4 <gicv2_driver_init+0x7c>)
     ba8:	2187      	movs	r1, #135	; 0x87
     baa:	4478      	add	r0, pc
     bac:	e7e9      	b.n	b82 <gicv2_driver_init+0xa>
     bae:	f8d2 2fe8 	ldr.w	r2, [r2, #4072]	; 0xfe8
     bb2:	f3c2 1203 	ubfx	r2, r2, #4, #4
     bb6:	3a01      	subs	r2, #1
     bb8:	2a01      	cmp	r2, #1
     bba:	d903      	bls.n	bc4 <gicv2_driver_init+0x4c>
     bbc:	480e      	ldr	r0, [pc, #56]	; (bf8 <gicv2_driver_init+0x80>)
     bbe:	219a      	movs	r1, #154	; 0x9a
     bc0:	4478      	add	r0, pc
     bc2:	e7de      	b.n	b82 <gicv2_driver_init+0xa>
     bc4:	4c0d      	ldr	r4, [pc, #52]	; (bfc <gicv2_driver_init+0x84>)
     bc6:	2104      	movs	r1, #4
     bc8:	447c      	add	r4, pc
     bca:	6020      	str	r0, [r4, #0]
     bcc:	4620      	mov	r0, r4
     bce:	f00b ecc0 	blx	c550 <flush_dcache_range>
     bd2:	6820      	ldr	r0, [r4, #0]
     bd4:	2118      	movs	r1, #24
     bd6:	f00b ecbc 	blx	c550 <flush_dcache_range>
     bda:	4809      	ldr	r0, [pc, #36]	; (c00 <gicv2_driver_init+0x88>)
     bdc:	e8bd 4010 	ldmia.w	sp!, {r4, lr}
     be0:	4478      	add	r0, pc
     be2:	f005 b9a5 	b.w	5f30 <tf_log>
     be6:	bf00      	nop
     be8:	0000fe3b 	.word	0x0000fe3b
     bec:	0000fe2d 	.word	0x0000fe2d
     bf0:	0000fe21 	.word	0x0000fe21
     bf4:	0000fe11 	.word	0x0000fe11
     bf8:	0000fdfb 	.word	0x0000fdfb
     bfc:	00014b84 	.word	0x00014b84
     c00:	0000fdfb 	.word	0x0000fdfb

00000c04 <gicv2_get_pending_interrupt_id>:
     c04:	b508      	push	{r3, lr}
     c06:	4b0d      	ldr	r3, [pc, #52]	; (c3c <gicv2_get_pending_interrupt_id+0x38>)
     c08:	447b      	add	r3, pc
     c0a:	681b      	ldr	r3, [r3, #0]
     c0c:	b923      	cbnz	r3, c18 <gicv2_get_pending_interrupt_id+0x14>
     c0e:	480c      	ldr	r0, [pc, #48]	; (c40 <gicv2_get_pending_interrupt_id+0x3c>)
     c10:	21d5      	movs	r1, #213	; 0xd5
     c12:	4478      	add	r0, pc
     c14:	f00c fb1c 	bl	d250 <__assert>
     c18:	685b      	ldr	r3, [r3, #4]
     c1a:	b91b      	cbnz	r3, c24 <gicv2_get_pending_interrupt_id+0x20>
     c1c:	4809      	ldr	r0, [pc, #36]	; (c44 <gicv2_get_pending_interrupt_id+0x40>)
     c1e:	21d6      	movs	r1, #214	; 0xd6
     c20:	4478      	add	r0, pc
     c22:	e7f7      	b.n	c14 <gicv2_get_pending_interrupt_id+0x10>
     c24:	6998      	ldr	r0, [r3, #24]
     c26:	f240 32fe 	movw	r2, #1022	; 0x3fe
     c2a:	f3c0 0009 	ubfx	r0, r0, #0, #10
     c2e:	4290      	cmp	r0, r2
     c30:	bf04      	itt	eq
     c32:	6a98      	ldreq	r0, [r3, #40]	; 0x28
     c34:	f3c0 0009 	ubfxeq	r0, r0, #0, #10
     c38:	bd08      	pop	{r3, pc}
     c3a:	bf00      	nop
     c3c:	00014b44 	.word	0x00014b44
     c40:	0000fda9 	.word	0x0000fda9
     c44:	0000fd9b 	.word	0x0000fd9b

00000c48 <gicv2_acknowledge_interrupt>:
     c48:	b508      	push	{r3, lr}
     c4a:	4b08      	ldr	r3, [pc, #32]	; (c6c <gicv2_acknowledge_interrupt+0x24>)
     c4c:	447b      	add	r3, pc
     c4e:	681b      	ldr	r3, [r3, #0]
     c50:	b923      	cbnz	r3, c5c <gicv2_acknowledge_interrupt+0x14>
     c52:	4807      	ldr	r0, [pc, #28]	; (c70 <gicv2_acknowledge_interrupt+0x28>)
     c54:	21eb      	movs	r1, #235	; 0xeb
     c56:	4478      	add	r0, pc
     c58:	f00c fafa 	bl	d250 <__assert>
     c5c:	685b      	ldr	r3, [r3, #4]
     c5e:	b91b      	cbnz	r3, c68 <gicv2_acknowledge_interrupt+0x20>
     c60:	4804      	ldr	r0, [pc, #16]	; (c74 <gicv2_acknowledge_interrupt+0x2c>)
     c62:	21ec      	movs	r1, #236	; 0xec
     c64:	4478      	add	r0, pc
     c66:	e7f7      	b.n	c58 <gicv2_acknowledge_interrupt+0x10>
     c68:	68d8      	ldr	r0, [r3, #12]
     c6a:	bd08      	pop	{r3, pc}
     c6c:	00014b00 	.word	0x00014b00
     c70:	0000fd65 	.word	0x0000fd65
     c74:	0000fd57 	.word	0x0000fd57

00000c78 <gicv2_end_of_interrupt>:
     c78:	b508      	push	{r3, lr}
     c7a:	4b0a      	ldr	r3, [pc, #40]	; (ca4 <gicv2_end_of_interrupt+0x2c>)
     c7c:	447b      	add	r3, pc
     c7e:	681a      	ldr	r2, [r3, #0]
     c80:	b922      	cbnz	r2, c8c <gicv2_end_of_interrupt+0x14>
     c82:	4809      	ldr	r0, [pc, #36]	; (ca8 <gicv2_end_of_interrupt+0x30>)
     c84:	21f7      	movs	r1, #247	; 0xf7
     c86:	4478      	add	r0, pc
     c88:	f00c fae2 	bl	d250 <__assert>
     c8c:	6852      	ldr	r2, [r2, #4]
     c8e:	b91a      	cbnz	r2, c98 <gicv2_end_of_interrupt+0x20>
     c90:	4806      	ldr	r0, [pc, #24]	; (cac <gicv2_end_of_interrupt+0x34>)
     c92:	21f8      	movs	r1, #248	; 0xf8
     c94:	4478      	add	r0, pc
     c96:	e7f7      	b.n	c88 <gicv2_end_of_interrupt+0x10>
     c98:	f3bf 8f4a 	dsb	ishst
     c9c:	681b      	ldr	r3, [r3, #0]
     c9e:	685b      	ldr	r3, [r3, #4]
     ca0:	6118      	str	r0, [r3, #16]
     ca2:	bd08      	pop	{r3, pc}
     ca4:	00014ad0 	.word	0x00014ad0
     ca8:	0000fd35 	.word	0x0000fd35
     cac:	0000fd27 	.word	0x0000fd27

00000cb0 <gicv2_set_pe_target_mask>:
     cb0:	b5f8      	push	{r3, r4, r5, r6, r7, lr}
     cb2:	4604      	mov	r4, r0
     cb4:	4e1b      	ldr	r6, [pc, #108]	; (d24 <gicv2_set_pe_target_mask+0x74>)
     cb6:	447e      	add	r6, pc
     cb8:	6833      	ldr	r3, [r6, #0]
     cba:	b92b      	cbnz	r3, cc8 <gicv2_set_pe_target_mask+0x18>
     cbc:	481a      	ldr	r0, [pc, #104]	; (d28 <gicv2_set_pe_target_mask+0x78>)
     cbe:	f44f 7194 	mov.w	r1, #296	; 0x128
     cc2:	4478      	add	r0, pc
     cc4:	f00c fac4 	bl	d250 <__assert>
     cc8:	6818      	ldr	r0, [r3, #0]
     cca:	b920      	cbnz	r0, cd6 <gicv2_set_pe_target_mask+0x26>
     ccc:	4817      	ldr	r0, [pc, #92]	; (d2c <gicv2_set_pe_target_mask+0x7c>)
     cce:	f240 1129 	movw	r1, #297	; 0x129
     cd2:	4478      	add	r0, pc
     cd4:	e7f6      	b.n	cc4 <gicv2_set_pe_target_mask+0x14>
     cd6:	689d      	ldr	r5, [r3, #8]
     cd8:	b925      	cbnz	r5, ce4 <gicv2_set_pe_target_mask+0x34>
     cda:	4815      	ldr	r0, [pc, #84]	; (d30 <gicv2_set_pe_target_mask+0x80>)
     cdc:	f44f 7195 	mov.w	r1, #298	; 0x12a
     ce0:	4478      	add	r0, pc
     ce2:	e7ef      	b.n	cc4 <gicv2_set_pe_target_mask+0x14>
     ce4:	2c07      	cmp	r4, #7
     ce6:	d904      	bls.n	cf2 <gicv2_set_pe_target_mask+0x42>
     ce8:	4812      	ldr	r0, [pc, #72]	; (d34 <gicv2_set_pe_target_mask+0x84>)
     cea:	f240 112b 	movw	r1, #299	; 0x12b
     cee:	4478      	add	r0, pc
     cf0:	e7e8      	b.n	cc4 <gicv2_set_pe_target_mask+0x14>
     cf2:	68db      	ldr	r3, [r3, #12]
     cf4:	42a3      	cmp	r3, r4
     cf6:	d804      	bhi.n	d02 <gicv2_set_pe_target_mask+0x52>
     cf8:	480f      	ldr	r0, [pc, #60]	; (d38 <gicv2_set_pe_target_mask+0x88>)
     cfa:	f44f 7196 	mov.w	r1, #300	; 0x12c
     cfe:	4478      	add	r0, pc
     d00:	e7e0      	b.n	cc4 <gicv2_set_pe_target_mask+0x14>
     d02:	f855 3024 	ldr.w	r3, [r5, r4, lsl #2]
     d06:	00a7      	lsls	r7, r4, #2
     d08:	b95b      	cbnz	r3, d22 <gicv2_set_pe_target_mask+0x72>
     d0a:	f00c fd18 	bl	d73e <gicv2_get_cpuif_id>
     d0e:	6833      	ldr	r3, [r6, #0]
     d10:	2104      	movs	r1, #4
     d12:	f845 0024 	str.w	r0, [r5, r4, lsl #2]
     d16:	6898      	ldr	r0, [r3, #8]
     d18:	4438      	add	r0, r7
     d1a:	e8bd 40f8 	ldmia.w	sp!, {r3, r4, r5, r6, r7, lr}
     d1e:	f012 b8a7 	b.w	12e70 <__flush_dcache_range_from_thumb>
     d22:	bdf8      	pop	{r3, r4, r5, r6, r7, pc}
     d24:	00014a96 	.word	0x00014a96
     d28:	0000fcf9 	.word	0x0000fcf9
     d2c:	0000fce9 	.word	0x0000fce9
     d30:	0000fcdb 	.word	0x0000fcdb
     d34:	0000fccd 	.word	0x0000fccd
     d38:	0000fcbd 	.word	0x0000fcbd

00000d3c <gicv2_enable_interrupt>:
     d3c:	b508      	push	{r3, lr}
     d3e:	4601      	mov	r1, r0
     d40:	4b10      	ldr	r3, [pc, #64]	; (d84 <gicv2_enable_interrupt+0x48>)
     d42:	447b      	add	r3, pc
     d44:	681a      	ldr	r2, [r3, #0]
     d46:	b92a      	cbnz	r2, d54 <gicv2_enable_interrupt+0x18>
     d48:	480f      	ldr	r0, [pc, #60]	; (d88 <gicv2_enable_interrupt+0x4c>)
     d4a:	f44f 71ad 	mov.w	r1, #346	; 0x15a
     d4e:	4478      	add	r0, pc
     d50:	f00c fa7e 	bl	d250 <__assert>
     d54:	6812      	ldr	r2, [r2, #0]
     d56:	b922      	cbnz	r2, d62 <gicv2_enable_interrupt+0x26>
     d58:	480c      	ldr	r0, [pc, #48]	; (d8c <gicv2_enable_interrupt+0x50>)
     d5a:	f240 115b 	movw	r1, #347	; 0x15b
     d5e:	4478      	add	r0, pc
     d60:	e7f6      	b.n	d50 <gicv2_enable_interrupt+0x14>
     d62:	f5b0 7f7f 	cmp.w	r0, #1020	; 0x3fc
     d66:	d304      	bcc.n	d72 <gicv2_enable_interrupt+0x36>
     d68:	4809      	ldr	r0, [pc, #36]	; (d90 <gicv2_enable_interrupt+0x54>)
     d6a:	f44f 71ae 	mov.w	r1, #348	; 0x15c
     d6e:	4478      	add	r0, pc
     d70:	e7ee      	b.n	d50 <gicv2_enable_interrupt+0x14>
     d72:	f3bf 8f4a 	dsb	ishst
     d76:	681b      	ldr	r3, [r3, #0]
     d78:	6818      	ldr	r0, [r3, #0]
     d7a:	e8bd 4008 	ldmia.w	sp!, {r3, lr}
     d7e:	f00c bcb7 	b.w	d6f0 <gicd_set_isenabler>
     d82:	bf00      	nop
     d84:	00014a0a 	.word	0x00014a0a
     d88:	0000fc6d 	.word	0x0000fc6d
     d8c:	0000fc5d 	.word	0x0000fc5d
     d90:	0000fc4d 	.word	0x0000fc4d

00000d94 <gicv2_disable_interrupt>:
     d94:	b508      	push	{r3, lr}
     d96:	4601      	mov	r1, r0
     d98:	4b0e      	ldr	r3, [pc, #56]	; (dd4 <gicv2_disable_interrupt+0x40>)
     d9a:	447b      	add	r3, pc
     d9c:	681b      	ldr	r3, [r3, #0]
     d9e:	b92b      	cbnz	r3, dac <gicv2_disable_interrupt+0x18>
     da0:	480d      	ldr	r0, [pc, #52]	; (dd8 <gicv2_disable_interrupt+0x44>)
     da2:	f240 116b 	movw	r1, #363	; 0x16b
     da6:	4478      	add	r0, pc
     da8:	f00c fa52 	bl	d250 <__assert>
     dac:	6818      	ldr	r0, [r3, #0]
     dae:	b920      	cbnz	r0, dba <gicv2_disable_interrupt+0x26>
     db0:	480a      	ldr	r0, [pc, #40]	; (ddc <gicv2_disable_interrupt+0x48>)
     db2:	f44f 71b6 	mov.w	r1, #364	; 0x16c
     db6:	4478      	add	r0, pc
     db8:	e7f6      	b.n	da8 <gicv2_disable_interrupt+0x14>
     dba:	f5b1 7f7f 	cmp.w	r1, #1020	; 0x3fc
     dbe:	d304      	bcc.n	dca <gicv2_disable_interrupt+0x36>
     dc0:	4807      	ldr	r0, [pc, #28]	; (de0 <gicv2_disable_interrupt+0x4c>)
     dc2:	f240 116d 	movw	r1, #365	; 0x16d
     dc6:	4478      	add	r0, pc
     dc8:	e7ee      	b.n	da8 <gicv2_disable_interrupt+0x14>
     dca:	f00c fc97 	bl	d6fc <gicd_set_icenabler>
     dce:	f3bf 8f4a 	dsb	ishst
     dd2:	bd08      	pop	{r3, pc}
     dd4:	000149b2 	.word	0x000149b2
     dd8:	0000fc15 	.word	0x0000fc15
     ddc:	0000fc05 	.word	0x0000fc05
     de0:	0000fbf5 	.word	0x0000fbf5

00000de4 <gicv2_set_interrupt_priority>:
     de4:	460a      	mov	r2, r1
     de6:	4910      	ldr	r1, [pc, #64]	; (e28 <gicv2_set_interrupt_priority+0x44>)
     de8:	b508      	push	{r3, lr}
     dea:	4603      	mov	r3, r0
     dec:	4479      	add	r1, pc
     dee:	6809      	ldr	r1, [r1, #0]
     df0:	b929      	cbnz	r1, dfe <gicv2_set_interrupt_priority+0x1a>
     df2:	480e      	ldr	r0, [pc, #56]	; (e2c <gicv2_set_interrupt_priority+0x48>)
     df4:	f240 117d 	movw	r1, #381	; 0x17d
     df8:	4478      	add	r0, pc
     dfa:	f00c fa29 	bl	d250 <__assert>
     dfe:	6808      	ldr	r0, [r1, #0]
     e00:	b920      	cbnz	r0, e0c <gicv2_set_interrupt_priority+0x28>
     e02:	480b      	ldr	r0, [pc, #44]	; (e30 <gicv2_set_interrupt_priority+0x4c>)
     e04:	f44f 71bf 	mov.w	r1, #382	; 0x17e
     e08:	4478      	add	r0, pc
     e0a:	e7f6      	b.n	dfa <gicv2_set_interrupt_priority+0x16>
     e0c:	f5b3 7f7f 	cmp.w	r3, #1020	; 0x3fc
     e10:	d304      	bcc.n	e1c <gicv2_set_interrupt_priority+0x38>
     e12:	4808      	ldr	r0, [pc, #32]	; (e34 <gicv2_set_interrupt_priority+0x50>)
     e14:	f240 117f 	movw	r1, #383	; 0x17f
     e18:	4478      	add	r0, pc
     e1a:	e7ee      	b.n	dfa <gicv2_set_interrupt_priority+0x16>
     e1c:	4619      	mov	r1, r3
     e1e:	e8bd 4008 	ldmia.w	sp!, {r3, lr}
     e22:	f00c bc71 	b.w	d708 <gicd_set_ipriorityr>
     e26:	bf00      	nop
     e28:	00014960 	.word	0x00014960
     e2c:	0000fbc3 	.word	0x0000fbc3
     e30:	0000fbb3 	.word	0x0000fbb3
     e34:	0000fba3 	.word	0x0000fba3

00000e38 <gicv2_set_interrupt_type>:
     e38:	b570      	push	{r4, r5, r6, lr}
     e3a:	4604      	mov	r4, r0
     e3c:	4e1b      	ldr	r6, [pc, #108]	; (eac <gicv2_set_interrupt_type+0x74>)
     e3e:	460d      	mov	r5, r1
     e40:	447e      	add	r6, pc
     e42:	6833      	ldr	r3, [r6, #0]
     e44:	b92b      	cbnz	r3, e52 <gicv2_set_interrupt_type+0x1a>
     e46:	481a      	ldr	r0, [pc, #104]	; (eb0 <gicv2_set_interrupt_type+0x78>)
     e48:	f44f 71c5 	mov.w	r1, #394	; 0x18a
     e4c:	4478      	add	r0, pc
     e4e:	f00c f9ff 	bl	d250 <__assert>
     e52:	681b      	ldr	r3, [r3, #0]
     e54:	b923      	cbnz	r3, e60 <gicv2_set_interrupt_type+0x28>
     e56:	4817      	ldr	r0, [pc, #92]	; (eb4 <gicv2_set_interrupt_type+0x7c>)
     e58:	f240 118b 	movw	r1, #395	; 0x18b
     e5c:	4478      	add	r0, pc
     e5e:	e7f6      	b.n	e4e <gicv2_set_interrupt_type+0x16>
     e60:	f5b0 7f7f 	cmp.w	r0, #1020	; 0x3fc
     e64:	d304      	bcc.n	e70 <gicv2_set_interrupt_type+0x38>
     e66:	4814      	ldr	r0, [pc, #80]	; (eb8 <gicv2_set_interrupt_type+0x80>)
     e68:	f44f 71c6 	mov.w	r1, #396	; 0x18c
     e6c:	4478      	add	r0, pc
     e6e:	e7ee      	b.n	e4e <gicv2_set_interrupt_type+0x16>
     e70:	4812      	ldr	r0, [pc, #72]	; (ebc <gicv2_set_interrupt_type+0x84>)
     e72:	4478      	add	r0, pc
     e74:	f00b ea4a 	blx	c30c <spin_lock>
     e78:	b165      	cbz	r5, e94 <gicv2_set_interrupt_type+0x5c>
     e7a:	2d01      	cmp	r5, #1
     e7c:	d110      	bne.n	ea0 <gicv2_set_interrupt_type+0x68>
     e7e:	6833      	ldr	r3, [r6, #0]
     e80:	4621      	mov	r1, r4
     e82:	6818      	ldr	r0, [r3, #0]
     e84:	f00c fc13 	bl	d6ae <gicd_set_igroupr>
     e88:	480d      	ldr	r0, [pc, #52]	; (ec0 <gicv2_set_interrupt_type+0x88>)
     e8a:	e8bd 4070 	ldmia.w	sp!, {r4, r5, r6, lr}
     e8e:	4478      	add	r0, pc
     e90:	f011 bfe6 	b.w	12e60 <__spin_unlock_from_thumb>
     e94:	6833      	ldr	r3, [r6, #0]
     e96:	4621      	mov	r1, r4
     e98:	6818      	ldr	r0, [r3, #0]
     e9a:	f00c fc18 	bl	d6ce <gicd_clr_igroupr>
     e9e:	e7f3      	b.n	e88 <gicv2_set_interrupt_type+0x50>
     ea0:	4808      	ldr	r0, [pc, #32]	; (ec4 <gicv2_set_interrupt_type+0x8c>)
     ea2:	f44f 71cc 	mov.w	r1, #408	; 0x198
     ea6:	4478      	add	r0, pc
     ea8:	e7d1      	b.n	e4e <gicv2_set_interrupt_type+0x16>
     eaa:	bf00      	nop
     eac:	0001490c 	.word	0x0001490c
     eb0:	0000fb6f 	.word	0x0000fb6f
     eb4:	0000fb5f 	.word	0x0000fb5f
     eb8:	0000fb4f 	.word	0x0000fb4f
     ebc:	000148de 	.word	0x000148de
     ec0:	000148c2 	.word	0x000148c2
     ec4:	0000fb15 	.word	0x0000fb15

00000ec8 <gicv2_raise_sgi>:
     ec8:	4a21      	ldr	r2, [pc, #132]	; (f50 <gicv2_raise_sgi+0x88>)
     eca:	b510      	push	{r4, lr}
     ecc:	447a      	add	r2, pc
     ece:	6813      	ldr	r3, [r2, #0]
     ed0:	b92b      	cbnz	r3, ede <gicv2_raise_sgi+0x16>
     ed2:	4820      	ldr	r0, [pc, #128]	; (f54 <gicv2_raise_sgi+0x8c>)
     ed4:	f44f 71d4 	mov.w	r1, #424	; 0x1a8
     ed8:	4478      	add	r0, pc
     eda:	f00c f9b9 	bl	d250 <__assert>
     ede:	2900      	cmp	r1, #0
     ee0:	da04      	bge.n	eec <gicv2_raise_sgi+0x24>
     ee2:	481d      	ldr	r0, [pc, #116]	; (f58 <gicv2_raise_sgi+0x90>)
     ee4:	f240 11a9 	movw	r1, #425	; 0x1a9
     ee8:	4478      	add	r0, pc
     eea:	e7f6      	b.n	eda <gicv2_raise_sgi+0x12>
     eec:	2907      	cmp	r1, #7
     eee:	dd04      	ble.n	efa <gicv2_raise_sgi+0x32>
     ef0:	481a      	ldr	r0, [pc, #104]	; (f5c <gicv2_raise_sgi+0x94>)
     ef2:	f44f 71d5 	mov.w	r1, #426	; 0x1aa
     ef6:	4478      	add	r0, pc
     ef8:	e7ef      	b.n	eda <gicv2_raise_sgi+0x12>
     efa:	681c      	ldr	r4, [r3, #0]
     efc:	b924      	cbnz	r4, f08 <gicv2_raise_sgi+0x40>
     efe:	4818      	ldr	r0, [pc, #96]	; (f60 <gicv2_raise_sgi+0x98>)
     f00:	f240 11ab 	movw	r1, #427	; 0x1ab
     f04:	4478      	add	r0, pc
     f06:	e7e8      	b.n	eda <gicv2_raise_sgi+0x12>
     f08:	689c      	ldr	r4, [r3, #8]
     f0a:	b924      	cbnz	r4, f16 <gicv2_raise_sgi+0x4e>
     f0c:	4815      	ldr	r0, [pc, #84]	; (f64 <gicv2_raise_sgi+0x9c>)
     f0e:	f240 11b1 	movw	r1, #433	; 0x1b1
     f12:	4478      	add	r0, pc
     f14:	e7e1      	b.n	eda <gicv2_raise_sgi+0x12>
     f16:	68db      	ldr	r3, [r3, #12]
     f18:	428b      	cmp	r3, r1
     f1a:	dc04      	bgt.n	f26 <gicv2_raise_sgi+0x5e>
     f1c:	4812      	ldr	r0, [pc, #72]	; (f68 <gicv2_raise_sgi+0xa0>)
     f1e:	f44f 71d9 	mov.w	r1, #434	; 0x1b2
     f22:	4478      	add	r0, pc
     f24:	e7d9      	b.n	eda <gicv2_raise_sgi+0x12>
     f26:	f854 3021 	ldr.w	r3, [r4, r1, lsl #2]
     f2a:	b923      	cbnz	r3, f36 <gicv2_raise_sgi+0x6e>
     f2c:	480f      	ldr	r0, [pc, #60]	; (f6c <gicv2_raise_sgi+0xa4>)
     f2e:	f44f 71db 	mov.w	r1, #438	; 0x1b6
     f32:	4478      	add	r0, pc
     f34:	e7d1      	b.n	eda <gicv2_raise_sgi+0x12>
     f36:	041b      	lsls	r3, r3, #16
     f38:	f000 000f 	and.w	r0, r0, #15
     f3c:	f403 037f 	and.w	r3, r3, #16711680	; 0xff0000
     f40:	4303      	orrs	r3, r0
     f42:	f3bf 8f4a 	dsb	ishst
     f46:	6812      	ldr	r2, [r2, #0]
     f48:	6812      	ldr	r2, [r2, #0]
     f4a:	f8c2 3f00 	str.w	r3, [r2, #3840]	; 0xf00
     f4e:	bd10      	pop	{r4, pc}
     f50:	00014880 	.word	0x00014880
     f54:	0000fae3 	.word	0x0000fae3
     f58:	0000fad3 	.word	0x0000fad3
     f5c:	0000fac5 	.word	0x0000fac5
     f60:	0000fab7 	.word	0x0000fab7
     f64:	0000faa9 	.word	0x0000faa9
     f68:	0000fa99 	.word	0x0000fa99
     f6c:	0000fa89 	.word	0x0000fa89

00000f70 <gicv2_set_spi_routing>:
     f70:	b538      	push	{r3, r4, r5, lr}
     f72:	4b25      	ldr	r3, [pc, #148]	; (1008 <gicv2_set_spi_routing+0x98>)
     f74:	447b      	add	r3, pc
     f76:	681b      	ldr	r3, [r3, #0]
     f78:	b92b      	cbnz	r3, f86 <gicv2_set_spi_routing+0x16>
     f7a:	4824      	ldr	r0, [pc, #144]	; (100c <gicv2_set_spi_routing+0x9c>)
     f7c:	f44f 71e6 	mov.w	r1, #460	; 0x1cc
     f80:	4478      	add	r0, pc
     f82:	f00c f965 	bl	d250 <__assert>
     f86:	681a      	ldr	r2, [r3, #0]
     f88:	b922      	cbnz	r2, f94 <gicv2_set_spi_routing+0x24>
     f8a:	4821      	ldr	r0, [pc, #132]	; (1010 <gicv2_set_spi_routing+0xa0>)
     f8c:	f240 11cd 	movw	r1, #461	; 0x1cd
     f90:	4478      	add	r0, pc
     f92:	e7f6      	b.n	f82 <gicv2_set_spi_routing+0x12>
     f94:	f1a0 0420 	sub.w	r4, r0, #32
     f98:	f5b4 7f77 	cmp.w	r4, #988	; 0x3dc
     f9c:	d304      	bcc.n	fa8 <gicv2_set_spi_routing+0x38>
     f9e:	481d      	ldr	r0, [pc, #116]	; (1014 <gicv2_set_spi_routing+0xa4>)
     fa0:	f240 11cf 	movw	r1, #463	; 0x1cf
     fa4:	4478      	add	r0, pc
     fa6:	e7ec      	b.n	f82 <gicv2_set_spi_routing+0x12>
     fa8:	689c      	ldr	r4, [r3, #8]
     faa:	b924      	cbnz	r4, fb6 <gicv2_set_spi_routing+0x46>
     fac:	481a      	ldr	r0, [pc, #104]	; (1018 <gicv2_set_spi_routing+0xa8>)
     fae:	f240 11d5 	movw	r1, #469	; 0x1d5
     fb2:	4478      	add	r0, pc
     fb4:	e7e5      	b.n	f82 <gicv2_set_spi_routing+0x12>
     fb6:	2907      	cmp	r1, #7
     fb8:	dd04      	ble.n	fc4 <gicv2_set_spi_routing+0x54>
     fba:	4818      	ldr	r0, [pc, #96]	; (101c <gicv2_set_spi_routing+0xac>)
     fbc:	f44f 71eb 	mov.w	r1, #470	; 0x1d6
     fc0:	4478      	add	r0, pc
     fc2:	e7de      	b.n	f82 <gicv2_set_spi_routing+0x12>
     fc4:	68db      	ldr	r3, [r3, #12]
     fc6:	f06f 4500 	mvn.w	r5, #2147483648	; 0x80000000
     fca:	42ab      	cmp	r3, r5
     fcc:	d304      	bcc.n	fd8 <gicv2_set_spi_routing+0x68>
     fce:	4814      	ldr	r0, [pc, #80]	; (1020 <gicv2_set_spi_routing+0xb0>)
     fd0:	f240 11d7 	movw	r1, #471	; 0x1d7
     fd4:	4478      	add	r0, pc
     fd6:	e7d4      	b.n	f82 <gicv2_set_spi_routing+0x12>
     fd8:	428b      	cmp	r3, r1
     fda:	dc04      	bgt.n	fe6 <gicv2_set_spi_routing+0x76>
     fdc:	4811      	ldr	r0, [pc, #68]	; (1024 <gicv2_set_spi_routing+0xb4>)
     fde:	f44f 71ec 	mov.w	r1, #472	; 0x1d8
     fe2:	4478      	add	r0, pc
     fe4:	e7cd      	b.n	f82 <gicv2_set_spi_routing+0x12>
     fe6:	2900      	cmp	r1, #0
     fe8:	db07      	blt.n	ffa <gicv2_set_spi_routing+0x8a>
     fea:	f854 3021 	ldr.w	r3, [r4, r1, lsl #2]
     fee:	b92b      	cbnz	r3, ffc <gicv2_set_spi_routing+0x8c>
     ff0:	480d      	ldr	r0, [pc, #52]	; (1028 <gicv2_set_spi_routing+0xb8>)
     ff2:	f44f 71f0 	mov.w	r1, #480	; 0x1e0
     ff6:	4478      	add	r0, pc
     ff8:	e7c3      	b.n	f82 <gicv2_set_spi_routing+0x12>
     ffa:	23ff      	movs	r3, #255	; 0xff
     ffc:	f502 6200 	add.w	r2, r2, #2048	; 0x800
    1000:	b2db      	uxtb	r3, r3
    1002:	5413      	strb	r3, [r2, r0]
    1004:	bd38      	pop	{r3, r4, r5, pc}
    1006:	bf00      	nop
    1008:	000147d8 	.word	0x000147d8
    100c:	0000fa3b 	.word	0x0000fa3b
    1010:	0000fa2b 	.word	0x0000fa2b
    1014:	0000fa17 	.word	0x0000fa17
    1018:	0000fa09 	.word	0x0000fa09
    101c:	0000f9fb 	.word	0x0000f9fb
    1020:	0000f9e7 	.word	0x0000f9e7
    1024:	0000f9d9 	.word	0x0000f9d9
    1028:	0000f9c5 	.word	0x0000f9c5

0000102c <gicv2_set_pmr>:
    102c:	4a0d      	ldr	r2, [pc, #52]	; (1064 <gicv2_set_pmr+0x38>)
    102e:	b508      	push	{r3, lr}
    1030:	4603      	mov	r3, r0
    1032:	447a      	add	r2, pc
    1034:	6811      	ldr	r1, [r2, #0]
    1036:	b929      	cbnz	r1, 1044 <gicv2_set_pmr+0x18>
    1038:	480b      	ldr	r0, [pc, #44]	; (1068 <gicv2_set_pmr+0x3c>)
    103a:	f44f 7105 	mov.w	r1, #532	; 0x214
    103e:	4478      	add	r0, pc
    1040:	f00c f906 	bl	d250 <__assert>
    1044:	6849      	ldr	r1, [r1, #4]
    1046:	b921      	cbnz	r1, 1052 <gicv2_set_pmr+0x26>
    1048:	4808      	ldr	r0, [pc, #32]	; (106c <gicv2_set_pmr+0x40>)
    104a:	f240 2115 	movw	r1, #533	; 0x215
    104e:	4478      	add	r0, pc
    1050:	e7f6      	b.n	1040 <gicv2_set_pmr+0x14>
    1052:	6848      	ldr	r0, [r1, #4]
    1054:	f3bf 8f5a 	dmb	ishst
    1058:	6812      	ldr	r2, [r2, #0]
    105a:	6852      	ldr	r2, [r2, #4]
    105c:	6053      	str	r3, [r2, #4]
    105e:	f3bf 8f4a 	dsb	ishst
    1062:	bd08      	pop	{r3, pc}
    1064:	0001471a 	.word	0x0001471a
    1068:	0000f97d 	.word	0x0000f97d
    106c:	0000f96d 	.word	0x0000f96d

00001070 <gicv2_interrupt_set_cfg>:
    1070:	4b03      	ldr	r3, [pc, #12]	; (1080 <gicv2_interrupt_set_cfg+0x10>)
    1072:	460a      	mov	r2, r1
    1074:	4601      	mov	r1, r0
    1076:	447b      	add	r3, pc
    1078:	681b      	ldr	r3, [r3, #0]
    107a:	6818      	ldr	r0, [r3, #0]
    107c:	f00c bb49 	b.w	d712 <gicd_set_icfgr>
    1080:	000146d6 	.word	0x000146d6

00001084 <discover_list_protocols>:
    1084:	6903      	ldr	r3, [r0, #16]
    1086:	e92d 41f0 	stmdb	sp!, {r4, r5, r6, r7, r8, lr}
    108a:	b086      	sub	sp, #24
    108c:	466f      	mov	r7, sp
    108e:	2b04      	cmp	r3, #4
    1090:	f04f 0400 	mov.w	r4, #0
    1094:	4605      	mov	r5, r0
    1096:	9400      	str	r4, [sp, #0]
    1098:	607c      	str	r4, [r7, #4]
    109a:	e9cd 4402 	strd	r4, r4, [sp, #8]
    109e:	9404      	str	r4, [sp, #16]
    10a0:	9405      	str	r4, [sp, #20]
    10a2:	d006      	beq.n	10b2 <discover_list_protocols+0x2e>
    10a4:	f06f 0109 	mvn.w	r1, #9
    10a8:	f000 f95c 	bl	1364 <scmi_status_response>
    10ac:	b006      	add	sp, #24
    10ae:	e8bd 81f0 	ldmia.w	sp!, {r4, r5, r6, r7, r8, pc}
    10b2:	6983      	ldr	r3, [r0, #24]
    10b4:	2b10      	cmp	r3, #16
    10b6:	d804      	bhi.n	10c2 <discover_list_protocols+0x3e>
    10b8:	4819      	ldr	r0, [pc, #100]	; (1120 <discover_list_protocols+0x9c>)
    10ba:	2197      	movs	r1, #151	; 0x97
    10bc:	4478      	add	r0, pc
    10be:	f00c f8c7 	bl	d250 <__assert>
    10c2:	f8d0 800c 	ldr.w	r8, [r0, #12]
    10c6:	6800      	ldr	r0, [r0, #0]
    10c8:	f004 f9f6 	bl	54b8 <plat_scmi_protocol_list>
    10cc:	4606      	mov	r6, r0
    10ce:	bb08      	cbnz	r0, 1114 <discover_list_protocols+0x90>
    10d0:	4604      	mov	r4, r0
    10d2:	f8d8 3000 	ldr.w	r3, [r8]
    10d6:	42a3      	cmp	r3, r4
    10d8:	d220      	bcs.n	111c <discover_list_protocols+0x98>
    10da:	1ae4      	subs	r4, r4, r3
    10dc:	2c08      	cmp	r4, #8
    10de:	bf28      	it	cs
    10e0:	2408      	movcs	r4, #8
    10e2:	9401      	str	r4, [sp, #4]
    10e4:	2208      	movs	r2, #8
    10e6:	4639      	mov	r1, r7
    10e8:	eb0d 0702 	add.w	r7, sp, r2
    10ec:	4638      	mov	r0, r7
    10ee:	f00e feed 	bl	fecc <memcpy>
    10f2:	f8d8 1000 	ldr.w	r1, [r8]
    10f6:	4622      	mov	r2, r4
    10f8:	a804      	add	r0, sp, #16
    10fa:	3c01      	subs	r4, #1
    10fc:	4431      	add	r1, r6
    10fe:	f00e fee5 	bl	fecc <memcpy>
    1102:	f044 0203 	orr.w	r2, r4, #3
    1106:	4639      	mov	r1, r7
    1108:	3209      	adds	r2, #9
    110a:	4628      	mov	r0, r5
    110c:	f000 f942 	bl	1394 <scmi_write_response>
    1110:	e7cc      	b.n	10ac <discover_list_protocols+0x28>
    1112:	3401      	adds	r4, #1
    1114:	5d33      	ldrb	r3, [r6, r4]
    1116:	2b00      	cmp	r3, #0
    1118:	d1fb      	bne.n	1112 <discover_list_protocols+0x8e>
    111a:	e7da      	b.n	10d2 <discover_list_protocols+0x4e>
    111c:	2400      	movs	r4, #0
    111e:	e7e0      	b.n	10e2 <discover_list_protocols+0x5e>
    1120:	0000f93e 	.word	0x0000f93e

00001124 <report_message_attributes>:
    1124:	b507      	push	{r0, r1, r2, lr}
    1126:	2200      	movs	r2, #0
    1128:	e9cd 2200 	strd	r2, r2, [sp]
    112c:	6902      	ldr	r2, [r0, #16]
    112e:	4603      	mov	r3, r0
    1130:	68c1      	ldr	r1, [r0, #12]
    1132:	2a04      	cmp	r2, #4
    1134:	d004      	beq.n	1140 <report_message_attributes+0x1c>
    1136:	f06f 0109 	mvn.w	r1, #9
    113a:	f000 f913 	bl	1364 <scmi_status_response>
    113e:	e00b      	b.n	1158 <report_message_attributes+0x34>
    1140:	680a      	ldr	r2, [r1, #0]
    1142:	2a06      	cmp	r2, #6
    1144:	d80b      	bhi.n	115e <report_message_attributes+0x3a>
    1146:	4908      	ldr	r1, [pc, #32]	; (1168 <report_message_attributes+0x44>)
    1148:	4479      	add	r1, pc
    114a:	f851 2022 	ldr.w	r2, [r1, r2, lsl #2]
    114e:	b132      	cbz	r2, 115e <report_message_attributes+0x3a>
    1150:	2208      	movs	r2, #8
    1152:	4669      	mov	r1, sp
    1154:	f000 f91e 	bl	1394 <scmi_write_response>
    1158:	b003      	add	sp, #12
    115a:	f85d fb04 	ldr.w	pc, [sp], #4
    115e:	f06f 0103 	mvn.w	r1, #3
    1162:	4618      	mov	r0, r3
    1164:	e7e9      	b.n	113a <report_message_attributes+0x16>
    1166:	bf00      	nop
    1168:	00011f08 	.word	0x00011f08

0000116c <discover_sub_vendor>:
    116c:	b570      	push	{r4, r5, r6, lr}
    116e:	b086      	sub	sp, #24
    1170:	4604      	mov	r4, r0
    1172:	ae01      	add	r6, sp, #4
    1174:	f004 f99a 	bl	54ac <plat_scmi_sub_vendor_name>
    1178:	4605      	mov	r5, r0
    117a:	2214      	movs	r2, #20
    117c:	2100      	movs	r1, #0
    117e:	4630      	mov	r0, r6
    1180:	f00e fec5 	bl	ff0e <memset>
    1184:	6923      	ldr	r3, [r4, #16]
    1186:	b133      	cbz	r3, 1196 <discover_sub_vendor+0x2a>
    1188:	f06f 0109 	mvn.w	r1, #9
    118c:	4620      	mov	r0, r4
    118e:	f000 f8e9 	bl	1364 <scmi_status_response>
    1192:	b006      	add	sp, #24
    1194:	bd70      	pop	{r4, r5, r6, pc}
    1196:	4628      	mov	r0, r5
    1198:	f00e ffd1 	bl	1013e <strlen>
    119c:	280f      	cmp	r0, #15
    119e:	d904      	bls.n	11aa <discover_sub_vendor+0x3e>
    11a0:	4807      	ldr	r0, [pc, #28]	; (11c0 <discover_sub_vendor+0x54>)
    11a2:	2165      	movs	r1, #101	; 0x65
    11a4:	4478      	add	r0, pc
    11a6:	f00c f853 	bl	d250 <__assert>
    11aa:	4629      	mov	r1, r5
    11ac:	2210      	movs	r2, #16
    11ae:	a802      	add	r0, sp, #8
    11b0:	f00e ffaa 	bl	10108 <strlcpy>
    11b4:	2214      	movs	r2, #20
    11b6:	4631      	mov	r1, r6
    11b8:	4620      	mov	r0, r4
    11ba:	f000 f8eb 	bl	1394 <scmi_write_response>
    11be:	e7e8      	b.n	1192 <discover_sub_vendor+0x26>
    11c0:	0000f856 	.word	0x0000f856

000011c4 <discover_vendor>:
    11c4:	b570      	push	{r4, r5, r6, lr}
    11c6:	b086      	sub	sp, #24
    11c8:	4604      	mov	r4, r0
    11ca:	ae01      	add	r6, sp, #4
    11cc:	f004 f968 	bl	54a0 <plat_scmi_vendor_name>
    11d0:	4605      	mov	r5, r0
    11d2:	2214      	movs	r2, #20
    11d4:	2100      	movs	r1, #0
    11d6:	4630      	mov	r0, r6
    11d8:	f00e fe99 	bl	ff0e <memset>
    11dc:	6923      	ldr	r3, [r4, #16]
    11de:	b133      	cbz	r3, 11ee <discover_vendor+0x2a>
    11e0:	f06f 0109 	mvn.w	r1, #9
    11e4:	4620      	mov	r0, r4
    11e6:	f000 f8bd 	bl	1364 <scmi_status_response>
    11ea:	b006      	add	sp, #24
    11ec:	bd70      	pop	{r4, r5, r6, pc}
    11ee:	4628      	mov	r0, r5
    11f0:	f00e ffa5 	bl	1013e <strlen>
    11f4:	280f      	cmp	r0, #15
    11f6:	d904      	bls.n	1202 <discover_vendor+0x3e>
    11f8:	4807      	ldr	r0, [pc, #28]	; (1218 <discover_vendor+0x54>)
    11fa:	2154      	movs	r1, #84	; 0x54
    11fc:	4478      	add	r0, pc
    11fe:	f00c f827 	bl	d250 <__assert>
    1202:	4629      	mov	r1, r5
    1204:	2210      	movs	r2, #16
    1206:	a802      	add	r0, sp, #8
    1208:	f00e ff7e 	bl	10108 <strlcpy>
    120c:	2214      	movs	r2, #20
    120e:	4631      	mov	r1, r6
    1210:	4620      	mov	r0, r4
    1212:	f000 f8bf 	bl	1394 <scmi_write_response>
    1216:	e7e8      	b.n	11ea <discover_vendor+0x26>
    1218:	0000f7fe 	.word	0x0000f7fe

0000121c <scmi_msg_get_base_handler>:
    121c:	6883      	ldr	r3, [r0, #8]
    121e:	f3bf 8f6f 	isb	sy
    1222:	f3bf 8f4f 	dsb	sy
    1226:	2b06      	cmp	r3, #6
    1228:	d804      	bhi.n	1234 <scmi_msg_get_base_handler+0x18>
    122a:	4a03      	ldr	r2, [pc, #12]	; (1238 <scmi_msg_get_base_handler+0x1c>)
    122c:	447a      	add	r2, pc
    122e:	f852 0023 	ldr.w	r0, [r2, r3, lsl #2]
    1232:	4770      	bx	lr
    1234:	2000      	movs	r0, #0
    1236:	4770      	bx	lr
    1238:	00011e24 	.word	0x00011e24

0000123c <report_message_attributes>:
    123c:	b507      	push	{r0, r1, r2, lr}
    123e:	2200      	movs	r2, #0
    1240:	e9cd 2200 	strd	r2, r2, [sp]
    1244:	6902      	ldr	r2, [r0, #16]
    1246:	4603      	mov	r3, r0
    1248:	68c1      	ldr	r1, [r0, #12]
    124a:	2a04      	cmp	r2, #4
    124c:	d004      	beq.n	1258 <report_message_attributes+0x1c>
    124e:	f06f 0109 	mvn.w	r1, #9
    1252:	f000 f887 	bl	1364 <scmi_status_response>
    1256:	e00b      	b.n	1270 <report_message_attributes+0x34>
    1258:	680a      	ldr	r2, [r1, #0]
    125a:	2a09      	cmp	r2, #9
    125c:	d80b      	bhi.n	1276 <report_message_attributes+0x3a>
    125e:	4908      	ldr	r1, [pc, #32]	; (1280 <report_message_attributes+0x44>)
    1260:	4479      	add	r1, pc
    1262:	f851 2022 	ldr.w	r2, [r1, r2, lsl #2]
    1266:	b132      	cbz	r2, 1276 <report_message_attributes+0x3a>
    1268:	2208      	movs	r2, #8
    126a:	4669      	mov	r1, sp
    126c:	f000 f892 	bl	1394 <scmi_write_response>
    1270:	b003      	add	sp, #12
    1272:	f85d fb04 	ldr.w	pc, [sp], #4
    1276:	f06f 0103 	mvn.w	r1, #3
    127a:	4618      	mov	r0, r3
    127c:	e7e9      	b.n	1252 <report_message_attributes+0x16>
    127e:	bf00      	nop
    1280:	00011e0c 	.word	0x00011e0c

00001284 <write_rate_desc_array_in_buffer>:
    1284:	f010 0303 	ands.w	r3, r0, #3
    1288:	b570      	push	{r4, r5, r6, lr}
    128a:	d104      	bne.n	1296 <write_rate_desc_array_in_buffer+0x12>
    128c:	1d04      	adds	r4, r0, #4
    128e:	461d      	mov	r5, r3
    1290:	4293      	cmp	r3, r2
    1292:	d106      	bne.n	12a2 <write_rate_desc_array_in_buffer+0x1e>
    1294:	bd70      	pop	{r4, r5, r6, pc}
    1296:	4807      	ldr	r0, [pc, #28]	; (12b4 <write_rate_desc_array_in_buffer+0x30>)
    1298:	f240 1157 	movw	r1, #343	; 0x157
    129c:	4478      	add	r0, pc
    129e:	f00b ffd7 	bl	d250 <__assert>
    12a2:	f851 6023 	ldr.w	r6, [r1, r3, lsl #2]
    12a6:	f840 6033 	str.w	r6, [r0, r3, lsl #3]
    12aa:	f844 5033 	str.w	r5, [r4, r3, lsl #3]
    12ae:	3301      	adds	r3, #1
    12b0:	e7ee      	b.n	1290 <write_rate_desc_array_in_buffer+0xc>
    12b2:	bf00      	nop
    12b4:	0000f776 	.word	0x0000f776

000012b8 <scmi_clock_attributes>:
    12b8:	b5f0      	push	{r4, r5, r6, r7, lr}
    12ba:	b087      	sub	sp, #28
    12bc:	68c5      	ldr	r5, [r0, #12]
    12be:	4604      	mov	r4, r0
    12c0:	466f      	mov	r7, sp
    12c2:	2218      	movs	r2, #24
    12c4:	2100      	movs	r1, #0
    12c6:	4638      	mov	r0, r7
    12c8:	f00e fe21 	bl	ff0e <memset>
    12cc:	6923      	ldr	r3, [r4, #16]
    12ce:	2b04      	cmp	r3, #4
    12d0:	d006      	beq.n	12e0 <scmi_clock_attributes+0x28>
    12d2:	f06f 0109 	mvn.w	r1, #9
    12d6:	4620      	mov	r0, r4
    12d8:	f000 f844 	bl	1364 <scmi_status_response>
    12dc:	b007      	add	sp, #28
    12de:	bdf0      	pop	{r4, r5, r6, r7, pc}
    12e0:	682e      	ldr	r6, [r5, #0]
    12e2:	f3bf 8f6f 	isb	sy
    12e6:	f3bf 8f4f 	dsb	sy
    12ea:	6820      	ldr	r0, [r4, #0]
    12ec:	f004 f8ea 	bl	54c4 <plat_scmi_clock_count>
    12f0:	42b0      	cmp	r0, r6
    12f2:	d802      	bhi.n	12fa <scmi_clock_attributes+0x42>
    12f4:	f06f 0101 	mvn.w	r1, #1
    12f8:	e7ed      	b.n	12d6 <scmi_clock_attributes+0x1e>
    12fa:	6820      	ldr	r0, [r4, #0]
    12fc:	4631      	mov	r1, r6
    12fe:	f00c ff11 	bl	e124 <plat_scmi_clock_get_name>
    1302:	4605      	mov	r5, r0
    1304:	b910      	cbnz	r0, 130c <scmi_clock_attributes+0x54>
    1306:	f06f 0103 	mvn.w	r1, #3
    130a:	e7e4      	b.n	12d6 <scmi_clock_attributes+0x1e>
    130c:	f00e ff17 	bl	1013e <strlen>
    1310:	280f      	cmp	r0, #15
    1312:	d904      	bls.n	131e <scmi_clock_attributes+0x66>
    1314:	480a      	ldr	r0, [pc, #40]	; (1340 <scmi_clock_attributes+0x88>)
    1316:	21b0      	movs	r1, #176	; 0xb0
    1318:	4478      	add	r0, pc
    131a:	f00b ff99 	bl	d250 <__assert>
    131e:	2210      	movs	r2, #16
    1320:	4629      	mov	r1, r5
    1322:	a802      	add	r0, sp, #8
    1324:	f00e fef0 	bl	10108 <strlcpy>
    1328:	6820      	ldr	r0, [r4, #0]
    132a:	4631      	mov	r1, r6
    132c:	f00c ff61 	bl	e1f2 <plat_scmi_clock_get_state>
    1330:	9001      	str	r0, [sp, #4]
    1332:	2218      	movs	r2, #24
    1334:	4639      	mov	r1, r7
    1336:	4620      	mov	r0, r4
    1338:	f000 f82c 	bl	1394 <scmi_write_response>
    133c:	e7ce      	b.n	12dc <scmi_clock_attributes+0x24>
    133e:	bf00      	nop
    1340:	0000f6fa 	.word	0x0000f6fa

00001344 <scmi_msg_get_clock_handler>:
    1344:	6883      	ldr	r3, [r0, #8]
    1346:	f3bf 8f6f 	isb	sy
    134a:	f3bf 8f4f 	dsb	sy
    134e:	2b09      	cmp	r3, #9
    1350:	d804      	bhi.n	135c <scmi_msg_get_clock_handler+0x18>
    1352:	4a03      	ldr	r2, [pc, #12]	; (1360 <scmi_msg_get_clock_handler+0x1c>)
    1354:	447a      	add	r2, pc
    1356:	f852 0023 	ldr.w	r0, [r2, r3, lsl #2]
    135a:	4770      	bx	lr
    135c:	2000      	movs	r0, #0
    135e:	4770      	bx	lr
    1360:	00011d18 	.word	0x00011d18

00001364 <scmi_status_response>:
    1364:	b513      	push	{r0, r1, r4, lr}
    1366:	4604      	mov	r4, r0
    1368:	6940      	ldr	r0, [r0, #20]
    136a:	9101      	str	r1, [sp, #4]
    136c:	b110      	cbz	r0, 1374 <scmi_status_response+0x10>
    136e:	69a3      	ldr	r3, [r4, #24]
    1370:	2b03      	cmp	r3, #3
    1372:	d804      	bhi.n	137e <scmi_status_response+0x1a>
    1374:	4806      	ldr	r0, [pc, #24]	; (1390 <scmi_status_response+0x2c>)
    1376:	2129      	movs	r1, #41	; 0x29
    1378:	4478      	add	r0, pc
    137a:	f00b ff69 	bl	d250 <__assert>
    137e:	2204      	movs	r2, #4
    1380:	eb0d 0102 	add.w	r1, sp, r2
    1384:	f00e fda2 	bl	fecc <memcpy>
    1388:	2304      	movs	r3, #4
    138a:	61e3      	str	r3, [r4, #28]
    138c:	b002      	add	sp, #8
    138e:	bd10      	pop	{r4, pc}
    1390:	0000f6b3 	.word	0x0000f6b3

00001394 <scmi_write_response>:
    1394:	b538      	push	{r3, r4, r5, lr}
    1396:	4604      	mov	r4, r0
    1398:	4615      	mov	r5, r2
    139a:	b131      	cbz	r1, 13aa <scmi_write_response+0x16>
    139c:	2a03      	cmp	r2, #3
    139e:	d904      	bls.n	13aa <scmi_write_response+0x16>
    13a0:	6983      	ldr	r3, [r0, #24]
    13a2:	4293      	cmp	r3, r2
    13a4:	d301      	bcc.n	13aa <scmi_write_response+0x16>
    13a6:	6940      	ldr	r0, [r0, #20]
    13a8:	b920      	cbnz	r0, 13b4 <scmi_write_response+0x20>
    13aa:	4804      	ldr	r0, [pc, #16]	; (13bc <scmi_write_response+0x28>)
    13ac:	2136      	movs	r1, #54	; 0x36
    13ae:	4478      	add	r0, pc
    13b0:	f00b ff4e 	bl	d250 <__assert>
    13b4:	f00e fd8a 	bl	fecc <memcpy>
    13b8:	61e5      	str	r5, [r4, #28]
    13ba:	bd38      	pop	{r3, r4, r5, pc}
    13bc:	0000f67d 	.word	0x0000f67d

000013c0 <scmi_process_message>:
    13c0:	6843      	ldr	r3, [r0, #4]
    13c2:	b510      	push	{r4, lr}
    13c4:	3b10      	subs	r3, #16
    13c6:	4604      	mov	r4, r0
    13c8:	2b06      	cmp	r3, #6
    13ca:	d816      	bhi.n	13fa <scmi_process_message+0x3a>
    13cc:	e8df f003 	tbb	[pc, r3]
    13d0:	15151204 	.word	0x15151204
    13d4:	150c      	.short	0x150c
    13d6:	0f          	.byte	0x0f
    13d7:	00          	.byte	0x00
    13d8:	f7ff ff20 	bl	121c <scmi_msg_get_base_handler>
    13dc:	4603      	mov	r3, r0
    13de:	b160      	cbz	r0, 13fa <scmi_process_message+0x3a>
    13e0:	4620      	mov	r0, r4
    13e2:	e8bd 4010 	ldmia.w	sp!, {r4, lr}
    13e6:	4718      	bx	r3
    13e8:	f7ff ffac 	bl	1344 <scmi_msg_get_clock_handler>
    13ec:	e7f6      	b.n	13dc <scmi_process_message+0x1c>
    13ee:	f000 f881 	bl	14f4 <scmi_msg_get_rstd_handler>
    13f2:	e7f3      	b.n	13dc <scmi_process_message+0x1c>
    13f4:	f00c fb91 	bl	db1a <scmi_msg_get_pd_handler>
    13f8:	e7f0      	b.n	13dc <scmi_process_message+0x1c>
    13fa:	4806      	ldr	r0, [pc, #24]	; (1414 <scmi_process_message+0x54>)
    13fc:	e894 000e 	ldmia.w	r4, {r1, r2, r3}
    1400:	4478      	add	r0, pc
    1402:	f004 fd95 	bl	5f30 <tf_log>
    1406:	4620      	mov	r0, r4
    1408:	f04f 31ff 	mov.w	r1, #4294967295	; 0xffffffff
    140c:	e8bd 4010 	ldmia.w	sp!, {r4, lr}
    1410:	f7ff bfa8 	b.w	1364 <scmi_status_response>
    1414:	0000f644 	.word	0x0000f644

00001418 <report_message_attributes>:
    1418:	b507      	push	{r0, r1, r2, lr}
    141a:	2200      	movs	r2, #0
    141c:	e9cd 2200 	strd	r2, r2, [sp]
    1420:	6902      	ldr	r2, [r0, #16]
    1422:	4603      	mov	r3, r0
    1424:	68c1      	ldr	r1, [r0, #12]
    1426:	2a04      	cmp	r2, #4
    1428:	d004      	beq.n	1434 <report_message_attributes+0x1c>
    142a:	f06f 0109 	mvn.w	r1, #9
    142e:	f7ff ff99 	bl	1364 <scmi_status_response>
    1432:	e00b      	b.n	144c <report_message_attributes+0x34>
    1434:	680a      	ldr	r2, [r1, #0]
    1436:	2a04      	cmp	r2, #4
    1438:	d80b      	bhi.n	1452 <report_message_attributes+0x3a>
    143a:	4908      	ldr	r1, [pc, #32]	; (145c <report_message_attributes+0x44>)
    143c:	4479      	add	r1, pc
    143e:	f851 2022 	ldr.w	r2, [r1, r2, lsl #2]
    1442:	b132      	cbz	r2, 1452 <report_message_attributes+0x3a>
    1444:	2208      	movs	r2, #8
    1446:	4669      	mov	r1, sp
    1448:	f7ff ffa4 	bl	1394 <scmi_write_response>
    144c:	b003      	add	sp, #12
    144e:	f85d fb04 	ldr.w	pc, [sp], #4
    1452:	f06f 0103 	mvn.w	r1, #3
    1456:	4618      	mov	r0, r3
    1458:	e7e9      	b.n	142e <report_message_attributes+0x16>
    145a:	bf00      	nop
    145c:	00011c58 	.word	0x00011c58

00001460 <reset_domain_attributes>:
    1460:	6902      	ldr	r2, [r0, #16]
    1462:	b570      	push	{r4, r5, r6, lr}
    1464:	2a04      	cmp	r2, #4
    1466:	68c3      	ldr	r3, [r0, #12]
    1468:	b088      	sub	sp, #32
    146a:	4604      	mov	r4, r0
    146c:	d006      	beq.n	147c <reset_domain_attributes+0x1c>
    146e:	f06f 0109 	mvn.w	r1, #9
    1472:	b008      	add	sp, #32
    1474:	e8bd 4070 	ldmia.w	sp!, {r4, r5, r6, lr}
    1478:	f7ff bf74 	b.w	1364 <scmi_status_response>
    147c:	681d      	ldr	r5, [r3, #0]
    147e:	f3bf 8f6f 	isb	sy
    1482:	f3bf 8f4f 	dsb	sy
    1486:	6800      	ldr	r0, [r0, #0]
    1488:	f004 f82a 	bl	54e0 <plat_scmi_rstd_count>
    148c:	42a8      	cmp	r0, r5
    148e:	d803      	bhi.n	1498 <reset_domain_attributes+0x38>
    1490:	f06f 0101 	mvn.w	r1, #1
    1494:	4620      	mov	r0, r4
    1496:	e7ec      	b.n	1472 <reset_domain_attributes+0x12>
    1498:	6820      	ldr	r0, [r4, #0]
    149a:	4629      	mov	r1, r5
    149c:	f00c fed9 	bl	e252 <plat_scmi_rstd_get_name>
    14a0:	4605      	mov	r5, r0
    14a2:	b910      	cbnz	r0, 14aa <reset_domain_attributes+0x4a>
    14a4:	f06f 0103 	mvn.w	r1, #3
    14a8:	e7f4      	b.n	1494 <reset_domain_attributes+0x34>
    14aa:	ae01      	add	r6, sp, #4
    14ac:	211c      	movs	r1, #28
    14ae:	4630      	mov	r0, r6
    14b0:	f00b e908 	blx	c6c4 <zero_normalmem>
    14b4:	4628      	mov	r0, r5
    14b6:	f00e fe42 	bl	1013e <strlen>
    14ba:	280f      	cmp	r0, #15
    14bc:	d904      	bls.n	14c8 <reset_domain_attributes+0x68>
    14be:	480c      	ldr	r0, [pc, #48]	; (14f0 <reset_domain_attributes+0x90>)
    14c0:	217e      	movs	r1, #126	; 0x7e
    14c2:	4478      	add	r0, pc
    14c4:	f00b fec4 	bl	d250 <__assert>
    14c8:	2210      	movs	r2, #16
    14ca:	4629      	mov	r1, r5
    14cc:	eb0d 0002 	add.w	r0, sp, r2
    14d0:	f00e fe1a 	bl	10108 <strlcpy>
    14d4:	2300      	movs	r3, #0
    14d6:	221c      	movs	r2, #28
    14d8:	9301      	str	r3, [sp, #4]
    14da:	4631      	mov	r1, r6
    14dc:	9302      	str	r3, [sp, #8]
    14de:	4620      	mov	r0, r4
    14e0:	f06f 4300 	mvn.w	r3, #2147483648	; 0x80000000
    14e4:	9303      	str	r3, [sp, #12]
    14e6:	f7ff ff55 	bl	1394 <scmi_write_response>
    14ea:	b008      	add	sp, #32
    14ec:	bd70      	pop	{r4, r5, r6, pc}
    14ee:	bf00      	nop
    14f0:	0000f5b6 	.word	0x0000f5b6

000014f4 <scmi_msg_get_rstd_handler>:
    14f4:	6883      	ldr	r3, [r0, #8]
    14f6:	f3bf 8f6f 	isb	sy
    14fa:	f3bf 8f4f 	dsb	sy
    14fe:	2b04      	cmp	r3, #4
    1500:	d804      	bhi.n	150c <scmi_msg_get_rstd_handler+0x18>
    1502:	4a03      	ldr	r2, [pc, #12]	; (1510 <scmi_msg_get_rstd_handler+0x1c>)
    1504:	447a      	add	r2, pc
    1506:	f852 0023 	ldr.w	r0, [r2, r3, lsl #2]
    150a:	4770      	bx	lr
    150c:	2000      	movs	r0, #0
    150e:	4770      	bx	lr
    1510:	00011b90 	.word	0x00011b90

00001514 <scmi_proccess_smt>:
    1514:	e92d 47f0 	stmdb	sp!, {r4, r5, r6, r7, r8, r9, sl, lr}
    1518:	b088      	sub	sp, #32
    151a:	4681      	mov	r9, r0
    151c:	460f      	mov	r7, r1
    151e:	f003 ffad 	bl	547c <plat_scmi_get_channel>
    1522:	4605      	mov	r5, r0
    1524:	2800      	cmp	r0, #0
    1526:	d04c      	beq.n	15c2 <__BSS_SIZE__+0x62>
    1528:	6804      	ldr	r4, [r0, #0]
    152a:	b924      	cbnz	r4, 1536 <scmi_proccess_smt+0x22>
    152c:	4828      	ldr	r0, [pc, #160]	; (15d0 <__BSS_SIZE__+0x70>)
    152e:	217b      	movs	r1, #123	; 0x7b
    1530:	4478      	add	r0, pc
    1532:	f00b fe8d 	bl	d250 <__assert>
    1536:	4827      	ldr	r0, [pc, #156]	; (15d4 <__BSS_SIZE__+0x74>)
    1538:	f8d4 a004 	ldr.w	sl, [r4, #4]
    153c:	4478      	add	r0, pc
    153e:	f00a eee6 	blx	c30c <spin_lock>
    1542:	f895 8008 	ldrb.w	r8, [r5, #8]
    1546:	f1b8 0f00 	cmp.w	r8, #0
    154a:	d101      	bne.n	1550 <scmi_proccess_smt+0x3c>
    154c:	2301      	movs	r3, #1
    154e:	722b      	strb	r3, [r5, #8]
    1550:	4821      	ldr	r0, [pc, #132]	; (15d8 <__BSS_SIZE__+0x78>)
    1552:	4478      	add	r0, pc
    1554:	f00a eeec 	blx	c330 <spin_unlock>
    1558:	f1b8 0f00 	cmp.w	r8, #0
    155c:	d134      	bne.n	15c8 <__BSS_SIZE__+0x68>
    155e:	6966      	ldr	r6, [r4, #20]
    1560:	3e04      	subs	r6, #4
    1562:	2e5c      	cmp	r6, #92	; 0x5c
    1564:	d830      	bhi.n	15c8 <__BSS_SIZE__+0x68>
    1566:	f01a 0f03 	tst.w	sl, #3
    156a:	d12d      	bne.n	15c8 <__BSS_SIZE__+0x68>
    156c:	46ea      	mov	sl, sp
    156e:	2120      	movs	r1, #32
    1570:	4650      	mov	r0, sl
    1572:	f00b e8a8 	blx	c6c4 <zero_normalmem>
    1576:	686b      	ldr	r3, [r5, #4]
    1578:	f104 011c 	add.w	r1, r4, #28
    157c:	9703      	str	r7, [sp, #12]
    157e:	9604      	str	r6, [sp, #16]
    1580:	3b20      	subs	r3, #32
    1582:	9105      	str	r1, [sp, #20]
    1584:	2b03      	cmp	r3, #3
    1586:	9306      	str	r3, [sp, #24]
    1588:	d803      	bhi.n	1592 <__BSS_SIZE__+0x32>
    158a:	4814      	ldr	r0, [pc, #80]	; (15dc <__BSS_SIZE__+0x7c>)
    158c:	2199      	movs	r1, #153	; 0x99
    158e:	4478      	add	r0, pc
    1590:	e7cf      	b.n	1532 <scmi_proccess_smt+0x1e>
    1592:	4632      	mov	r2, r6
    1594:	4638      	mov	r0, r7
    1596:	f00e fc99 	bl	fecc <memcpy>
    159a:	69a3      	ldr	r3, [r4, #24]
    159c:	4650      	mov	r0, sl
    159e:	f8cd 9000 	str.w	r9, [sp]
    15a2:	f3c3 2287 	ubfx	r2, r3, #10, #8
    15a6:	b2db      	uxtb	r3, r3
    15a8:	9302      	str	r3, [sp, #8]
    15aa:	9201      	str	r2, [sp, #4]
    15ac:	f7ff ff08 	bl	13c0 <scmi_process_message>
    15b0:	9b07      	ldr	r3, [sp, #28]
    15b2:	3304      	adds	r3, #4
    15b4:	6163      	str	r3, [r4, #20]
    15b6:	6863      	ldr	r3, [r4, #4]
    15b8:	f885 8008 	strb.w	r8, [r5, #8]
    15bc:	f043 0301 	orr.w	r3, r3, #1
    15c0:	6063      	str	r3, [r4, #4]
    15c2:	b008      	add	sp, #32
    15c4:	e8bd 87f0 	ldmia.w	sp!, {r4, r5, r6, r7, r8, r9, sl, pc}
    15c8:	6863      	ldr	r3, [r4, #4]
    15ca:	f043 0303 	orr.w	r3, r3, #3
    15ce:	e7f7      	b.n	15c0 <__BSS_SIZE__+0x60>
    15d0:	0000f568 	.word	0x0000f568
    15d4:	000142d0 	.word	0x000142d0
    15d8:	000142ba 	.word	0x000142ba
    15dc:	0000f50a 	.word	0x0000f50a

000015e0 <scmi_smt_fastcall_smc_entry>:
    15e0:	b510      	push	{r4, lr}
    15e2:	4604      	mov	r4, r0
    15e4:	f00b eb6a 	blx	ccbc <plat_my_core_pos>
    15e8:	4b04      	ldr	r3, [pc, #16]	; (15fc <scmi_smt_fastcall_smc_entry+0x1c>)
    15ea:	215c      	movs	r1, #92	; 0x5c
    15ec:	447b      	add	r3, pc
    15ee:	fb01 3100 	mla	r1, r1, r0, r3
    15f2:	4620      	mov	r0, r4
    15f4:	e8bd 4010 	ldmia.w	sp!, {r4, lr}
    15f8:	f7ff bf8c 	b.w	1514 <scmi_proccess_smt>
    15fc:	00014168 	.word	0x00014168

00001600 <csi_get_trimed_cal>:
    1600:	b508      	push	{r3, lr}
    1602:	f00c ff99 	bl	e538 <stm32mp_rcc_base>
    1606:	4b05      	ldr	r3, [pc, #20]	; (161c <csi_get_trimed_cal+0x1c>)
    1608:	69c0      	ldr	r0, [r0, #28]
    160a:	447b      	add	r3, pc
    160c:	f3c0 2004 	ubfx	r0, r0, #8, #5
    1610:	689a      	ldr	r2, [r3, #8]
    1612:	685b      	ldr	r3, [r3, #4]
    1614:	1a80      	subs	r0, r0, r2
    1616:	4418      	add	r0, r3
    1618:	3801      	subs	r0, #1
    161a:	bd08      	pop	{r3, pc}
    161c:	00011a9e 	.word	0x00011a9e

00001620 <csi_set_trim>:
    1620:	4b09      	ldr	r3, [pc, #36]	; (1648 <csi_set_trim+0x28>)
    1622:	b510      	push	{r4, lr}
    1624:	447b      	add	r3, pc
    1626:	685a      	ldr	r2, [r3, #4]
    1628:	689b      	ldr	r3, [r3, #8]
    162a:	1a84      	subs	r4, r0, r2
    162c:	441c      	add	r4, r3
    162e:	f00c ff83 	bl	e538 <stm32mp_rcc_base>
    1632:	69c3      	ldr	r3, [r0, #28]
    1634:	3401      	adds	r4, #1
    1636:	0224      	lsls	r4, r4, #8
    1638:	f423 53f8 	bic.w	r3, r3, #7936	; 0x1f00
    163c:	f404 54f8 	and.w	r4, r4, #7936	; 0x1f00
    1640:	4323      	orrs	r3, r4
    1642:	61c3      	str	r3, [r0, #28]
    1644:	bd10      	pop	{r4, pc}
    1646:	bf00      	nop
    1648:	00011a84 	.word	0x00011a84

0000164c <hsi_get_trimed_cal>:
    164c:	b508      	push	{r3, lr}
    164e:	f00c ff73 	bl	e538 <stm32mp_rcc_base>
    1652:	4a05      	ldr	r2, [pc, #20]	; (1668 <hsi_get_trimed_cal+0x1c>)
    1654:	6983      	ldr	r3, [r0, #24]
    1656:	447a      	add	r2, pc
    1658:	f343 2306 	sbfx	r3, r3, #8, #7
    165c:	6850      	ldr	r0, [r2, #4]
    165e:	4418      	add	r0, r3
    1660:	ea20 70e0 	bic.w	r0, r0, r0, asr #31
    1664:	bd08      	pop	{r3, pc}
    1666:	bf00      	nop
    1668:	00011afa 	.word	0x00011afa

0000166c <hsi_set_trim>:
    166c:	4b07      	ldr	r3, [pc, #28]	; (168c <hsi_set_trim+0x20>)
    166e:	b510      	push	{r4, lr}
    1670:	447b      	add	r3, pc
    1672:	685c      	ldr	r4, [r3, #4]
    1674:	1b04      	subs	r4, r0, r4
    1676:	f00c ff5f 	bl	e538 <stm32mp_rcc_base>
    167a:	6983      	ldr	r3, [r0, #24]
    167c:	0224      	lsls	r4, r4, #8
    167e:	f423 43fe 	bic.w	r3, r3, #32512	; 0x7f00
    1682:	f404 44fe 	and.w	r4, r4, #32512	; 0x7f00
    1686:	4323      	orrs	r3, r4
    1688:	6183      	str	r3, [r0, #24]
    168a:	bd10      	pop	{r4, pc}
    168c:	00011ae0 	.word	0x00011ae0

00001690 <rcc_calibration>:
    1690:	e92d 4ff7 	stmdb	sp!, {r0, r1, r2, r4, r5, r6, r7, r8, r9, sl, fp, lr}
    1694:	4604      	mov	r4, r0
    1696:	69c3      	ldr	r3, [r0, #28]
    1698:	4798      	blx	r3
    169a:	6967      	ldr	r7, [r4, #20]
    169c:	f44f 727a 	mov.w	r2, #1000	; 0x3e8
    16a0:	69a3      	ldr	r3, [r4, #24]
    16a2:	4606      	mov	r6, r0
    16a4:	437b      	muls	r3, r7
    16a6:	fbb3 f3f2 	udiv	r3, r3, r2
    16aa:	eba7 0a03 	sub.w	sl, r7, r3
    16ae:	4550      	cmp	r0, sl
    16b0:	441f      	add	r7, r3
    16b2:	d301      	bcc.n	16b8 <rcc_calibration+0x28>
    16b4:	42b8      	cmp	r0, r7
    16b6:	d929      	bls.n	170c <rcc_calibration+0x7c>
    16b8:	6a63      	ldr	r3, [r4, #36]	; 0x24
    16ba:	4798      	blx	r3
    16bc:	4605      	mov	r5, r0
    16be:	ee1e 1f10 	mrc	15, 0, r1, cr14, cr0, {0}
    16c2:	ec53 2f0e 	mrrc	15, 0, r2, r3, cr14
    16c6:	f242 7010 	movw	r0, #10000	; 0x2710
    16ca:	f04f 39ff 	mov.w	r9, #4294967295	; 0xffffffff
    16ce:	e9cd 2300 	strd	r2, r3, [sp]
    16d2:	f8dd 8000 	ldr.w	r8, [sp]
    16d6:	2300      	movs	r3, #0
    16d8:	4a4e      	ldr	r2, [pc, #312]	; (1814 <rcc_calibration+0x184>)
    16da:	fba1 0100 	umull	r0, r1, r1, r0
    16de:	f00b e8b0 	blx	c840 <__aeabi_uldivmod>
    16e2:	9b01      	ldr	r3, [sp, #4]
    16e4:	eb10 0808 	adds.w	r8, r0, r8
    16e8:	eb41 0b03 	adc.w	fp, r1, r3
    16ec:	6963      	ldr	r3, [r4, #20]
    16ee:	42b3      	cmp	r3, r6
    16f0:	d90f      	bls.n	1712 <rcc_calibration+0x82>
    16f2:	4629      	mov	r1, r5
    16f4:	4620      	mov	r0, r4
    16f6:	f00c fa84 	bl	dc02 <trim_increase>
    16fa:	6a22      	ldr	r2, [r4, #32]
    16fc:	9000      	str	r0, [sp, #0]
    16fe:	4790      	blx	r2
    1700:	69e2      	ldr	r2, [r4, #28]
    1702:	4790      	blx	r2
    1704:	9b00      	ldr	r3, [sp, #0]
    1706:	4606      	mov	r6, r0
    1708:	b9a8      	cbnz	r0, 1736 <rcc_calibration+0xa6>
    170a:	6160      	str	r0, [r4, #20]
    170c:	b003      	add	sp, #12
    170e:	e8bd 8ff0 	ldmia.w	sp!, {r4, r5, r6, r7, r8, r9, sl, fp, pc}
    1712:	6926      	ldr	r6, [r4, #16]
    1714:	4623      	mov	r3, r4
    1716:	2200      	movs	r2, #0
    1718:	42b2      	cmp	r2, r6
    171a:	d101      	bne.n	1720 <rcc_calibration+0x90>
    171c:	4628      	mov	r0, r5
    171e:	e7ec      	b.n	16fa <rcc_calibration+0x6a>
    1720:	6a98      	ldr	r0, [r3, #40]	; 0x28
    1722:	4285      	cmp	r5, r0
    1724:	d8e9      	bhi.n	16fa <rcc_calibration+0x6a>
    1726:	6ad9      	ldr	r1, [r3, #44]	; 0x2c
    1728:	3308      	adds	r3, #8
    172a:	428d      	cmp	r5, r1
    172c:	d901      	bls.n	1732 <rcc_calibration+0xa2>
    172e:	1e68      	subs	r0, r5, #1
    1730:	e7e3      	b.n	16fa <rcc_calibration+0x6a>
    1732:	3201      	adds	r2, #1
    1734:	e7f0      	b.n	1718 <rcc_calibration+0x88>
    1736:	6961      	ldr	r1, [r4, #20]
    1738:	4281      	cmp	r1, r0
    173a:	bf34      	ite	cc
    173c:	1a41      	subcc	r1, r0, r1
    173e:	1a09      	subcs	r1, r1, r0
    1740:	4589      	cmp	r9, r1
    1742:	bf84      	itt	hi
    1744:	4689      	movhi	r9, r1
    1746:	461d      	movhi	r5, r3
    1748:	ec53 2f0e 	mrrc	15, 0, r2, r3, cr14
    174c:	4590      	cmp	r8, r2
    174e:	eb7b 0303 	sbcs.w	r3, fp, r3
    1752:	d301      	bcc.n	1758 <rcc_calibration+0xc8>
    1754:	4589      	cmp	r9, r1
    1756:	d0c9      	beq.n	16ec <rcc_calibration+0x5c>
    1758:	6a23      	ldr	r3, [r4, #32]
    175a:	4628      	mov	r0, r5
    175c:	4798      	blx	r3
    175e:	69e3      	ldr	r3, [r4, #28]
    1760:	4798      	blx	r3
    1762:	4582      	cmp	sl, r0
    1764:	4602      	mov	r2, r0
    1766:	d801      	bhi.n	176c <rcc_calibration+0xdc>
    1768:	4287      	cmp	r7, r0
    176a:	d2cf      	bcs.n	170c <rcc_calibration+0x7c>
    176c:	4b2a      	ldr	r3, [pc, #168]	; (1818 <rcc_calibration+0x188>)
    176e:	6a21      	ldr	r1, [r4, #32]
    1770:	447b      	add	r3, pc
    1772:	4299      	cmp	r1, r3
    1774:	d00d      	beq.n	1792 <rcc_calibration+0x102>
    1776:	4929      	ldr	r1, [pc, #164]	; (181c <rcc_calibration+0x18c>)
    1778:	4479      	add	r1, pc
    177a:	4829      	ldr	r0, [pc, #164]	; (1820 <rcc_calibration+0x190>)
    177c:	462b      	mov	r3, r5
    177e:	4478      	add	r0, pc
    1780:	f004 fbd6 	bl	5f30 <tf_log>
    1784:	6921      	ldr	r1, [r4, #16]
    1786:	4622      	mov	r2, r4
    1788:	2300      	movs	r3, #0
    178a:	428b      	cmp	r3, r1
    178c:	d104      	bne.n	1798 <rcc_calibration+0x108>
    178e:	462e      	mov	r6, r5
    1790:	e00a      	b.n	17a8 <rcc_calibration+0x118>
    1792:	4924      	ldr	r1, [pc, #144]	; (1824 <rcc_calibration+0x194>)
    1794:	4479      	add	r1, pc
    1796:	e7f0      	b.n	177a <rcc_calibration+0xea>
    1798:	6a96      	ldr	r6, [r2, #40]	; 0x28
    179a:	42b5      	cmp	r5, r6
    179c:	d804      	bhi.n	17a8 <rcc_calibration+0x118>
    179e:	6ad0      	ldr	r0, [r2, #44]	; 0x2c
    17a0:	3208      	adds	r2, #8
    17a2:	4285      	cmp	r5, r0
    17a4:	d92d      	bls.n	1802 <rcc_calibration+0x172>
    17a6:	1e6e      	subs	r6, r5, #1
    17a8:	6a23      	ldr	r3, [r4, #32]
    17aa:	4630      	mov	r0, r6
    17ac:	4798      	blx	r3
    17ae:	4b1e      	ldr	r3, [pc, #120]	; (1828 <rcc_calibration+0x198>)
    17b0:	6a22      	ldr	r2, [r4, #32]
    17b2:	447b      	add	r3, pc
    17b4:	429a      	cmp	r2, r3
    17b6:	d026      	beq.n	1806 <rcc_calibration+0x176>
    17b8:	4f1c      	ldr	r7, [pc, #112]	; (182c <rcc_calibration+0x19c>)
    17ba:	447f      	add	r7, pc
    17bc:	69e3      	ldr	r3, [r4, #28]
    17be:	4798      	blx	r3
    17c0:	4602      	mov	r2, r0
    17c2:	4633      	mov	r3, r6
    17c4:	481a      	ldr	r0, [pc, #104]	; (1830 <rcc_calibration+0x1a0>)
    17c6:	4639      	mov	r1, r7
    17c8:	4478      	add	r0, pc
    17ca:	f004 fbb1 	bl	5f30 <tf_log>
    17ce:	4629      	mov	r1, r5
    17d0:	4620      	mov	r0, r4
    17d2:	f00c fa16 	bl	dc02 <trim_increase>
    17d6:	6a23      	ldr	r3, [r4, #32]
    17d8:	4605      	mov	r5, r0
    17da:	4798      	blx	r3
    17dc:	4b15      	ldr	r3, [pc, #84]	; (1834 <rcc_calibration+0x1a4>)
    17de:	6a22      	ldr	r2, [r4, #32]
    17e0:	447b      	add	r3, pc
    17e2:	429a      	cmp	r2, r3
    17e4:	d012      	beq.n	180c <rcc_calibration+0x17c>
    17e6:	4e14      	ldr	r6, [pc, #80]	; (1838 <rcc_calibration+0x1a8>)
    17e8:	447e      	add	r6, pc
    17ea:	69e3      	ldr	r3, [r4, #28]
    17ec:	4798      	blx	r3
    17ee:	4602      	mov	r2, r0
    17f0:	462b      	mov	r3, r5
    17f2:	4812      	ldr	r0, [pc, #72]	; (183c <rcc_calibration+0x1ac>)
    17f4:	4631      	mov	r1, r6
    17f6:	4478      	add	r0, pc
    17f8:	b003      	add	sp, #12
    17fa:	e8bd 4ff0 	ldmia.w	sp!, {r4, r5, r6, r7, r8, r9, sl, fp, lr}
    17fe:	f004 bb97 	b.w	5f30 <tf_log>
    1802:	3301      	adds	r3, #1
    1804:	e7c1      	b.n	178a <rcc_calibration+0xfa>
    1806:	4f0e      	ldr	r7, [pc, #56]	; (1840 <rcc_calibration+0x1b0>)
    1808:	447f      	add	r7, pc
    180a:	e7d7      	b.n	17bc <rcc_calibration+0x12c>
    180c:	4e0d      	ldr	r6, [pc, #52]	; (1844 <rcc_calibration+0x1b4>)
    180e:	447e      	add	r6, pc
    1810:	e7eb      	b.n	17ea <rcc_calibration+0x15a>
    1812:	bf00      	nop
    1814:	000f4240 	.word	0x000f4240
    1818:	fffffef9 	.word	0xfffffef9
    181c:	0000f33b 	.word	0x0000f33b
    1820:	0000f339 	.word	0x0000f339
    1824:	0000f31b 	.word	0x0000f31b
    1828:	fffffeb7 	.word	0xfffffeb7
    182c:	0000f2f9 	.word	0x0000f2f9
    1830:	0000f2ef 	.word	0x0000f2ef
    1834:	fffffe89 	.word	0xfffffe89
    1838:	0000f2cb 	.word	0x0000f2cb
    183c:	0000f2c1 	.word	0x0000f2c1
    1840:	0000f2a7 	.word	0x0000f2a7
    1844:	0000f2a1 	.word	0x0000f2a1

00001848 <stm32mp1_calib_get_wakeup>:
    1848:	4b01      	ldr	r3, [pc, #4]	; (1850 <stm32mp1_calib_get_wakeup+0x8>)
    184a:	447b      	add	r3, pc
    184c:	7818      	ldrb	r0, [r3, #0]
    184e:	4770      	bx	lr
    1850:	00015060 	.word	0x00015060

00001854 <stm32mp1_calib_set_wakeup>:
    1854:	4b01      	ldr	r3, [pc, #4]	; (185c <stm32mp1_calib_set_wakeup+0x8>)
    1856:	447b      	add	r3, pc
    1858:	7018      	strb	r0, [r3, #0]
    185a:	4770      	bx	lr
    185c:	00015054 	.word	0x00015054

00001860 <stm32mp1_calib_it_handler>:
    1860:	b538      	push	{r3, r4, r5, lr}
    1862:	4605      	mov	r5, r0
    1864:	f00c fe68 	bl	e538 <stm32mp_rcc_base>
    1868:	2db0      	cmp	r5, #176	; 0xb0
    186a:	4604      	mov	r4, r0
    186c:	d00f      	beq.n	188e <stm32mp1_calib_it_handler+0x2e>
    186e:	2db1      	cmp	r5, #177	; 0xb1
    1870:	d120      	bne.n	18b4 <stm32mp1_calib_it_handler+0x54>
    1872:	2080      	movs	r0, #128	; 0x80
    1874:	f00c fb07 	bl	de86 <plat_ic_set_priority_mask>
    1878:	f8d4 3418 	ldr.w	r3, [r4, #1048]	; 0x418
    187c:	2201      	movs	r2, #1
    187e:	f443 1380 	orr.w	r3, r3, #1048576	; 0x100000
    1882:	f8c4 3418 	str.w	r3, [r4, #1048]	; 0x418
    1886:	4b16      	ldr	r3, [pc, #88]	; (18e0 <stm32mp1_calib_it_handler+0x80>)
    1888:	447b      	add	r3, pc
    188a:	701a      	strb	r2, [r3, #0]
    188c:	bd38      	pop	{r3, r4, r5, pc}
    188e:	4b15      	ldr	r3, [pc, #84]	; (18e4 <stm32mp1_calib_it_handler+0x84>)
    1890:	2200      	movs	r2, #0
    1892:	447b      	add	r3, pc
    1894:	701a      	strb	r2, [r3, #0]
    1896:	4b11      	ldr	r3, [pc, #68]	; (18dc <stm32mp1_calib_it_handler+0x7c>)
    1898:	6cda      	ldr	r2, [r3, #76]	; 0x4c
    189a:	0791      	lsls	r1, r2, #30
    189c:	bf42      	ittt	mi
    189e:	6cda      	ldrmi	r2, [r3, #76]	; 0x4c
    18a0:	f042 0202 	orrmi.w	r2, r2, #2
    18a4:	64da      	strmi	r2, [r3, #76]	; 0x4c
    18a6:	6d1a      	ldr	r2, [r3, #80]	; 0x50
    18a8:	0792      	lsls	r2, r2, #30
    18aa:	bf42      	ittt	mi
    18ac:	6d1a      	ldrmi	r2, [r3, #80]	; 0x50
    18ae:	f042 0202 	orrmi.w	r2, r2, #2
    18b2:	651a      	strmi	r2, [r3, #80]	; 0x50
    18b4:	480c      	ldr	r0, [pc, #48]	; (18e8 <stm32mp1_calib_it_handler+0x88>)
    18b6:	4478      	add	r0, pc
    18b8:	6943      	ldr	r3, [r0, #20]
    18ba:	b10b      	cbz	r3, 18c0 <stm32mp1_calib_it_handler+0x60>
    18bc:	f7ff fee8 	bl	1690 <rcc_calibration>
    18c0:	480a      	ldr	r0, [pc, #40]	; (18ec <stm32mp1_calib_it_handler+0x8c>)
    18c2:	4478      	add	r0, pc
    18c4:	6943      	ldr	r3, [r0, #20]
    18c6:	b10b      	cbz	r3, 18cc <stm32mp1_calib_it_handler+0x6c>
    18c8:	f7ff fee2 	bl	1690 <rcc_calibration>
    18cc:	4b08      	ldr	r3, [pc, #32]	; (18f0 <stm32mp1_calib_it_handler+0x90>)
    18ce:	447b      	add	r3, pc
    18d0:	681b      	ldr	r3, [r3, #0]
    18d2:	2b00      	cmp	r3, #0
    18d4:	d0da      	beq.n	188c <stm32mp1_calib_it_handler+0x2c>
    18d6:	ee0e 3f12 	mcr	15, 0, r3, cr14, cr2, {0}
    18da:	e7d7      	b.n	188c <stm32mp1_calib_it_handler+0x2c>
    18dc:	5000d000 	.word	0x5000d000
    18e0:	00015022 	.word	0x00015022
    18e4:	00015018 	.word	0x00015018
    18e8:	0001189a 	.word	0x0001189a
    18ec:	000117e6 	.word	0x000117e6
    18f0:	00013f42 	.word	0x00013f42

000018f4 <stm32mp1_calib_start_hsi_cal>:
    18f4:	4805      	ldr	r0, [pc, #20]	; (190c <stm32mp1_calib_start_hsi_cal+0x18>)
    18f6:	b508      	push	{r3, lr}
    18f8:	4478      	add	r0, pc
    18fa:	6943      	ldr	r3, [r0, #20]
    18fc:	b11b      	cbz	r3, 1906 <stm32mp1_calib_start_hsi_cal+0x12>
    18fe:	f7ff fec7 	bl	1690 <rcc_calibration>
    1902:	2000      	movs	r0, #0
    1904:	bd08      	pop	{r3, pc}
    1906:	f06f 0001 	mvn.w	r0, #1
    190a:	e7fb      	b.n	1904 <stm32mp1_calib_start_hsi_cal+0x10>
    190c:	00011858 	.word	0x00011858

00001910 <stm32mp1_calib_start_csi_cal>:
    1910:	4805      	ldr	r0, [pc, #20]	; (1928 <stm32mp1_calib_start_csi_cal+0x18>)
    1912:	b508      	push	{r3, lr}
    1914:	4478      	add	r0, pc
    1916:	6943      	ldr	r3, [r0, #20]
    1918:	b11b      	cbz	r3, 1922 <stm32mp1_calib_start_csi_cal+0x12>
    191a:	f7ff feb9 	bl	1690 <rcc_calibration>
    191e:	2000      	movs	r0, #0
    1920:	bd08      	pop	{r3, pc}
    1922:	f06f 0001 	mvn.w	r0, #1
    1926:	e7fb      	b.n	1920 <stm32mp1_calib_start_csi_cal+0x10>
    1928:	00011794 	.word	0x00011794

0000192c <stm32mp1_calib_init>:
    192c:	b537      	push	{r0, r1, r2, r4, r5, lr}
    192e:	ad01      	add	r5, sp, #4
    1930:	4837      	ldr	r0, [pc, #220]	; (1a10 <stm32mp1_calib_init+0xe4>)
    1932:	4629      	mov	r1, r5
    1934:	4478      	add	r0, pc
    1936:	f00c ff6e 	bl	e816 <fdt_rcc_read_prop>
    193a:	b1d8      	cbz	r0, 1974 <stm32mp1_calib_init+0x48>
    193c:	4c35      	ldr	r4, [pc, #212]	; (1a14 <stm32mp1_calib_init+0xe8>)
    193e:	2100      	movs	r1, #0
    1940:	447c      	add	r4, pc
    1942:	f104 001c 	add.w	r0, r4, #28
    1946:	f000 ffa7 	bl	2898 <stm32_timer_freq_func>
    194a:	69e3      	ldr	r3, [r4, #28]
    194c:	b193      	cbz	r3, 1974 <stm32mp1_calib_init+0x48>
    194e:	2004      	movs	r0, #4
    1950:	f005 fcda 	bl	7308 <clk_get_rate>
    1954:	6160      	str	r0, [r4, #20]
    1956:	f00c fdef 	bl	e538 <stm32mp_rcc_base>
    195a:	6983      	ldr	r3, [r0, #24]
    195c:	4620      	mov	r0, r4
    195e:	f3c3 4308 	ubfx	r3, r3, #16, #9
    1962:	6063      	str	r3, [r4, #4]
    1964:	f00c f960 	bl	dc28 <trim_table_init>
    1968:	6860      	ldr	r0, [r4, #4]
    196a:	6a23      	ldr	r3, [r4, #32]
    196c:	4798      	blx	r3
    196e:	4620      	mov	r0, r4
    1970:	f7ff fe8e 	bl	1690 <rcc_calibration>
    1974:	4828      	ldr	r0, [pc, #160]	; (1a18 <stm32mp1_calib_init+0xec>)
    1976:	4629      	mov	r1, r5
    1978:	4478      	add	r0, pc
    197a:	f00c ff4c 	bl	e816 <fdt_rcc_read_prop>
    197e:	b1d8      	cbz	r0, 19b8 <stm32mp1_calib_init+0x8c>
    1980:	4c26      	ldr	r4, [pc, #152]	; (1a1c <stm32mp1_calib_init+0xf0>)
    1982:	2101      	movs	r1, #1
    1984:	447c      	add	r4, pc
    1986:	f104 001c 	add.w	r0, r4, #28
    198a:	f000 ff85 	bl	2898 <stm32_timer_freq_func>
    198e:	69e3      	ldr	r3, [r4, #28]
    1990:	b193      	cbz	r3, 19b8 <stm32mp1_calib_init+0x8c>
    1992:	2001      	movs	r0, #1
    1994:	f005 fcb8 	bl	7308 <clk_get_rate>
    1998:	6160      	str	r0, [r4, #20]
    199a:	f00c fdcd 	bl	e538 <stm32mp_rcc_base>
    199e:	69c3      	ldr	r3, [r0, #28]
    19a0:	4620      	mov	r0, r4
    19a2:	f3c3 4307 	ubfx	r3, r3, #16, #8
    19a6:	6063      	str	r3, [r4, #4]
    19a8:	f00c f93e 	bl	dc28 <trim_table_init>
    19ac:	6860      	ldr	r0, [r4, #4]
    19ae:	6a23      	ldr	r3, [r4, #32]
    19b0:	4798      	blx	r3
    19b2:	4620      	mov	r0, r4
    19b4:	f7ff fe6c 	bl	1690 <rcc_calibration>
    19b8:	4819      	ldr	r0, [pc, #100]	; (1a20 <stm32mp1_calib_init+0xf4>)
    19ba:	2100      	movs	r1, #0
    19bc:	4478      	add	r0, pc
    19be:	f00c ff15 	bl	e7ec <fdt_rcc_read_uint32_default>
    19c2:	4604      	mov	r4, r0
    19c4:	f00c fdb5 	bl	e532 <plat_get_syscnt_freq2>
    19c8:	4360      	muls	r0, r4
    19ca:	d41b      	bmi.n	1a04 <stm32mp1_calib_init+0xd8>
    19cc:	4b15      	ldr	r3, [pc, #84]	; (1a24 <stm32mp1_calib_init+0xf8>)
    19ce:	447b      	add	r3, pc
    19d0:	6018      	str	r0, [r3, #0]
    19d2:	4c15      	ldr	r4, [pc, #84]	; (1a28 <stm32mp1_calib_init+0xfc>)
    19d4:	447c      	add	r4, pc
    19d6:	6825      	ldr	r5, [r4, #0]
    19d8:	b16d      	cbz	r5, 19f6 <stm32mp1_calib_init+0xca>
    19da:	f00c fdaa 	bl	e532 <plat_get_syscnt_freq2>
    19de:	fbb5 f1f0 	udiv	r1, r5, r0
    19e2:	4812      	ldr	r0, [pc, #72]	; (1a2c <stm32mp1_calib_init+0x100>)
    19e4:	4478      	add	r0, pc
    19e6:	f004 faa3 	bl	5f30 <tf_log>
    19ea:	6823      	ldr	r3, [r4, #0]
    19ec:	ee0e 3f12 	mcr	15, 0, r3, cr14, cr2, {0}
    19f0:	2301      	movs	r3, #1
    19f2:	ee0e 3f32 	mcr	15, 0, r3, cr14, cr2, {1}
    19f6:	480e      	ldr	r0, [pc, #56]	; (1a30 <stm32mp1_calib_init+0x104>)
    19f8:	4478      	add	r0, pc
    19fa:	b003      	add	sp, #12
    19fc:	e8bd 4030 	ldmia.w	sp!, {r4, r5, lr}
    1a00:	f00c bf22 	b.w	e848 <fdt_rcc_enable_it>
    1a04:	4b0b      	ldr	r3, [pc, #44]	; (1a34 <stm32mp1_calib_init+0x108>)
    1a06:	f06f 4200 	mvn.w	r2, #2147483648	; 0x80000000
    1a0a:	447b      	add	r3, pc
    1a0c:	601a      	str	r2, [r3, #0]
    1a0e:	e7e0      	b.n	19d2 <stm32mp1_calib_init+0xa6>
    1a10:	0000f1a8 	.word	0x0000f1a8
    1a14:	00011810 	.word	0x00011810
    1a18:	0000f16f 	.word	0x0000f16f
    1a1c:	00011724 	.word	0x00011724
    1a20:	0000f136 	.word	0x0000f136
    1a24:	00013e42 	.word	0x00013e42
    1a28:	00013e3c 	.word	0x00013e3c
    1a2c:	0000f119 	.word	0x0000f119
    1a30:	0000f127 	.word	0x0000f127
    1a34:	00013e06 	.word	0x00013e06

00001a38 <etzpc_configure_decprot>:
    1a38:	b538      	push	{r3, r4, r5, lr}
    1a3a:	f001 0103 	and.w	r1, r1, #3
    1a3e:	4b0d      	ldr	r3, [pc, #52]	; (1a74 <etzpc_configure_decprot+0x3c>)
    1a40:	0044      	lsls	r4, r0, #1
    1a42:	447b      	add	r3, pc
    1a44:	f004 041e 	and.w	r4, r4, #30
    1a48:	0905      	lsrs	r5, r0, #4
    1a4a:	799a      	ldrb	r2, [r3, #6]
    1a4c:	4290      	cmp	r0, r2
    1a4e:	d304      	bcc.n	1a5a <etzpc_configure_decprot+0x22>
    1a50:	4809      	ldr	r0, [pc, #36]	; (1a78 <etzpc_configure_decprot+0x40>)
    1a52:	219a      	movs	r1, #154	; 0x9a
    1a54:	4478      	add	r0, pc
    1a56:	f00b fbfb 	bl	d250 <__assert>
    1a5a:	681a      	ldr	r2, [r3, #0]
    1a5c:	2003      	movs	r0, #3
    1a5e:	40a1      	lsls	r1, r4
    1a60:	40a0      	lsls	r0, r4
    1a62:	3210      	adds	r2, #16
    1a64:	f852 3025 	ldr.w	r3, [r2, r5, lsl #2]
    1a68:	ea23 0300 	bic.w	r3, r3, r0
    1a6c:	430b      	orrs	r3, r1
    1a6e:	f842 3025 	str.w	r3, [r2, r5, lsl #2]
    1a72:	bd38      	pop	{r3, r4, r5, pc}
    1a74:	00013dd2 	.word	0x00013dd2
    1a78:	0000f0d3 	.word	0x0000f0d3

00001a7c <etzpc_get_decprot>:
    1a7c:	490b      	ldr	r1, [pc, #44]	; (1aac <etzpc_get_decprot+0x30>)
    1a7e:	b510      	push	{r4, lr}
    1a80:	4479      	add	r1, pc
    1a82:	0043      	lsls	r3, r0, #1
    1a84:	680a      	ldr	r2, [r1, #0]
    1a86:	f003 031e 	and.w	r3, r3, #30
    1a8a:	7989      	ldrb	r1, [r1, #6]
    1a8c:	0904      	lsrs	r4, r0, #4
    1a8e:	3210      	adds	r2, #16
    1a90:	4288      	cmp	r0, r1
    1a92:	d304      	bcc.n	1a9e <etzpc_get_decprot+0x22>
    1a94:	4806      	ldr	r0, [pc, #24]	; (1ab0 <etzpc_get_decprot+0x34>)
    1a96:	21ad      	movs	r1, #173	; 0xad
    1a98:	4478      	add	r0, pc
    1a9a:	f00b fbd9 	bl	d250 <__assert>
    1a9e:	f852 0024 	ldr.w	r0, [r2, r4, lsl #2]
    1aa2:	40d8      	lsrs	r0, r3
    1aa4:	f000 0003 	and.w	r0, r0, #3
    1aa8:	bd10      	pop	{r4, pc}
    1aaa:	bf00      	nop
    1aac:	00013d94 	.word	0x00013d94
    1ab0:	0000f08f 	.word	0x0000f08f

00001ab4 <etzpc_lock_decprot>:
    1ab4:	490a      	ldr	r1, [pc, #40]	; (1ae0 <etzpc_lock_decprot+0x2c>)
    1ab6:	f000 031f 	and.w	r3, r0, #31
    1aba:	2201      	movs	r2, #1
    1abc:	4479      	add	r1, pc
    1abe:	b510      	push	{r4, lr}
    1ac0:	409a      	lsls	r2, r3
    1ac2:	680b      	ldr	r3, [r1, #0]
    1ac4:	7989      	ldrb	r1, [r1, #6]
    1ac6:	0944      	lsrs	r4, r0, #5
    1ac8:	3330      	adds	r3, #48	; 0x30
    1aca:	4288      	cmp	r0, r1
    1acc:	d304      	bcc.n	1ad8 <etzpc_lock_decprot+0x24>
    1ace:	4805      	ldr	r0, [pc, #20]	; (1ae4 <etzpc_lock_decprot+0x30>)
    1ad0:	21bf      	movs	r1, #191	; 0xbf
    1ad2:	4478      	add	r0, pc
    1ad4:	f00b fbbc 	bl	d250 <__assert>
    1ad8:	f843 2024 	str.w	r2, [r3, r4, lsl #2]
    1adc:	bd10      	pop	{r4, pc}
    1ade:	bf00      	nop
    1ae0:	00013d58 	.word	0x00013d58
    1ae4:	0000f055 	.word	0x0000f055

00001ae8 <etzpc_configure_tzma>:
    1ae8:	b508      	push	{r3, lr}
    1aea:	4b07      	ldr	r3, [pc, #28]	; (1b08 <etzpc_configure_tzma+0x20>)
    1aec:	447b      	add	r3, pc
    1aee:	795a      	ldrb	r2, [r3, #5]
    1af0:	4290      	cmp	r0, r2
    1af2:	d304      	bcc.n	1afe <etzpc_configure_tzma+0x16>
    1af4:	4805      	ldr	r0, [pc, #20]	; (1b0c <etzpc_configure_tzma+0x24>)
    1af6:	21cb      	movs	r1, #203	; 0xcb
    1af8:	4478      	add	r0, pc
    1afa:	f00b fba9 	bl	d250 <__assert>
    1afe:	681b      	ldr	r3, [r3, #0]
    1b00:	f843 1020 	str.w	r1, [r3, r0, lsl #2]
    1b04:	bd08      	pop	{r3, pc}
    1b06:	bf00      	nop
    1b08:	00013d28 	.word	0x00013d28
    1b0c:	0000f02f 	.word	0x0000f02f

00001b10 <etzpc_init>:
    1b10:	4b32      	ldr	r3, [pc, #200]	; (1bdc <etzpc_init+0xcc>)
    1b12:	e92d 43f7 	stmdb	sp!, {r0, r1, r2, r4, r5, r6, r7, r8, r9, lr}
    1b16:	2500      	movs	r5, #0
    1b18:	447b      	add	r3, pc
    1b1a:	4668      	mov	r0, sp
    1b1c:	4a2d      	ldr	r2, [pc, #180]	; (1bd4 <etzpc_init+0xc4>)
    1b1e:	601a      	str	r2, [r3, #0]
    1b20:	f8d2 23f0 	ldr.w	r2, [r2, #1008]	; 0x3f0
    1b24:	0a11      	lsrs	r1, r2, #8
    1b26:	715a      	strb	r2, [r3, #5]
    1b28:	7199      	strb	r1, [r3, #6]
    1b2a:	0c11      	lsrs	r1, r2, #16
    1b2c:	0e12      	lsrs	r2, r2, #24
    1b2e:	711a      	strb	r2, [r3, #4]
    1b30:	4a29      	ldr	r2, [pc, #164]	; (1bd8 <etzpc_init+0xc8>)
    1b32:	71d9      	strb	r1, [r3, #7]
    1b34:	f892 20f4 	ldrb.w	r2, [r2, #244]	; 0xf4
    1b38:	9501      	str	r5, [sp, #4]
    1b3a:	721a      	strb	r2, [r3, #8]
    1b3c:	f008 fcdc 	bl	a4f8 <fdt_get_address>
    1b40:	2800      	cmp	r0, #0
    1b42:	d041      	beq.n	1bc8 <etzpc_init+0xb8>
    1b44:	4a26      	ldr	r2, [pc, #152]	; (1be0 <etzpc_init+0xd0>)
    1b46:	f04f 31ff 	mov.w	r1, #4294967295	; 0xffffffff
    1b4a:	9800      	ldr	r0, [sp, #0]
    1b4c:	447a      	add	r2, pc
    1b4e:	f00d ff56 	bl	f9fe <fdt_node_offset_by_compatible>
    1b52:	1e01      	subs	r1, r0, #0
    1b54:	db3b      	blt.n	1bce <etzpc_init+0xbe>
    1b56:	4a23      	ldr	r2, [pc, #140]	; (1be4 <etzpc_init+0xd4>)
    1b58:	ab01      	add	r3, sp, #4
    1b5a:	9800      	ldr	r0, [sp, #0]
    1b5c:	447a      	add	r2, pc
    1b5e:	f00d fe1a 	bl	f796 <fdt_getprop>
    1b62:	4604      	mov	r4, r0
    1b64:	bb60      	cbnz	r0, 1bc0 <etzpc_init+0xb0>
    1b66:	4820      	ldr	r0, [pc, #128]	; (1be8 <etzpc_init+0xd8>)
    1b68:	4478      	add	r0, pc
    1b6a:	f004 f9e1 	bl	5f30 <tf_log>
    1b6e:	2000      	movs	r0, #0
    1b70:	b003      	add	sp, #12
    1b72:	e8bd 83f0 	ldmia.w	sp!, {r4, r5, r6, r7, r8, r9, pc}
    1b76:	f3c6 2001 	ubfx	r0, r6, #8, #2
    1b7a:	f00c fd23 	bl	e5c4 <stm32mp_etzpc_binding2decprot>
    1b7e:	4601      	mov	r1, r0
    1b80:	4680      	mov	r8, r0
    1b82:	4638      	mov	r0, r7
    1b84:	f003 ff12 	bl	59ac <stm32mp1_register_etzpc_decprot>
    1b88:	4641      	mov	r1, r8
    1b8a:	4638      	mov	r0, r7
    1b8c:	f7ff ff54 	bl	1a38 <etzpc_configure_decprot>
    1b90:	07f3      	lsls	r3, r6, #31
    1b92:	d502      	bpl.n	1b9a <etzpc_init+0x8a>
    1b94:	4638      	mov	r0, r7
    1b96:	f7ff ff8d 	bl	1ab4 <etzpc_lock_decprot>
    1b9a:	3501      	adds	r5, #1
    1b9c:	9b01      	ldr	r3, [sp, #4]
    1b9e:	ebb5 0f93 	cmp.w	r5, r3, lsr #2
    1ba2:	d2e4      	bcs.n	1b6e <etzpc_init+0x5e>
    1ba4:	f854 6025 	ldr.w	r6, [r4, r5, lsl #2]
    1ba8:	f899 3006 	ldrb.w	r3, [r9, #6]
    1bac:	ba36      	rev	r6, r6
    1bae:	f3c6 4707 	ubfx	r7, r6, #16, #8
    1bb2:	429f      	cmp	r7, r3
    1bb4:	d3df      	bcc.n	1b76 <etzpc_init+0x66>
    1bb6:	480d      	ldr	r0, [pc, #52]	; (1bec <etzpc_init+0xdc>)
    1bb8:	217d      	movs	r1, #125	; 0x7d
    1bba:	4478      	add	r0, pc
    1bbc:	f00b fb48 	bl	d250 <__assert>
    1bc0:	f8df 902c 	ldr.w	r9, [pc, #44]	; 1bf0 <etzpc_init+0xe0>
    1bc4:	44f9      	add	r9, pc
    1bc6:	e7e9      	b.n	1b9c <etzpc_init+0x8c>
    1bc8:	f06f 0001 	mvn.w	r0, #1
    1bcc:	e7d0      	b.n	1b70 <etzpc_init+0x60>
    1bce:	f06f 0004 	mvn.w	r0, #4
    1bd2:	e7cd      	b.n	1b70 <etzpc_init+0x60>
    1bd4:	5c007000 	.word	0x5c007000
    1bd8:	5c007300 	.word	0x5c007300
    1bdc:	00013cfc 	.word	0x00013cfc
    1be0:	0000eff4 	.word	0x0000eff4
    1be4:	0000eff3 	.word	0x0000eff3
    1be8:	0000eff2 	.word	0x0000eff2
    1bec:	0000ef6d 	.word	0x0000ef6d
    1bf0:	00013c50 	.word	0x00013c50

00001bf4 <seed_error_recovery>:
    1bf4:	4a11      	ldr	r2, [pc, #68]	; (1c3c <seed_error_recovery+0x48>)
    1bf6:	b508      	push	{r3, lr}
    1bf8:	447a      	add	r2, pc
    1bfa:	6811      	ldr	r1, [r2, #0]
    1bfc:	684b      	ldr	r3, [r1, #4]
    1bfe:	f023 0340 	bic.w	r3, r3, #64	; 0x40
    1c02:	604b      	str	r3, [r1, #4]
    1c04:	f3bf 8f5f 	dmb	sy
    1c08:	6812      	ldr	r2, [r2, #0]
    1c0a:	230c      	movs	r3, #12
    1c0c:	3208      	adds	r2, #8
    1c0e:	6811      	ldr	r1, [r2, #0]
    1c10:	3b01      	subs	r3, #1
    1c12:	f013 03ff 	ands.w	r3, r3, #255	; 0xff
    1c16:	d1fa      	bne.n	1c0e <seed_error_recovery+0x1a>
    1c18:	f3bf 8f5f 	dmb	sy
    1c1c:	4b08      	ldr	r3, [pc, #32]	; (1c40 <seed_error_recovery+0x4c>)
    1c1e:	447b      	add	r3, pc
    1c20:	681b      	ldr	r3, [r3, #0]
    1c22:	685b      	ldr	r3, [r3, #4]
    1c24:	065b      	lsls	r3, r3, #25
    1c26:	d507      	bpl.n	1c38 <seed_error_recovery+0x44>
    1c28:	4806      	ldr	r0, [pc, #24]	; (1c44 <seed_error_recovery+0x50>)
    1c2a:	4478      	add	r0, pc
    1c2c:	f004 f980 	bl	5f30 <tf_log>
    1c30:	f004 fa34 	bl	609c <console_flush>
    1c34:	f00a ec56 	blx	c4e4 <do_panic>
    1c38:	bd08      	pop	{r3, pc}
    1c3a:	bf00      	nop
    1c3c:	00013c28 	.word	0x00013c28
    1c40:	00013c02 	.word	0x00013c02
    1c44:	0000ef5c 	.word	0x0000ef5c

00001c48 <stm32_rng_read>:
    1c48:	4b28      	ldr	r3, [pc, #160]	; (1cec <stm32_rng_read+0xa4>)
    1c4a:	e92d 4ff0 	stmdb	sp!, {r4, r5, r6, r7, r8, r9, sl, fp, lr}
    1c4e:	4605      	mov	r5, r0
    1c50:	447b      	add	r3, pc
    1c52:	b085      	sub	sp, #20
    1c54:	460c      	mov	r4, r1
    1c56:	681b      	ldr	r3, [r3, #0]
    1c58:	2b00      	cmp	r3, #0
    1c5a:	d043      	beq.n	1ce4 <stm32_rng_read+0x9c>
    1c5c:	f8df 9090 	ldr.w	r9, [pc, #144]	; 1cf0 <stm32_rng_read+0xa8>
    1c60:	4606      	mov	r6, r0
    1c62:	f8df a090 	ldr.w	sl, [pc, #144]	; 1cf4 <stm32_rng_read+0xac>
    1c66:	44f9      	add	r9, pc
    1c68:	44fa      	add	sl, pc
    1c6a:	2c00      	cmp	r4, #0
    1c6c:	d038      	beq.n	1ce0 <stm32_rng_read+0x98>
    1c6e:	f242 7710 	movw	r7, #10000	; 0x2710
    1c72:	f8d9 3000 	ldr.w	r3, [r9]
    1c76:	685b      	ldr	r3, [r3, #4]
    1c78:	f013 0f44 	tst.w	r3, #68	; 0x44
    1c7c:	d001      	beq.n	1c82 <stm32_rng_read+0x3a>
    1c7e:	f7ff ffb9 	bl	1bf4 <seed_error_recovery>
    1c82:	200a      	movs	r0, #10
    1c84:	f005 fb82 	bl	738c <udelay>
    1c88:	3f01      	subs	r7, #1
    1c8a:	d109      	bne.n	1ca0 <stm32_rng_read+0x58>
    1c8c:	1b72      	subs	r2, r6, r5
    1c8e:	4639      	mov	r1, r7
    1c90:	4628      	mov	r0, r5
    1c92:	f00e f93c 	bl	ff0e <memset>
    1c96:	f06f 003b 	mvn.w	r0, #59	; 0x3b
    1c9a:	b005      	add	sp, #20
    1c9c:	e8bd 8ff0 	ldmia.w	sp!, {r4, r5, r6, r7, r8, r9, sl, fp, pc}
    1ca0:	f8da 3000 	ldr.w	r3, [sl]
    1ca4:	685b      	ldr	r3, [r3, #4]
    1ca6:	07db      	lsls	r3, r3, #31
    1ca8:	d5e3      	bpl.n	1c72 <stm32_rng_read+0x2a>
    1caa:	f8df b04c 	ldr.w	fp, [pc, #76]	; 1cf8 <stm32_rng_read+0xb0>
    1cae:	2704      	movs	r7, #4
    1cb0:	a903      	add	r1, sp, #12
    1cb2:	44fb      	add	fp, pc
    1cb4:	f8db 3000 	ldr.w	r3, [fp]
    1cb8:	2c04      	cmp	r4, #4
    1cba:	9101      	str	r1, [sp, #4]
    1cbc:	46a0      	mov	r8, r4
    1cbe:	689b      	ldr	r3, [r3, #8]
    1cc0:	bf28      	it	cs
    1cc2:	f04f 0804 	movcs.w	r8, #4
    1cc6:	eba4 0408 	sub.w	r4, r4, r8
    1cca:	4630      	mov	r0, r6
    1ccc:	9303      	str	r3, [sp, #12]
    1cce:	4642      	mov	r2, r8
    1cd0:	4446      	add	r6, r8
    1cd2:	f00e f8fb 	bl	fecc <memcpy>
    1cd6:	3f01      	subs	r7, #1
    1cd8:	d0c7      	beq.n	1c6a <stm32_rng_read+0x22>
    1cda:	9901      	ldr	r1, [sp, #4]
    1cdc:	2c00      	cmp	r4, #0
    1cde:	d1e9      	bne.n	1cb4 <stm32_rng_read+0x6c>
    1ce0:	2000      	movs	r0, #0
    1ce2:	e7da      	b.n	1c9a <stm32_rng_read+0x52>
    1ce4:	f04f 30ff 	mov.w	r0, #4294967295	; 0xffffffff
    1ce8:	e7d7      	b.n	1c9a <stm32_rng_read+0x52>
    1cea:	bf00      	nop
    1cec:	00013bd0 	.word	0x00013bd0
    1cf0:	00013bba 	.word	0x00013bba
    1cf4:	00013bb8 	.word	0x00013bb8
    1cf8:	00013b6e 	.word	0x00013b6e

00001cfc <stm32_rng_init>:
    1cfc:	e92d 4ff0 	stmdb	sp!, {r4, r5, r6, r7, r8, r9, sl, fp, lr}
    1d00:	b087      	sub	sp, #28
    1d02:	4c48      	ldr	r4, [pc, #288]	; (1e24 <stm32_rng_init+0x128>)
    1d04:	447c      	add	r4, pc
    1d06:	6823      	ldr	r3, [r4, #0]
    1d08:	b11b      	cbz	r3, 1d12 <stm32_rng_init+0x16>
    1d0a:	2000      	movs	r0, #0
    1d0c:	b007      	add	sp, #28
    1d0e:	e8bd 8ff0 	ldmia.w	sp!, {r4, r5, r6, r7, r8, r9, sl, fp, pc}
    1d12:	a801      	add	r0, sp, #4
    1d14:	f008 fbf0 	bl	a4f8 <fdt_get_address>
    1d18:	b918      	cbnz	r0, 1d22 <stm32_rng_init+0x26>
    1d1a:	f004 f9bf 	bl	609c <console_flush>
    1d1e:	f00a ebe2 	blx	c4e4 <do_panic>
    1d22:	4a41      	ldr	r2, [pc, #260]	; (1e28 <stm32_rng_init+0x12c>)
    1d24:	f04f 31ff 	mov.w	r1, #4294967295	; 0xffffffff
    1d28:	a802      	add	r0, sp, #8
    1d2a:	447a      	add	r2, pc
    1d2c:	f008 fcc2 	bl	a6b4 <dt_get_node>
    1d30:	2800      	cmp	r0, #0
    1d32:	dbea      	blt.n	1d0a <stm32_rng_init+0xe>
    1d34:	9b05      	ldr	r3, [sp, #20]
    1d36:	0798      	lsls	r0, r3, #30
    1d38:	d5e7      	bpl.n	1d0a <stm32_rng_init+0xe>
    1d3a:	9802      	ldr	r0, [sp, #8]
    1d3c:	b920      	cbnz	r0, 1d48 <stm32_rng_init+0x4c>
    1d3e:	483b      	ldr	r0, [pc, #236]	; (1e2c <stm32_rng_init+0x130>)
    1d40:	21d0      	movs	r1, #208	; 0xd0
    1d42:	4478      	add	r0, pc
    1d44:	f00b fa84 	bl	d250 <__assert>
    1d48:	07d9      	lsls	r1, r3, #31
    1d4a:	6020      	str	r0, [r4, #0]
    1d4c:	d548      	bpl.n	1de0 <stm32_rng_init+0xe4>
    1d4e:	f00c fad6 	bl	e2fe <stm32mp_register_non_secure_periph_iomem>
    1d52:	9803      	ldr	r0, [sp, #12]
    1d54:	2800      	cmp	r0, #0
    1d56:	dbe0      	blt.n	1d1a <stm32_rng_init+0x1e>
    1d58:	4b35      	ldr	r3, [pc, #212]	; (1e30 <stm32_rng_init+0x134>)
    1d5a:	447b      	add	r3, pc
    1d5c:	6058      	str	r0, [r3, #4]
    1d5e:	f005 faab 	bl	72b8 <clk_enable>
    1d62:	9804      	ldr	r0, [sp, #16]
    1d64:	2800      	cmp	r0, #0
    1d66:	db0f      	blt.n	1d88 <stm32_rng_init+0x8c>
    1d68:	f44f 717a 	mov.w	r1, #1000	; 0x3e8
    1d6c:	f008 faea 	bl	a344 <stm32mp_reset_assert>
    1d70:	2800      	cmp	r0, #0
    1d72:	d1d2      	bne.n	1d1a <stm32_rng_init+0x1e>
    1d74:	2014      	movs	r0, #20
    1d76:	f005 fb09 	bl	738c <udelay>
    1d7a:	9804      	ldr	r0, [sp, #16]
    1d7c:	f44f 717a 	mov.w	r1, #1000	; 0x3e8
    1d80:	f008 fb10 	bl	a3a4 <stm32mp_reset_deassert>
    1d84:	2800      	cmp	r0, #0
    1d86:	d1c8      	bne.n	1d1a <stm32_rng_init+0x1e>
    1d88:	4b2a      	ldr	r3, [pc, #168]	; (1e34 <stm32_rng_init+0x138>)
    1d8a:	447b      	add	r3, pc
    1d8c:	f8d3 8000 	ldr.w	r8, [r3]
    1d90:	2324      	movs	r3, #36	; 0x24
    1d92:	f8c8 3000 	str.w	r3, [r8]
    1d96:	ee1e 0f10 	mrc	15, 0, r0, cr14, cr0, {0}
    1d9a:	ec57 6f0e 	mrrc	15, 0, r6, r7, cr14
    1d9e:	4d1f      	ldr	r5, [pc, #124]	; (1e1c <stm32_rng_init+0x120>)
    1da0:	2300      	movs	r3, #0
    1da2:	4a1f      	ldr	r2, [pc, #124]	; (1e20 <stm32_rng_init+0x124>)
    1da4:	fba0 0105 	umull	r0, r1, r0, r5
    1da8:	f8df a08c 	ldr.w	sl, [pc, #140]	; 1e38 <stm32_rng_init+0x13c>
    1dac:	f00a ed48 	blx	c840 <__aeabi_uldivmod>
    1db0:	eb10 0b06 	adds.w	fp, r0, r6
    1db4:	eb41 0407 	adc.w	r4, r1, r7
    1db8:	2700      	movs	r7, #0
    1dba:	f8d8 3004 	ldr.w	r3, [r8, #4]
    1dbe:	4e18      	ldr	r6, [pc, #96]	; (1e20 <stm32_rng_init+0x124>)
    1dc0:	44fa      	add	sl, pc
    1dc2:	07da      	lsls	r2, r3, #31
    1dc4:	d4a1      	bmi.n	1d0a <stm32_rng_init+0xe>
    1dc6:	ec59 8f0e 	mrrc	15, 0, r8, r9, cr14
    1dca:	45c3      	cmp	fp, r8
    1dcc:	eb74 0209 	sbcs.w	r2, r4, r9
    1dd0:	d209      	bcs.n	1de6 <stm32_rng_init+0xea>
    1dd2:	481a      	ldr	r0, [pc, #104]	; (1e3c <stm32_rng_init+0x140>)
    1dd4:	4478      	add	r0, pc
    1dd6:	f004 f8ab 	bl	5f30 <tf_log>
    1dda:	f06f 003b 	mvn.w	r0, #59	; 0x3b
    1dde:	e795      	b.n	1d0c <stm32_rng_init+0x10>
    1de0:	f00c fa8a 	bl	e2f8 <stm32mp_register_secure_periph_iomem>
    1de4:	e7b5      	b.n	1d52 <stm32_rng_init+0x56>
    1de6:	f013 0f44 	tst.w	r3, #68	; 0x44
    1dea:	d00f      	beq.n	1e0c <stm32_rng_init+0x110>
    1dec:	f7ff ff02 	bl	1bf4 <seed_error_recovery>
    1df0:	ee1e 0f10 	mrc	15, 0, r0, cr14, cr0, {0}
    1df4:	ec59 8f0e 	mrrc	15, 0, r8, r9, cr14
    1df8:	4632      	mov	r2, r6
    1dfa:	463b      	mov	r3, r7
    1dfc:	fba0 0105 	umull	r0, r1, r0, r5
    1e00:	f00a ed1e 	blx	c840 <__aeabi_uldivmod>
    1e04:	eb10 0b08 	adds.w	fp, r0, r8
    1e08:	eb41 0409 	adc.w	r4, r1, r9
    1e0c:	200a      	movs	r0, #10
    1e0e:	f005 fabd 	bl	738c <udelay>
    1e12:	f8da 3000 	ldr.w	r3, [sl]
    1e16:	685b      	ldr	r3, [r3, #4]
    1e18:	e7d3      	b.n	1dc2 <stm32_rng_init+0xc6>
    1e1a:	bf00      	nop
    1e1c:	000186a0 	.word	0x000186a0
    1e20:	000f4240 	.word	0x000f4240
    1e24:	00013b1c 	.word	0x00013b1c
    1e28:	0000ee68 	.word	0x0000ee68
    1e2c:	0000ee5d 	.word	0x0000ee5d
    1e30:	00013ac6 	.word	0x00013ac6
    1e34:	00013a96 	.word	0x00013a96
    1e38:	00013a60 	.word	0x00013a60
    1e3c:	0000ede6 	.word	0x0000ede6

00001e40 <stm32_rtc_read_calendar>:
    1e40:	490c      	ldr	r1, [pc, #48]	; (1e74 <stm32_rtc_read_calendar+0x34>)
    1e42:	4479      	add	r1, pc
    1e44:	680b      	ldr	r3, [r1, #0]
    1e46:	699a      	ldr	r2, [r3, #24]
    1e48:	0692      	lsls	r2, r2, #26
    1e4a:	d408      	bmi.n	1e5e <stm32_rtc_read_calendar+0x1e>
    1e4c:	68da      	ldr	r2, [r3, #12]
    1e4e:	f022 0220 	bic.w	r2, r2, #32
    1e52:	60da      	str	r2, [r3, #12]
    1e54:	680b      	ldr	r3, [r1, #0]
    1e56:	330c      	adds	r3, #12
    1e58:	681a      	ldr	r2, [r3, #0]
    1e5a:	0692      	lsls	r2, r2, #26
    1e5c:	d5fc      	bpl.n	1e58 <stm32_rtc_read_calendar+0x18>
    1e5e:	4b06      	ldr	r3, [pc, #24]	; (1e78 <stm32_rtc_read_calendar+0x38>)
    1e60:	447b      	add	r3, pc
    1e62:	681b      	ldr	r3, [r3, #0]
    1e64:	689a      	ldr	r2, [r3, #8]
    1e66:	6002      	str	r2, [r0, #0]
    1e68:	681a      	ldr	r2, [r3, #0]
    1e6a:	6042      	str	r2, [r0, #4]
    1e6c:	685b      	ldr	r3, [r3, #4]
    1e6e:	6083      	str	r3, [r0, #8]
    1e70:	4770      	bx	lr
    1e72:	bf00      	nop
    1e74:	000139ea 	.word	0x000139ea
    1e78:	000139cc 	.word	0x000139cc

00001e7c <stm32_rtc_get_date>:
    1e7c:	b510      	push	{r4, lr}
    1e7e:	b920      	cbnz	r0, 1e8a <stm32_rtc_get_date+0xe>
    1e80:	4813      	ldr	r0, [pc, #76]	; (1ed0 <stm32_rtc_get_date+0x54>)
    1e82:	21ad      	movs	r1, #173	; 0xad
    1e84:	4478      	add	r0, pc
    1e86:	f00b f9e3 	bl	d250 <__assert>
    1e8a:	b919      	cbnz	r1, 1e94 <stm32_rtc_get_date+0x18>
    1e8c:	4811      	ldr	r0, [pc, #68]	; (1ed4 <stm32_rtc_get_date+0x58>)
    1e8e:	21ae      	movs	r1, #174	; 0xae
    1e90:	4478      	add	r0, pc
    1e92:	e7f8      	b.n	1e86 <stm32_rtc_get_date+0xa>
    1e94:	6883      	ldr	r3, [r0, #8]
    1e96:	f3c3 3242 	ubfx	r2, r3, #13, #3
    1e9a:	f003 000f 	and.w	r0, r3, #15
    1e9e:	f3c3 1401 	ubfx	r4, r3, #4, #2
    1ea2:	60ca      	str	r2, [r1, #12]
    1ea4:	220a      	movs	r2, #10
    1ea6:	fb02 0004 	mla	r0, r2, r4, r0
    1eaa:	f3c3 3400 	ubfx	r4, r3, #12, #1
    1eae:	6108      	str	r0, [r1, #16]
    1eb0:	f3c3 2003 	ubfx	r0, r3, #8, #4
    1eb4:	fb02 0004 	mla	r0, r2, r4, r0
    1eb8:	6148      	str	r0, [r1, #20]
    1eba:	f3c3 5003 	ubfx	r0, r3, #20, #4
    1ebe:	f3c3 4303 	ubfx	r3, r3, #16, #4
    1ec2:	f503 63fa 	add.w	r3, r3, #2000	; 0x7d0
    1ec6:	fb02 3300 	mla	r3, r2, r0, r3
    1eca:	618b      	str	r3, [r1, #24]
    1ecc:	bd10      	pop	{r4, pc}
    1ece:	bf00      	nop
    1ed0:	0000ed48 	.word	0x0000ed48
    1ed4:	0000ed3c 	.word	0x0000ed3c

00001ed8 <stm32_rtc_get_time>:
    1ed8:	b510      	push	{r4, lr}
    1eda:	b920      	cbnz	r0, 1ee6 <stm32_rtc_get_time+0xe>
    1edc:	4813      	ldr	r0, [pc, #76]	; (1f2c <stm32_rtc_get_time+0x54>)
    1ede:	2197      	movs	r1, #151	; 0x97
    1ee0:	4478      	add	r0, pc
    1ee2:	f00b f9b5 	bl	d250 <__assert>
    1ee6:	b919      	cbnz	r1, 1ef0 <stm32_rtc_get_time+0x18>
    1ee8:	4811      	ldr	r0, [pc, #68]	; (1f30 <stm32_rtc_get_time+0x58>)
    1eea:	2198      	movs	r1, #152	; 0x98
    1eec:	4478      	add	r0, pc
    1eee:	e7f8      	b.n	1ee2 <stm32_rtc_get_time+0xa>
    1ef0:	6843      	ldr	r3, [r0, #4]
    1ef2:	240a      	movs	r4, #10
    1ef4:	f3c3 5001 	ubfx	r0, r3, #20, #2
    1ef8:	f3c3 4203 	ubfx	r2, r3, #16, #4
    1efc:	fb04 2200 	mla	r2, r4, r0, r2
    1f00:	0258      	lsls	r0, r3, #9
    1f02:	f04f 000a 	mov.w	r0, #10
    1f06:	f3c3 3402 	ubfx	r4, r3, #12, #3
    1f0a:	bf48      	it	mi
    1f0c:	320c      	addmi	r2, #12
    1f0e:	600a      	str	r2, [r1, #0]
    1f10:	f3c3 2203 	ubfx	r2, r3, #8, #4
    1f14:	fb00 2204 	mla	r2, r0, r4, r2
    1f18:	604a      	str	r2, [r1, #4]
    1f1a:	f3c3 1202 	ubfx	r2, r3, #4, #3
    1f1e:	f003 030f 	and.w	r3, r3, #15
    1f22:	fb00 3302 	mla	r3, r0, r2, r3
    1f26:	608b      	str	r3, [r1, #8]
    1f28:	bd10      	pop	{r4, pc}
    1f2a:	bf00      	nop
    1f2c:	0000ecec 	.word	0x0000ecec
    1f30:	0000ece0 	.word	0x0000ece0

00001f34 <stm32_rtc_get_second_fraction.isra.0>:
    1f34:	4b07      	ldr	r3, [pc, #28]	; (1f54 <stm32_rtc_get_second_fraction.isra.0+0x20>)
    1f36:	f44f 717a 	mov.w	r1, #1000	; 0x3e8
    1f3a:	447b      	add	r3, pc
    1f3c:	681b      	ldr	r3, [r3, #0]
    1f3e:	691a      	ldr	r2, [r3, #16]
    1f40:	b283      	uxth	r3, r0
    1f42:	f3c2 020e 	ubfx	r2, r2, #0, #15
    1f46:	1ad3      	subs	r3, r2, r3
    1f48:	1c50      	adds	r0, r2, #1
    1f4a:	434b      	muls	r3, r1
    1f4c:	fbb3 f0f0 	udiv	r0, r3, r0
    1f50:	4770      	bx	lr
    1f52:	bf00      	nop
    1f54:	000138f2 	.word	0x000138f2

00001f58 <stm32_rtc_regs_lock>:
    1f58:	b508      	push	{r3, lr}
    1f5a:	f00c faf0 	bl	e53e <stm32mp_lock_available>
    1f5e:	b128      	cbz	r0, 1f6c <stm32_rtc_regs_lock+0x14>
    1f60:	4803      	ldr	r0, [pc, #12]	; (1f70 <stm32_rtc_regs_lock+0x18>)
    1f62:	e8bd 4008 	ldmia.w	sp!, {r3, lr}
    1f66:	4478      	add	r0, pc
    1f68:	f010 bf92 	b.w	12e90 <__spin_lock_from_thumb>
    1f6c:	bd08      	pop	{r3, pc}
    1f6e:	bf00      	nop
    1f70:	000138c2 	.word	0x000138c2

00001f74 <stm32_rtc_regs_unlock>:
    1f74:	b508      	push	{r3, lr}
    1f76:	f00c fae2 	bl	e53e <stm32mp_lock_available>
    1f7a:	b128      	cbz	r0, 1f88 <stm32_rtc_regs_unlock+0x14>
    1f7c:	4803      	ldr	r0, [pc, #12]	; (1f8c <stm32_rtc_regs_unlock+0x18>)
    1f7e:	e8bd 4008 	ldmia.w	sp!, {r3, lr}
    1f82:	4478      	add	r0, pc
    1f84:	f010 bf6c 	b.w	12e60 <__spin_unlock_from_thumb>
    1f88:	bd08      	pop	{r3, pc}
    1f8a:	bf00      	nop
    1f8c:	000138a6 	.word	0x000138a6

00001f90 <stm32_rtc_get_calendar>:
    1f90:	b538      	push	{r3, r4, r5, lr}
    1f92:	4604      	mov	r4, r0
    1f94:	f00d f910 	bl	f1b8 <stm32mp1_rtc_get_read_twice>
    1f98:	4605      	mov	r5, r0
    1f9a:	f7ff ffdd 	bl	1f58 <stm32_rtc_regs_lock>
    1f9e:	4b0d      	ldr	r3, [pc, #52]	; (1fd4 <stm32_rtc_get_calendar+0x44>)
    1fa0:	447b      	add	r3, pc
    1fa2:	6858      	ldr	r0, [r3, #4]
    1fa4:	f005 f988 	bl	72b8 <clk_enable>
    1fa8:	4620      	mov	r0, r4
    1faa:	f7ff ff49 	bl	1e40 <stm32_rtc_read_calendar>
    1fae:	b13d      	cbz	r5, 1fc0 <stm32_rtc_get_calendar+0x30>
    1fb0:	6865      	ldr	r5, [r4, #4]
    1fb2:	f7ff ff45 	bl	1e40 <stm32_rtc_read_calendar>
    1fb6:	6863      	ldr	r3, [r4, #4]
    1fb8:	42ab      	cmp	r3, r5
    1fba:	d001      	beq.n	1fc0 <stm32_rtc_get_calendar+0x30>
    1fbc:	f7ff ff40 	bl	1e40 <stm32_rtc_read_calendar>
    1fc0:	4b05      	ldr	r3, [pc, #20]	; (1fd8 <stm32_rtc_get_calendar+0x48>)
    1fc2:	447b      	add	r3, pc
    1fc4:	6858      	ldr	r0, [r3, #4]
    1fc6:	f005 f98b 	bl	72e0 <clk_disable>
    1fca:	e8bd 4038 	ldmia.w	sp!, {r3, r4, r5, lr}
    1fce:	f7ff bfd1 	b.w	1f74 <stm32_rtc_regs_unlock>
    1fd2:	bf00      	nop
    1fd4:	0001388c 	.word	0x0001388c
    1fd8:	0001386a 	.word	0x0001386a

00001fdc <stm32_rtc_diff_calendar>:
    1fdc:	4b68      	ldr	r3, [pc, #416]	; (2180 <stm32_rtc_diff_calendar+0x1a4>)
    1fde:	e92d 4ff0 	stmdb	sp!, {r4, r5, r6, r7, r8, r9, sl, fp, lr}
    1fe2:	b091      	sub	sp, #68	; 0x44
    1fe4:	447b      	add	r3, pc
    1fe6:	4604      	mov	r4, r0
    1fe8:	af02      	add	r7, sp, #8
    1fea:	460d      	mov	r5, r1
    1fec:	6858      	ldr	r0, [r3, #4]
    1fee:	ae09      	add	r6, sp, #36	; 0x24
    1ff0:	f005 f962 	bl	72b8 <clk_enable>
    1ff4:	4639      	mov	r1, r7
    1ff6:	4620      	mov	r0, r4
    1ff8:	f7ff ff40 	bl	1e7c <stm32_rtc_get_date>
    1ffc:	4631      	mov	r1, r6
    1ffe:	4628      	mov	r0, r5
    2000:	f7ff ff3c 	bl	1e7c <stm32_rtc_get_date>
    2004:	4639      	mov	r1, r7
    2006:	4620      	mov	r0, r4
    2008:	2700      	movs	r7, #0
    200a:	f7ff ff65 	bl	1ed8 <stm32_rtc_get_time>
    200e:	4631      	mov	r1, r6
    2010:	4628      	mov	r0, r5
    2012:	463e      	mov	r6, r7
    2014:	f7ff ff60 	bl	1ed8 <stm32_rtc_get_time>
    2018:	6820      	ldr	r0, [r4, #0]
    201a:	f7ff ff8b 	bl	1f34 <stm32_rtc_get_second_fraction.isra.0>
    201e:	4604      	mov	r4, r0
    2020:	6828      	ldr	r0, [r5, #0]
    2022:	f7ff ff87 	bl	1f34 <stm32_rtc_get_second_fraction.isra.0>
    2026:	9a02      	ldr	r2, [sp, #8]
    2028:	213c      	movs	r1, #60	; 0x3c
    202a:	9b03      	ldr	r3, [sp, #12]
    202c:	f8dd b034 	ldr.w	fp, [sp, #52]	; 0x34
    2030:	fbe2 3601 	umlal	r3, r6, r2, r1
    2034:	9a04      	ldr	r2, [sp, #16]
    2036:	fba3 3501 	umull	r3, r5, r3, r1
    203a:	189a      	adds	r2, r3, r2
    203c:	fb01 5506 	mla	r5, r1, r6, r5
    2040:	9b0a      	ldr	r3, [sp, #40]	; 0x28
    2042:	9e09      	ldr	r6, [sp, #36]	; 0x24
    2044:	f145 0500 	adc.w	r5, r5, #0
    2048:	fbe6 3701 	umlal	r3, r7, r6, r1
    204c:	fba3 3601 	umull	r3, r6, r3, r1
    2050:	fb01 6107 	mla	r1, r1, r7, r6
    2054:	9e0b      	ldr	r6, [sp, #44]	; 0x2c
    2056:	199b      	adds	r3, r3, r6
    2058:	f141 0100 	adc.w	r1, r1, #0
    205c:	1ad3      	subs	r3, r2, r3
    205e:	f44f 727a 	mov.w	r2, #1000	; 0x3e8
    2062:	eb65 0501 	sbc.w	r5, r5, r1
    2066:	fba3 3102 	umull	r3, r1, r3, r2
    206a:	1a24      	subs	r4, r4, r0
    206c:	fb02 1105 	mla	r1, r2, r5, r1
    2070:	eb62 0202 	sbc.w	r2, r2, r2
    2074:	191d      	adds	r5, r3, r4
    2076:	eb41 0102 	adc.w	r1, r1, r2
    207a:	9a06      	ldr	r2, [sp, #24]
    207c:	9e0e      	ldr	r6, [sp, #56]	; 0x38
    207e:	455a      	cmp	r2, fp
    2080:	eba2 040b 	sub.w	r4, r2, fp
    2084:	d205      	bcs.n	2092 <stm32_rtc_diff_calendar+0xb6>
    2086:	4b3f      	ldr	r3, [pc, #252]	; (2184 <stm32_rtc_diff_calendar+0x1a8>)
    2088:	447b      	add	r3, pc
    208a:	4433      	add	r3, r6
    208c:	f813 3c01 	ldrb.w	r3, [r3, #-1]
    2090:	441c      	add	r4, r3
    2092:	9f07      	ldr	r7, [sp, #28]
    2094:	1c73      	adds	r3, r6, #1
    2096:	429f      	cmp	r7, r3
    2098:	d90c      	bls.n	20b4 <stm32_rtc_diff_calendar+0xd8>
    209a:	f8df c0ec 	ldr.w	ip, [pc, #236]	; 2188 <stm32_rtc_diff_calendar+0x1ac>
    209e:	4618      	mov	r0, r3
    20a0:	44fc      	add	ip, pc
    20a2:	44b4      	add	ip, r6
    20a4:	280b      	cmp	r0, #11
    20a6:	d805      	bhi.n	20b4 <stm32_rtc_diff_calendar+0xd8>
    20a8:	f81c eb01 	ldrb.w	lr, [ip], #1
    20ac:	3001      	adds	r0, #1
    20ae:	4287      	cmp	r7, r0
    20b0:	4474      	add	r4, lr
    20b2:	d8f7      	bhi.n	20a4 <stm32_rtc_diff_calendar+0xc8>
    20b4:	1e70      	subs	r0, r6, #1
    20b6:	4287      	cmp	r7, r0
    20b8:	d216      	bcs.n	20e8 <stm32_rtc_diff_calendar+0x10c>
    20ba:	f8df c0d0 	ldr.w	ip, [pc, #208]	; 218c <stm32_rtc_diff_calendar+0x1b0>
    20be:	2001      	movs	r0, #1
    20c0:	44fc      	add	ip, pc
    20c2:	4287      	cmp	r7, r0
    20c4:	d901      	bls.n	20ca <stm32_rtc_diff_calendar+0xee>
    20c6:	280c      	cmp	r0, #12
    20c8:	d103      	bne.n	20d2 <stm32_rtc_diff_calendar+0xf6>
    20ca:	4831      	ldr	r0, [pc, #196]	; (2190 <stm32_rtc_diff_calendar+0x1b4>)
    20cc:	4478      	add	r0, pc
    20ce:	4430      	add	r0, r6
    20d0:	e008      	b.n	20e4 <stm32_rtc_diff_calendar+0x108>
    20d2:	f81c eb01 	ldrb.w	lr, [ip], #1
    20d6:	3001      	adds	r0, #1
    20d8:	4474      	add	r4, lr
    20da:	e7f2      	b.n	20c2 <stm32_rtc_diff_calendar+0xe6>
    20dc:	f810 cb01 	ldrb.w	ip, [r0], #1
    20e0:	3301      	adds	r3, #1
    20e2:	4464      	add	r4, ip
    20e4:	2b0b      	cmp	r3, #11
    20e6:	d9f9      	bls.n	20dc <stm32_rtc_diff_calendar+0x100>
    20e8:	f8dd a03c 	ldr.w	sl, [sp, #60]	; 0x3c
    20ec:	f8dd 9020 	ldr.w	r9, [sp, #32]
    20f0:	f10a 0801 	add.w	r8, sl, #1
    20f4:	45c1      	cmp	r9, r8
    20f6:	d908      	bls.n	210a <stm32_rtc_diff_calendar+0x12e>
    20f8:	eba9 030a 	sub.w	r3, r9, sl
    20fc:	f240 106d 	movw	r0, #365	; 0x16d
    2100:	fb00 4303 	mla	r3, r0, r3, r4
    2104:	f46f 70b6 	mvn.w	r0, #364	; 0x16c
    2108:	181c      	adds	r4, r3, r0
    210a:	9201      	str	r2, [sp, #4]
    210c:	b16c      	cbz	r4, 212a <stm32_rtc_diff_calendar+0x14e>
    210e:	4648      	mov	r0, r9
    2110:	f00b fdcc 	bl	dcac <stm32_is_a_leap_year>
    2114:	45d1      	cmp	r9, sl
    2116:	9a01      	ldr	r2, [sp, #4]
    2118:	d115      	bne.n	2146 <stm32_rtc_diff_calendar+0x16a>
    211a:	b130      	cbz	r0, 212a <stm32_rtc_diff_calendar+0x14e>
    211c:	2e02      	cmp	r6, #2
    211e:	d804      	bhi.n	212a <stm32_rtc_diff_calendar+0x14e>
    2120:	2f02      	cmp	r7, #2
    2122:	d902      	bls.n	212a <stm32_rtc_diff_calendar+0x14e>
    2124:	2a1c      	cmp	r2, #28
    2126:	d800      	bhi.n	212a <stm32_rtc_diff_calendar+0x14e>
    2128:	3401      	adds	r4, #1
    212a:	4b14      	ldr	r3, [pc, #80]	; (217c <stm32_rtc_diff_calendar+0x1a0>)
    212c:	fbe4 5103 	umlal	r5, r1, r4, r3
    2130:	4b18      	ldr	r3, [pc, #96]	; (2194 <stm32_rtc_diff_calendar+0x1b8>)
    2132:	460e      	mov	r6, r1
    2134:	447b      	add	r3, pc
    2136:	6858      	ldr	r0, [r3, #4]
    2138:	f005 f8d2 	bl	72e0 <clk_disable>
    213c:	4628      	mov	r0, r5
    213e:	4631      	mov	r1, r6
    2140:	b011      	add	sp, #68	; 0x44
    2142:	e8bd 8ff0 	ldmia.w	sp!, {r4, r5, r6, r7, r8, r9, sl, fp, pc}
    2146:	9001      	str	r0, [sp, #4]
    2148:	4650      	mov	r0, sl
    214a:	f00b fdaf 	bl	dcac <stm32_is_a_leap_year>
    214e:	9b01      	ldr	r3, [sp, #4]
    2150:	b128      	cbz	r0, 215e <stm32_rtc_diff_calendar+0x182>
    2152:	2e02      	cmp	r6, #2
    2154:	d803      	bhi.n	215e <stm32_rtc_diff_calendar+0x182>
    2156:	f1bb 0f1c 	cmp.w	fp, #28
    215a:	bf98      	it	ls
    215c:	3401      	addls	r4, #1
    215e:	b113      	cbz	r3, 2166 <stm32_rtc_diff_calendar+0x18a>
    2160:	2f02      	cmp	r7, #2
    2162:	d900      	bls.n	2166 <stm32_rtc_diff_calendar+0x18a>
    2164:	3401      	adds	r4, #1
    2166:	45c1      	cmp	r9, r8
    2168:	d9df      	bls.n	212a <stm32_rtc_diff_calendar+0x14e>
    216a:	4640      	mov	r0, r8
    216c:	f00b fd9e 	bl	dcac <stm32_is_a_leap_year>
    2170:	b100      	cbz	r0, 2174 <stm32_rtc_diff_calendar+0x198>
    2172:	3401      	adds	r4, #1
    2174:	f108 0801 	add.w	r8, r8, #1
    2178:	e7f5      	b.n	2166 <stm32_rtc_diff_calendar+0x18a>
    217a:	bf00      	nop
    217c:	05265c00 	.word	0x05265c00
    2180:	00013848 	.word	0x00013848
    2184:	0000eb6f 	.word	0x0000eb6f
    2188:	0000eb57 	.word	0x0000eb57
    218c:	0000eb37 	.word	0x0000eb37
    2190:	0000eb2b 	.word	0x0000eb2b
    2194:	000136f8 	.word	0x000136f8

00002198 <stm32_rtc_get_timestamp>:
    2198:	b5f0      	push	{r4, r5, r6, r7, lr}
    219a:	b085      	sub	sp, #20
    219c:	4f1a      	ldr	r7, [pc, #104]	; (2208 <stm32_rtc_get_timestamp+0x70>)
    219e:	4605      	mov	r5, r0
    21a0:	f7ff feda 	bl	1f58 <stm32_rtc_regs_lock>
